:020000040800F2
:100000000009002091010008F5310008E9290008E5
:10001000F1310008E50600084D330008000000003B
:100020000000000000000000000000003533000860
:10003000F506000800000000F93100083933000817
:10004000AB010008AB010008AB010008AB010008E0
:10005000AB010008AB010008AB010008AB010008D0
:10006000AB010008AB010008AB010008E90600087D
:10007000AB010008AB010008AB010008AB010008B0
:10008000AB010008AB010008AB010008AB010008A0
:10009000AB010008AB010008AB010008AB01000890
:1000A000AB010008AB010008AB01000841330008B8
:1000B000AB010008AB010008AB010008AB01000870
:1000C000AB010008AB010008AB010008FD310008DE
:1000D000AB010008AB010008AB010008AB01000850
:1000E000F9060008AB010008AB01000800F002F8B7
:1000F00000F03FF80AA090E8000C82448344AAF183
:100100000107DA4501D100F034F8AFF2090EBAE880
:100110000F0013F0010F18BFFB1A43F0010318473B
:10012000A03F0000C03F0000103A24BF78C878C14B
:10013000FAD8520724BF30C830C144BF04680C60ED
:10014000704700000023002400250026103A28BF35
:1001500078C1FBD8520728BF30C148BF0B60704739
:10016000642900F04B80002070471FB51FBD10B5FB
:1001700010BD00F0ECF91146FFF7F7FF03F0E8F8C7
:1001800000F00AFA03B4FFF7F2FF03BC00F00EFA26
:100190000948804709480047FEE7FEE7FEE7FEE71B
:1001A000FEE7FEE7FEE7FEE7FEE7FEE70448054957
:1001B000054A064B704700003D330008ED0000087B
:1001C0000003002000090020000500200005002099
:1001D0000FB41CB5084B06AA7B44694600900598ED
:1001E00000F097F904460020694600F0A5F9204682
:1001F0001CBC5DF814FB00005D0300002DE9F0411C
:100200000646002410687529314616A510D0AFF3B4
:100210000080002802DA404213A507E031688A070F
:1002200001D512A502E0490704D511A5012401E07A
:10023000AFF3008000210A2206F1240709E0B0FB99
:10024000F2FCB0FBF2F302FB1C003030785418468D
:10025000491C0028F3D123462A463046BDE8F04128
:1002600000F0F9B8000000002D0000002B00000095
:10027000200000002DE9F05F894604464FF0000A97
:10028000DFF824B1FB44C0F820A02046E16888478D
:1002900000287DD0252806D0D4E901219047206A86
:1002A000401C2062F1E700255F462046E168884750
:1002B0002028064607DB312E05D2B81910F8200C8D
:1002C00008B10543F1E7A80701D525F00405C4F8F6
:1002D0001CA00027C4F818A02A2E09D0304603F02D
:1002E00008FB38B304EB8708303EC8F8186019E003
:1002F00059F8041B204604EB87029161E1688847A6
:10030000012F064618D1E069002820DA25F02005E3
:100310001DE0D8F8180000EB800006EB40003038F4
:10032000C8F818002046E1688847064603F0E1FA5D
:100330000028EED1012F0AD02E2E08D12046E168E8
:1003400088477F1C0646022F45F02005C4DBA069C4
:10035000002803DA404245F00105A061E80701D01A
:1003600025F01005A6B1A6F14100192802D82036C3
:1003700045F400654A463146204625604D46FFF764
:10038000EFFE60B1012807D0ED1D25F0070000E069
:1003900007E000F1080978E705F1040975E7304640
:1003A0007AE7206ABDE8F09F8C3D000010B5431C41
:1003B00002E010F8011B71B18107FAD14FF0013250
:1003C00002C88C1A8C4314EAC211F9D0C01A0A066A
:1003D00003D0C01E10BDC01A10BD0A0401D0801E7B
:1003E00010BD0902FCD0401E10BD421E12F8013F94
:1003F000002BFBD111F8013B002B02F8013BF9D196
:1004000070474FF0000200B51346944696462039D7
:1004100022BFA0E80C50A0E80C50B1F12001BFF4BD
:10042000F7AF090728BFA0E80C5048BF0CC05DF823
:1004300004EB890028BF40F8042B08BF704748BF71
:1004400020F8022B11F0804F18BF00F8012B7047E5
:100450007047704770472DE9F0470D469946924620
:10046000044600F124080168880604D5E06921F0FB
:100470001001216000E00120A84201DD471B00E0DF
:100480000027A1697A1902EB0900081AA0612078F7
:10049000C00602D42046AFF30080002608E0D4E96D
:1004A00001211AF806009047206A401C761C206241
:1004B0004E45F4DB2078C0060AD52046AFF3008015
:1004C00006E0D4E9012130209047206A401C2062D8
:1004D000381EA7F10107F4DC07E0D4E9012118F880
:1004E00005009047206A401C2062281EA5F10105E6
:1004F000F3DC2046AFF300802078000602D502200E
:10050000BDE8F0870120FBE701694A1C0261087819
:10051000704700B58FB0CDE9013100210591054943
:100520007944CDE9031011466846FFF7A3FE0FB0EA
:1005300000BD0000E5FFFFFF0A6802F8010B0A603A
:100540007047000000487047100000207047754653
:10055000FFF7F8FFAE4605006946534620F0070056
:10056000854618B020B5FFF721FEBDE820404FF0CA
:1005700000064FF000074FF000084FF0000BAC46AC
:10058000ACE8C009ACE8C009ACE8C009ACE8C009F7
:1005900021F007018D46704710B50446AFF3008087
:1005A0002046BDE81040FFF7EDBD000001491820CE
:1005B000ABBEFEE7260002000146406A826A12F0E6
:1005C000500F03D0006A026B084610470168826A28
:1005D00042F400728262896801F46021B1F5602FF3
:1005E00001D1017B11B100F057B900BF816A21F43C
:1005F00080718162816AC90448BF00F04DB9816A87
:1006000041F00101816200F047B90000406A816A4F
:1006100041F040018162C16A41F00401C16200F011
:100620003FB90000406A00F039B90000B0B582B0AF
:1006300004460020019021688A68D2074FD188685B
:1006400040F00100886040F20800C2F2000000683B
:100650004DF68361C4F21B31A0FB0101880C0190AF
:100660000198A0B1019801380190019878B10198E2
:1006700001380190019850B101980138019001981A
:1006800028B101980138019001980028EAD100F0C2
:100690008FFD21688968C9071CD1054603E000BFAA
:1006A0008068C0071AD100F083FD411B2068032930
:1006B000F6D38168C907F3D1A06A40F01000A062A8
:1006C000E06A40F00100E062002084F8240001208C
:1006D00002B0B0BD002002B0B0BD00BF002002B02B
:1006E000B0BD0000FEE7000040F21420C2F200009E
:1006F00000F0BEBA704700004FF4806000F030BCDC
:10070000EFF3108072B600BFFEE7000010B581B0B5
:100710000022009290F82420012A03D102210846E9
:1007200001B010BD4B680122062B80F8242017D899
:10073000D0F800C003EB83035A1F1F23DCF834E01A
:1007400003FA02F40B682EEA040403FA02F22243CD
:10075000CCF83420092B03EB430219D936E000BF53
:10076000D0F800C00C2B03EB83021DD8233A1F23C3
:10077000DCF830E003FA02F40B682EEA040403FA12
:1007800002F22243CCF83020092B03EB43021DD8A0
:10079000DCF81030072489689440A3439140194342
:1007A000CCF81010002130E0413A1F23DCF82CE097
:1007B00003FA02F40B682EEA040403FA02F222435D
:1007C000CCF82C20092B03EB4302E1D9DCF80CE038
:1007D0001E3A0724896894402EEA0404914023F0CD
:1007E00001022143102ACCF80C100DD142F208412D
:1007F000C4F20101A1F1080294450DD0816A41F0D3
:1008000020018162012100E00021002280F82420E3
:10081000084601B010BD00BF0A68120230D40A6851
:10082000102B42F400020A602CD140F20801C2F2FF
:10083000000109684DF68362C4F21B32A1FB02126B
:10084000910C01EB8101490000910099E1B10099FF
:10085000013900910099C9B10099013900910099BD
:10086000B1B1009901390091009999B1009901390C
:100870000091009900294FF00001E8D1C5E700BFC1
:100880000021C2E70021C0E70021BEE70021BCE74C
:100890000021BAE70021B8E7704700007047000068
:1008A00070470000B0B5002800F0A8800446806AB8
:1008B00020B121688868C0070BD114E00020E062F5
:1008C00084F82400204600F09BF821688868C0075F
:1008D00009D0886820F00100886000F069FC216878
:1008E0008A68D20726D1A06AC0063AD4A06A41F22B
:1008F000021290430230A062E069D4E9013240EA7A
:10090000030C531EB3FA83F35D091346B2F5807FDF
:1009100018BF2B02207D257B01284CEA450030D1F1
:1009200035B3A56A45F02005A562E56A45F00105E5
:10093000E56226E0054602E08868C007D3D000F0F3
:1009400037FC401B21680328F6D38868C007F3D022
:10095000A06A40F01000A062E06A40F00100E0628E
:10096000A06AA06A40F01000A0620120B0BD00BFE4
:10097000D4F818C04EF60005CFF6FF7505EB4C35E0
:100980002B434D68B2F5807F25F4694543EA0503A2
:100990004B608B684FF2FD75CFF6E17503EA0503F6
:1009A00043EA00038B6001D0012A07D122690023AA
:1009B000CFF6F07303EB025201E000BF0022CB6AD6
:1009C00023F470031A43CA62896840F6FE62CFF6C8
:1009D0001F721140814207D10020E062A16A01220A
:1009E00062F30101A162B0BDA06A40F0100020F0E6
:1009F0000200A062E06A40F00100E0620120B0BDA8
:100A000070B586B0044640F60000C4F201002168CB
:100A100000F5E052002691420596049602D006B0F9
:100A200070BD00BF41F21801C4F202010A6842F42D
:100A300000720A600A6802F400720192019A0A6860
:100A400042F004020A60096801F004010191019971
:100A5000042102910321039102A900F08DFA40F2D2
:100A600014250820C2F20005C4F202004FF480727F
:100A7000C5E9000605F1100080214FF480634FF0B6
:100A8000200C80E80C102846C5E90261EE6100F0F8
:100A9000BFF9002818BFFFF733FE25626C6206B06D
:100AA00070BD000070B515460446006842F60002AD
:100AB000C4F2010290420E4605D042F20041C4F257
:100AC0000101884209D142F20440C4F201000068E9
:100AD00010F4702F1CBF012070BD94F82400012871
:100AE00004BF022070BD012084F824002046FFF7D7
:100AF0009DFD18B1002184F8241070BD42F204401D
:100B00002168A26AC4F2010040F601739A4300F51D
:100B10007F7302F580729942A26243D0A06A20F4EA
:100B20008010A0624868400504D5A06A012262F3E3
:100B30000D30A062A26A0020D2044FF0000244BF30
:100B4000E26A22F00602E26284F82400206A40F29F
:100B5000B952C0F6000240F2256340F20D6C00F17C
:100B6000280EC0F60003C0F6000C8EE80C106FF0E3
:100B700002020A608A682B4642F480728A604C3115
:100B8000324600F089F92068816801F460228168AA
:100B9000B2F5602F0CBF41F4A00141F480118160D7
:100BA000002070BD026812F4702FB7D0A26A42F420
:100BB0008012A26200684005BCD5B6E780B590F807
:100BC0002110022924D10268116821F00E01116060
:100BD0002F211368C4F202018A4240F20401C4F2D8
:100BE000020123F00103136016DD3023C4F2020377
:100BF0009A421DD04423C4F202039A421CD05823C7
:100C0000C4F202039A421DD14FF4803322E000BFA8
:100C100004218163012080BD0823C4F202039A42AB
:100C20000ED01C23C4F202039A420BD1102311E010
:100C30004FF480730EE000BF4FF480530AE000BF12
:100C4000012307E001F1680C4FF08073624508BF93
:100C50004FF480130B60012180F82110426B0021BA
:100C600080F820100AB190470021084680BD00009E
:100C700010B5D0E90FCE0168DCF800300A6823FA1D
:100C80000EF35C072AD512F0040427D00A689206F6
:100C900003D40A6822F004020A602F22C4F202027E
:100CA000914240F20402C4F202025BDD3023C4F23E
:100CB0000203994272D04423C4F20203994273D0D2
:100CC0005823C4F20203994240F07A804FF4802303
:100CD0001360C16A002940F098806FE09C0727D517
:100CE00012F0020424D00A68920606D40A6822F0A0
:100CF0000A020A60012280F821202F22C4F2020297
:100D0000914240F20402C4F202023BDD3023C4F2FD
:100D10000203994260D04423C4F2020399425FD097
:100D20005823C4F20203994260D14FF4003365E0C6
:100D30001B0743D512F0080208BF10BD0A6822F055
:100D40000E020A60012101FA0EF2CCF80420816340
:100D500080F82110016B0022002980F8202054D156
:100D60002CE000BF0823C4F20203994222D01C23C6
:100D7000C4F20203994223D140231360C16A0029BF
:100D800043D11BE00823C4F2020399422CD01C2358
:100D9000C4F20203994229D120232FE04FF480634B
:100DA0001360C16A89BB09E04FF480431360C16AD4
:100DB00059BB03E004231360C16A31BB10BD00BFFF
:100DC00002F168044FF08063A14208BF4FF4800332
:100DD0001360C16AC9B9F1E74FF400730EE000BFB8
:100DE0004FF400530AE000BF022307E002F1680459
:100DF0004FF00073A14208BF4FF400131360816AE3
:100E00000022002980F82020D8D0BDE810400847F3
:100E1000014600284FF0010008BF70472DE9F0435C
:100E2000D1F800C04FF6F873CBF6FD734CF6CD4207
:100E30006344CCF6CC42A3FB02236FF0030707EA1E
:100E400093030027C4F2020701F10C09C1E90F73F3
:100E50000223D1E9012E99E87002D1F81C8081F8B3
:100E60002130DCF8003043F6F077BB431A4342EA06
:100E70000E0222432A43324342EA090242EA0802AE
:100E8000CCF8002000228A6381F8210081F820201C
:100E90000020BDE8F0437047F0B590F820C0BCF1E9
:100EA000010F32D04FF0010E80F820E090F821C001
:100EB000BCF1010F26D14FF0020C80F821C04FF099
:100EC000000CC0F838C0D0E900C4C56AC66BDCF8B5
:100ED0000070102C27F00107CCF80070006C0EFA9F
:100EE00000F070600846CCF8043004BF10460A4693
:100EF000CCF80800CCF80C20DCF8000045B140F03C
:100F00000E000DE0002180F820100220F0BD00BF8F
:100F100020F00400CCF80000DCF8000040F00A00EB
:100F2000CCF80000DCF8000040F00100CCF8000034
:100F30000020F0BDB0B5044600F03AF9054640F295
:100F40000000C2F200000078611C18BF044400BF1A
:100F500000F02EF9401BA042FAD3B0BD704700004C
:100F600040F21441C4F201010A68024214BF086051
:100F70007047FFF7F3BF00002DE9F04F82B00E6815
:100F8000002E00F0038141F20042C4F2010204236A
:100F900040F2004E904208BF03234FF6FF7CC4F29C
:100FA000010E009300240123C1F2100C4FF0000A3F
:100FB0004FF0000949E000BF012704F00C030F22A5
:100FC0009A402BEA020207FA03F34FEA9A051A4302
:100FD00046F82520D1F804B040F20C455FEACB2258
:100FE000DEF8082054BF22EA080242EA0802C4F2EE
:100FF0000105CEF808202A685FEA8B2354BF22EA55
:10100000080242EA08022A605FEA8B33DEF8042015
:1010100054BF22EA080242EA08025FEACB33CEF864
:101020000420DEF800204FF0010354BF22EA08023A
:1010300042EA0802CEF800200E680AF1010A36FAE8
:101040000AF204F1040400F0A18003FA0AF816EA97
:10105000080FF1D04E68664512DC122E56D8DFE834
:1010600006F0350B4549555555555555555555556A
:101070005555554D510000BFD1F80C9046E000BFCA
:101080004FF6FF72C1F2210296420FDC0022C1F23C
:10109000110296421AD00022C1F21202964215D0D5
:1010A0000022C1F22102964210D02FE00022C1F2AC
:1010B000220296420AD00022C1F23102964205D0A5
:1010C0000022C1F23202964220D100BF8A684AB1A2
:1010D000012A14BFC0F81480C0F810804FF008092E
:1010E00014E000BF4FF0040910E000BFCA6802F12D
:1010F00008090BE04FF0000908E000BFCA6802F1E0
:10110000040903E0CA6802F10C0900BF2246064642
:10111000BAF1080F24BF203A043637680F259540EE
:1011200027EA050509FA02F22A433260CA79D20693
:101130007FF582AF41F21803C4F202031A68AEF5DC
:101140007E7642F001021A601A6802F001020192F2
:10115000019A2AF0030256F802B040F60002C4F2E7
:101160000102904210D040F60042C4F201029042C7
:101170003FF422AF41F20002C4F20102009F90420C
:1011800008BF022719E700BF002716E702B0BDE835
:10119000F08F0000C26802EA0103914341EA034173
:1011A00001617047002A08BF09040161704700000F
:1011B00040F2F820C2F200000068704740F20000E0
:1011C00040F2F821C2F20000C2F2000100780A6881
:1011D000104408607047000080B542F20000C4F27D
:1011E0000200016841F010010160032000F08EF858
:1011F0000F2000F005F800F027F8002080BD000067
:1012000070B540F20006C2F2000640F208013278E2
:10121000C2F200014FF47A730968B3FBF2F204469C
:10122000B1FBF2F1084601F04BF80F2C4FF001052D
:1012300008D838B94FF0FF3021460022002500F0D1
:1012400039F87460284670BD82B041F21800C4F2CB
:1012500002000168022241F001010160016801F011
:10126000010101910199416841F08051416040685C
:1012700000F08050009000980420C4F20100016842
:1012800062F31A61016002B070470000002848BF95
:101290007047C1B200F01F00012202FA00F04EF2C6
:1012A0000012CEF2000242EAD10121F003010860EF
:1012B0007047000010B54EF60C5CCEF2000CDCF866
:1012C0000030C3F3022E8EF00704042C28BF042440
:1012D000BEF103034FF0FF3E0EFA04F438BF0023C3
:1012E000A14399400EFA03F39A43114300F00F0211
:1012F00000F160430901043A03F5644362440028A5
:1013000048BF02F10C03197010BD00004EF60C51DD
:10131000CEF200010A684FF6FF031A4060F30A227A
:1013200042F0806040F0FD70086070472DE9F041A8
:1013300082B00446007841F21C06C007C4F20206DF
:101340004AD0306810F0805808D1306840F08050A2
:101350003060306800F080500190019847F200073B
:10136000C4F200073868C00512D4386840F48070B1
:101370003860FFF71DFF05463868C00508D4FFF741
:1013800017FF401B6428F7D9032002B0BDE8F081A5
:10139000706810F4407012D0616801F440718842A6
:1013A0000DD0706840F24042C4F24222012320F482
:1013B000407113600023C007136071602AD1706808
:1013C000616820F440700843B8F1000F706003D1E9
:1013D000306820F0805030602068810707D556F8CB
:1013E000181CA26821F44041114346F8181CC0069D
:1013F00004D4002002B0BDE8F08100BF56F8180CFC
:10140000E16820F48000084346F8180C002002B080
:10141000BDE8F081FFF7CCFE054641F2883700BFFA
:1014200070688007CBD4FFF7C3FE401BB8424FF073
:101430000300F5D9EBE700002DE9F04381B0002867
:1014400000F0858042F20008C4F202080446D8F891
:1014500000000D4600F0070088420CD2D8F80000CA
:1014600020F007002843C8F80000D8F8000000F07A
:101470000700A8426BD1206841F204098107C4F239
:10148000020917D5410705D5D9F8001041F4E061EC
:10149000C9F80010010705D5D9F8001041F46051D2
:1014A000C9F80010D9F80010A26821F0F00111432A
:1014B000C9F80010C00741D1D8F8000000F00700BB
:1014C000A8420CD9D8F8000020F007002843C8F83B
:1014D0000000D8F8000000F00700A84237D12068CB
:1014E000410707D5D9F80010E26821F4E061114303
:1014F000C9F80010000708D5D9F80000216920F4C8
:10150000605040EAC100C9F80000D9F8002002F09C
:101510000C00082841F20020C0F27A0050D144F2B9
:101520008A03C2F38341C0F60003595CD2033BD463
:1015300040F60010C0F23D00484341E060680228D8
:101540000AD001282AD159F8041C890308D40120A3
:1015500001B0BDE8F08300BF59F8041C8901F6D53D
:10156000D9F8001021F003010843C9F80000FFF783
:101570001FFE064641F28837D9F80000616800F086
:101580000C00B0EB810F97D0FFF712FE801BB84222
:10159000F2D9032001B0BDE8F08300BF59F8041C64
:1015A0008907D4D5DCE700BFD9F8002044F28803CE
:1015B000C2F34042C0F600039A5C4843B0FBF2F02D
:1015C000D9F8001044F27802C1F30311C0F600020A
:1015D000515C40F2080220FA01F140F20400C2F22C
:1015E00000000068C2F200021160FFF709FE00204F
:1015F00001B0BDE8F08300002DE9F04182B0002881
:1016000068D00446007841F20006C007C4F2020622
:1016100025D0706800F00C0004281BD0706800F022
:101620000C00082802D17068C00313D46068002839
:1016300000F06881B0F5A02F00F07C81B0F5803F0C
:1016400000F07C81306820F480303060306820F415
:10165000802076E13068800301D56068D0B32078BF
:10166000800718D5706810F00C0F07D0706800F074
:101670000C0008286ED17068C0036BD430688007F6
:1016800002D52069012825D13068616920F0F80071
:1016900040EAC1003060207800071FD4207840075E
:1016A00032D4E56995B1706800F00C00082840F06C
:1016B0008F80012D0ED07068216A00F480328A423A
:1016C00008D1616A00F47010884203D1002002B092
:1016D000BDE8F081012002B0BDE8F081A0690028DA
:1016E00062D00020C4F242200121C0F88014FFF72C
:1016F0005FFD0546706A800700F18C80FFF758FD9A
:10170000401B0228F6D92AE1F06910F0805808D170
:10171000F06940F08050F061F06900F08050009076
:10172000009847F20007C4F200073868C00529D4C2
:10173000386840F480703860FFF73AFD054600BF16
:101740003868C0051ED4FFF733FD401B6428F7D965
:1017500005E100BF2069002840F20000C4F24220E9
:1017600000F0828001210160FFF722FD054600BFE5
:10177000306880073FF588AFFFF71AFD401B02284D
:10178000F6D9ECE0E068002800F08080052800F041
:101790009780012800F09880306A20F001003062C4
:1017A000306A20F0040092E00020C4F242200021C0
:1017B000C0F88014FFF7FCFC054600BF706A800784
:1017C0007FF56CAFFFF7F4FC401B0228F6D9C6E0AA
:1017D0000027C4F2422700203866FFF7E9FC022DFB
:1017E00005460BD13068800140F1BE80FFF7E0FC78
:1017F000401B02284FF00300F4D968E730688001ED
:101800007FF564AFFFF7D4FC401B02284FF00300C4
:10181000F4D95CE740F20800C2F20000006844F628
:10182000D351C1F26201A0FB0101480A019000BF3F
:1018300000BF0198411E002801913FF42FAF00BF67
:101840000198411E002801913FF428AF00BF019884
:10185000411E002801913FF421AF00BF0198411EB5
:1018600000280191E4D119E700210160FFF7A0FCF5
:10187000054600BF306880077FF50DAFFFF798FC85
:10188000401B02284FF00300F4D920E7306A20F013
:1018900001003062306A20F004003062FFF788FCFB
:1018A000054641F2883700BF306A800720D5FFF730
:1018B0007FFC401BB8424FF00300F5D907E700BF9B
:1018C000306A40F004003062306A40F0010030625B
:1018D000FFF76EFC054641F2883700BF306A80078B
:1018E00006D4FFF765FC401BB842F7D937E000BFCC
:1018F000B8F1000F7FF4D5AEF06920F08050F061B0
:10190000CFE600BF306820F480303060306820F4CB
:1019100080203060FFF74CFC054600BF3068800334
:101920007FF59DAEFFF744FC401B64284FF0030099
:10193000F4D9CCE6306840F480203060306840F460
:1019400080303060FFF734FC054600BF306880030C
:101950003FF585AEFFF72CFC401B6428F6D9032029
:1019600002B0BDE8F08100BF206AB0F5803F05D12C
:101970007168A26821F40031114371607168626A74
:1019800021F4741111430843706001203866FFF799
:101990000FFC0446306880013FF598AEFFF708FC65
:1019A000001B02284FF00300F4D990E670470000B6
:1019B00090F8510070470000B0B584B0044600684C
:1019C0004168826812F0400305D112F0010518BF8A
:1019D00011F0400512D1950708D511F0800505D00A
:1019E000616C204604B0BDE8B040084712F0600FBB
:1019F00018BF11F0200507D104B0B0BD216C2046FE
:101A000004B0BDE8B0400847BBB194F85130032B97
:101A100008D100210291C168029180680290029869
:101A200004B0B0BD636D43F004036365002303930A
:101A3000C368039383680393039B12F020020CD0C6
:101A4000626D42F001026265002201928268019299
:101A5000026822F040020260019A626D002ACBD037
:101A60004268890722F0E00242604FF0010284F8E8
:101A700051201FD0416843F2092521F00301416044
:101A8000E06CC0F6000538B14563FFF797F818B170
:101A9000606D40F040006065A06C0028ACD04563EC
:101AA000FFF78CF80028A7D0606D40F0400060651B
:101AB00004B0B0BD204604B0BDE8B040FFF776BF2B
:101AC00070B538B10446406A30B10020206104F19D
:101AD000140007E0012070BD6068B0F5827F03D07C
:101AE00004F11C00002101600026A66294F8510058
:101AF00020B9204684F8506000F038F8022084F8BD
:101B0000510094E8071001F48271036802F4044262
:101B100023F040030360236911440CF40062114474
:101B200003F002026369114403F00102A369E5694D
:101B3000114403F40072114405F03802256A11447F
:101B400005F08002A56A114305F4005211430160BB
:101B5000042101EA13414160C16921F40061C161BE
:101B60000120666584F85100304670BD70B586B0BE
:101B700040F60004C4F20104006804F52051002678
:101B80008842049602D006B070BD00BF41F2180032
:101B9000C4F20200016802AD41F4805101600168A5
:101BA00001F4805101910199016841F00401016043
:101BB0000068294600F0040001900198A0200290DE
:101BC00002200390032005902046FFF7D5F940201E
:101BD000CDE90206204629460496FFF7CDF92320D9
:101BE00004210022FFF766FB2320FFF74FFB06B01E
:101BF00070BD00002DE9F04182B0044690F851001C
:101C0000012819D160681D4617460E46B0F5827F3F
:101C100001D1A068A0B1FFF7CBFA8046002E4FF0AB
:101C2000010018BF002F03D102B0BDE8F08100BF52
:101C300094F85000012811D1022002B0BDE8F081D3
:101C4000042084F851002046314632463B46009538
:101C500000F0CEF902B0BDE8F08100BF012084F8A9
:101C600050000420002184F851006165A663A78715
:101C7000E7872163A186E186A2682068B2F5004F5C
:101C80002164616438D00168490640D5E168E08F7D
:101C9000002944D000287BD0681C0CD11BE000BF79
:101CA000C068A16B21F8020BA163E08F0138E087C7
:101CB000E08F00286CD020688168C907F0D1FFF759
:101CC00077FAA0EB0800A842F2D342E0FFF770FADF
:101CD000E08F00285CD020688168C907F6D0C06812
:101CE000A16B21F8020BA163E08F0138E087E08F40
:101CF0000028F0D14CE000BF016821F040010160F4
:101D0000016821F48041016001684906BED4016880
:101D100041F040010160E168E08F0029BAD1B8B319
:101D2000681C0CD124E000BF007BA16B0870A06B85
:101D30000130A063E08F0138E087E08F40B3206876
:101D40008168C907F0D1FFF733FAA0EB0800A84279
:101D5000F3D3012084F85100002084F850000320C0
:101D600002B0BDE8F08100BFFFF722FAE08F78B142
:101D700020688168C907F7D0007BA16B0870A06B51
:101D80000130A063E08F0138E087E08F0028EFD1B9
:101D90006068B0F5827F11D1A068B0F5004F02D025
:101DA000B0F5806F0AD12168B0F5806F0A6822F023
:101DB00040020A6002D12046012101E02046802134
:101DC00000222B46CDF8008001F024FA28B1606D86
:101DD00040F02000606520206065012084F85100FB
:101DE000002084F85000606D002818BF012002B068
:101DF000BDE8F0812DE9F04182B01D4616460F4640
:101E00000446FFF7D5F994F8511001290ED1804608
:101E1000002F4FF0010018BF002E03D102B0BDE823
:101E2000F08100BF94F85000012803D1022002B0D5
:101E3000BDE8F081012084F850000320002184F8DF
:101E4000510061652763A686E686A163A187E187C5
:101E5000A0682164B0F5004F2068616407D1016873
:101E600021F040010160016841F480410160016896
:101E7000490603D4016841F0400101606168731EA6
:101E8000E268B1FA81F1B3FA83F349095B09B2F56B
:101E9000006F41EA030139D131B137F8021BC1604B
:101EA0002763E08E0138E086E08E002870D0681C41
:101EB0000BD11AE0216B31F8022BC2602163E08E56
:101EC0000138E086E08E002862D0206881688907AA
:101ED000F0D4FFF76DF9A0EB0800A842F2D338E088
:101EE000FFF766F9E08E002852D0206881688907E4
:101EF000F6D5216B31F8022BC2602163E08E0138E8
:101F0000E086E08E0028F0D142E000BF39B1397898
:101F10000173206B01302063E08E0138E086E08E93
:101F2000B0B3681C0BD123E0216B09780173206BDF
:101F300001302063E08E0138E086E08E40B32068F7
:101F400081688907F0D4FFF733F9A0EB0800A842B5
:101F5000F3D3012084F85100002084F850000320BE
:101F600002B0BDE8F08100BFFFF722F9E08E78B142
:101F7000206881688907F7D5216B09780173206B88
:101F800001302063E08E0138E086E08E0028EFD13A
:101F90002046022101222B46CDF8008001F03AF9BB
:101FA00040B92046802100222B46CDF8008001F068
:101FB00031F928B1606D40F0200060652020606537
:101FC000A06838B9002001902068C168019180683C
:101FD00001900198012084F85100002084F85000FD
:101FE000606D002818BF012002B0BDE8F08100003C
:101FF0002DE9F04383B01E4615460F460446FFF711
:10200000D7F894F85110814601290DD06068B0F5D9
:10201000827F15D1A06800284FF0020008BF042974
:1020200002D003B0BDE8F083002F4FF0010018BFCD
:10203000002DF6D0002EF4D094F85000012803D1E2
:10204000022003B0BDE8F083012084F8500094F82A
:102050005100002104281CBF052084F8510061654F
:10206000A563E687A6872763E6862068A68621649F
:1020700061640168490603D4016841F040010160D0
:102080006168731EE268B1FA81F1B3FA83F3DDF897
:10209000288049095B09B2F5006F41EA030165D167
:1020A00031B137F8021BC1602763E08E0138E0864A
:1020B000012518F1010032D102E000BFFFF778F8E6
:1020C000E08E18B9E08F002800F0B88020688168A1
:1020D00089070CD5E18E51B1012D08D1216B002566
:1020E00031F8022BC2602163E18E0139E1868168FB
:1020F000C907E3D0E18F0029E0D0C068A16B0125BA
:1021000021F8020BA163E08F0138E087D6E700BF1A
:10211000FFF74EF8A0EB0900404580F0AF80E08E5D
:1021200018B9E08F002800F089802068816889074D
:102130000CD5E18E51B1012D08D1216B002531F86C
:10214000022BC2602163E18E0139E1868168C907F3
:10215000DED0E18F0029DBD0C068A16B012521F81A
:10216000020BA163E08F0138E087D1E739B13978FC
:102170000173206B01302063E08E0138E086012579
:1021800018F1010032D101E0FFF712F8E08E10B92A
:10219000E08F002852D02068816889070ED5E18E33
:1021A00061B1012D0AD1216B002509780173216BE2
:1021B000206801312163E18E0139E1868168C90718
:1021C000E2D0E18F0029DFD0C068A16B0125087043
:1021D000A06B0130A063E08F0138E087D4E700BF37
:1021E000FEF7E6FFA0EB0900404547D2E08E08B9B4
:1021F000E08F18B32068816889070ED5E18E61B140
:10220000012D0AD1216B002509780173216B20680B
:1022100001312163E18E0139E1868168C907DFD090
:10222000E18F0029DCD0C068A16B01250870A06B8C
:102230000130A063E08F0138E087D1E7204602211A
:1022400001224346CDF8009000F0E4FF40B920465B
:10225000802100224346CDF8009000F0DBFFB8B1AA
:10226000606D40F02000606520206065002084F8EB
:102270005000012003B0BDE8F08300BF012084F8C6
:102280005100002084F85000032003B0BDE8F08323
:10229000A06838B9002002902068C1680291806867
:1022A00002900298012084F85100002084F8500028
:1022B000606D002818BF012003B0BDE8F083000066
:1022C000411E0020B0EB116F1CBF012070474EF281
:1022D0001002CEF2000251604EF62351CEF2000100
:1022E000F0230B7007219060116070477047000069
:1022F0007047000010B590F83C20012A4FF0020210
:1023000033D080F83D200268D2F804E0D2F808C04B
:102310000C682EF07003234340F2FF74C4F20004F3
:10232000A24253600ADCB2F1804F13D040F2004366
:10233000C4F200039A420DD011E000BF42F6004300
:10234000C4F201039A4205D040F60003C4F2000330
:102350009A4204D149682CF080031943916001210D
:10236000002280F83D1080F83C20104610BD00008F
:1023700070B50446006842F60041C4F2010188428B
:1023800000D070BD207F0128FBD140F27005C2F261
:1023900000052878A0B12878012818BF70BD204614
:1023A0000021002600F004FBA86024686662A8688B
:1023B0006968884216D9A8686968401A1CE000BF9D
:1023C0002046002100F0F4FA68600120287020689F
:1023D000016A21F00A010162016A41F00201016211
:1023E00070BD00BF6868A968884206D96868A96896
:1023F000081A4FF6FF710844E860E86801F052FCE3
:102400004CF29C4246F67203CBF22002C3F6A17353
:1024100001F05CFC0023C3F6E0730022002601F00B
:1024200055FC01F0F9FB68702E70206A20F00A005C
:102430002062206A206270BDF0B590F83C30012B1C
:1024400004BF0220F0BD4FEAB202032A22D8DFE81F
:1024500002F00327476500BF0368D1E900C5D1F842
:102460000CE01C6A1A6A40F2FF7722F001021A623D
:102470001A4652F8186FC4F20007BB4272DCB3F17F
:10248000804F7BD040F20047C4F20007BB4275D0BA
:102490008EE000BF0121002280F83C200846F0BDFC
:1024A0000368D1E900E6D1E902C11C6A1A6A360262
:1024B00022F010021A621A4652F8185F4FF2FF0714
:1024C000BE4325F4734561F30F3624F0A0040EF0EB
:1024D0000A0746EA050144EA071711601F623AE05D
:1024E0000768D1E900C5D1E902313C6A3A6A61F373
:1024F000071522F480723A623A4652F81C6F26F0B1
:10250000F30645EA06014FEA5C0666F349241160CA
:102510003C62116821F00C01116040E00368D1E9D0
:1025200000E6D1E902C11C6A1A6A360222F480521E
:102530001A621A4652F81C5F4FF2FF07BE4325F499
:10254000734561F30F364FEA5E0746EA050167F30C
:102550004D3411601C6211684FEA0C2321F4406174
:1025600011601CE042F60047C4F20107BB4205D0EF
:1025700040F60007C4F20007BB4219D126F003065B
:10258000354324F00A070CF00A066EF307153744AA
:102590009D611F629F6927F00C079F618B6811681E
:1025A000194311600021002280F83C200846F0BD4C
:1025B00046F00105E5E70000002804BF0120704750
:1025C00010B5044690F83D0028B9002084F83C007E
:1025D000204600F06FF8022084F83D00206840F2A9
:1025E000FF730268C4F2000342F6004C9842C4F242
:1025F000010C15DCB0F1804F1AD040F20041C4F25A
:102600000001884214D0984218DCB0F1804F1DD0F0
:1026100040F20041C4F20001884217D01AE000BF26
:10262000604505D040F60001C4F200018842EAD1BD
:10263000A16822F070020A439842E6DD604505D0A9
:1026400040F60001C4F20001884203D1216922F45E
:1026500040720A43A36922F08001D4F804E0E268E2
:10266000194360450160C262C0F828E002D1616987
:10267000CCF83010012141610269D20703D0026910
:1026800022F001020261002084F8461084F83E1016
:1026900084F83F1084F8401084F8411084F8421008
:1026A00084F8431084F8441084F8451084F83D10F1
:1026B00010BD000080B586B0014640F60000C4F2AF
:1026C0000100096800F5105300229942059201D0DB
:1026D00006B080BD41F21801C4F202010B6843F458
:1026E00000630B600B6803F400630193019B0B68AC
:1026F00043F004030B60096801F0040101910199A2
:102700004FF48071CDE9021202A90492FEF734FC65
:102710001B2000210022FEF7CDFD1B20FEF7B6FD99
:1027200006B080BD61B1082916D0042919BF00F197
:10273000410200F1450300F13F0200F143030FE0C5
:1027400090F83E2090F84230012A4FF0010208BF75
:10275000012B1DD01046704700F1400200F14403E8
:1027600012781B78012A4FF0010208BF012BF1D12A
:102770000222082918D0042922D180F83F2080F8AD
:1027800043204FEAB103032B4FF00102E2D821E0CE
:10279000022280F83E2080F842204FEAB103032B4A
:1027A0004FF00102D6D815E080F8402080F8442090
:1027B0004FEAB103032B4FF00102CBD80AE000BF70
:1027C00080F8412080F845204FEAB103032B4FF0F9
:1027D0000102BFD844F29C0C0068C0F6000C5CF803
:1027E00023C0C36801F01F0143EA0C03C360036AFE
:1027F00002FA01F123EA01020262026A114340F285
:10280000FF72C4F200029042016209DCB0F1804F15
:1028100012D040F20041C4F2000188420CD012E014
:1028200042F60041C4F20101884205D040F60001A1
:10283000C4F20001884206D1816801F0070106292F
:1028400004BF002070470168002241F001010160CF
:102850001046704770B504460068C5680669B10740
:1028600016D515F0020113D06FF0020101610121AC
:1028700021778069800703D02046FFF779FD05E0C6
:10288000204600F08FF8204600F08EF800202077D8
:10289000700719D515F0040016D020686FF00401F8
:1028A000016102212177806910F4407F04D0204625
:1028B000FFF75EFD06E000BF204600F073F82046FB
:1028C00000F072F800202077300717D515F00800C7
:1028D00014D020686FF00801016104212177C069DC
:1028E000800703D02046FFF743FD05E0204600F0B7
:1028F00059F8204600F058F800202077F00619D546
:1029000015F0100016D020686FF010010161082149
:102910002177C06910F4407F04D02046FFF728FDDE
:1029200006E000BF204600F03DF8204600F03CF8ED
:1029300000202077F00718BF15F0010002D1300603
:1029400009D412E020686FF001010161204600F017
:102950002DF8300609D515F0800006D020686FF0FC
:10296000800101612046FFF7C1FC700609D515F012
:10297000400006D020686FF040010161204600F061
:1029800031F8B00658BF70BD15F0200008D021689E
:102990006FF0200220460A61BDE87040FFF7A8BC36
:1029A00070BD0000704700007047000070470000D5
:1029B0004FEAB101032984BF00207047DFE801F02E
:1029C000020E060A006834300068704700683C3028
:1029D0000068704700684030006870470068383011
:1029E0000068704770470000FEE7000070B582B0D5
:1029F0000446164641F080020068A1888DF8072041
:102A000000221D46FEF7CEFBA0690DF10701012251
:102A10004FF4FA63FFF7EEF9A069FEF7C9FF01284A
:102A2000FAD1A06931462A464FF4FA63FFF7E2F97A
:102A3000A069FEF7BDFF0128FAD12068A188012214
:102A4000FEF7B0FB02B070BD2DE9F04182B0012568
:102A50000DF106010DF10703012204468DF8065021
:102A6000009500F0C3F99DF80700002700F0F8007A
:102A70004FF081088DF807000DF106010DF10703F5
:102A800020460122E7618DF80680009500F084FB66
:102A90000A20FEF74FFA0DF106010DF1070320465B
:102AA00001228DF80650009500F0A0F99DF807006E
:102AB0008DF805000A20FEF73DFA9DF805000DF19E
:102AC000060140F080008DF807000DF10703204655
:102AD00001228DF80680009500F05EFB6420FEF771
:102AE00029FA266A8621B0088DF806108DF80700AD
:102AF0000DF106010DF1070320460122009500F0BB
:102B00004BFB0520FEF716FAB00187218DF8061061
:102B10008DF807000DF106010DF107032046012293
:102B2000009500F039FB0520FEF704FA88208DF8A7
:102B300006000DF106010DF10703204601228DF874
:102B40000770009500F028FB0520FEF7F3F994F8D4
:102B50002A0089218DF806108DF807000DF1060175
:102B60000DF1070320460122009500F015FB0A2015
:102B7000FEF7E0F994F82B00CD222D2898BF2D20E8
:102B8000F02828BFF020A0F12D01C9B2514300F177
:102B90001E024CF6CD435A43D20C792838BF8A0A1C
:102BA00002F120008B218DF806108DF807000DF141
:102BB00006010DF1070320460122009500F0ECFA12
:102BC0000A20FEF7B7F98C208DF8060023208DF837
:102BD00007000DF106010DF10703204601220095C3
:102BE00000F0DAFA1E208DF806000DF106010DF155
:102BF000070320460122009500F0F8F89DF8070031
:102C00009E2140F007008DF806108DF807000DF1A9
:102C100006010DF1070320460122009500F0BCFAE1
:102C20000A20FEF787F994F82410204600F00AF9EC
:102C30009F208DF80600FF208DF807000DF106019A
:102C40000DF1070320460122009500F0A5FA94F843
:102C5000260094F82510400000EB01109D218DF80E
:102C600006108DF807000DF106010DF1070320464F
:102C70000122009500F090FA94F8240094F8256061
:102C800005FA00F000F0F7FF44F22802C0F6000257
:102C900002EBC60352F836205B6800F063FE00F0DA
:102CA000BBFF10284FF02600C8BF01278DF8060093
:102CB0000DF106010DF1070320460122009500F0F9
:102CC00095F89DF80700A62100F0F70040EAC7003C
:102CD0008DF806108DF807000DF106010DF10703C0
:102CE00020460122009500F057FA0A20FEF722F94B
:102CF00094F82900A0218DF806108DF807000DF139
:102D000006010DF1070320460122009500F044FA68
:102D100094F82800A1218DF806108DF807000DF118
:102D200006010DF1070320460122009500F034FA58
:102D300040208DF806000DF106010DF10703204635
:102D40000122009500F052F89DF80700C0218DF88F
:102D500005009DF805008DF8061040F03F008DF845
:102D600007000DF106010DF1070320460122009531
:102D700000F012FA0DF106010DF1070320460122C1
:102D80008DF80650009500F031F89DF807000DF120
:102D9000060100F0F80001308DF807000DF107037F
:102DA00020460122E5618DF80680009500F0F4F9D7
:102DB0000A20E561FEF7BEF842208DF806000DF10D
:102DC00006010DF1070320460122009500F00EF8E0
:102DD0009DF807008DF805009DF805104FF4CA70A6
:102DE000122908BFC82002B0BDE8F0812DE9F041EA
:102DF00004461746A2880068069E0D46114600222A
:102E00009846FEF7CFF9A06929463A464FF4FA638F
:102E1000FEF7F0FFA069FEF7CBFD0128FAD1A0690B
:102E2000414632464FF4FA63FEF7E4FEA069FEF72E
:102E3000BFFD0128FAD12068A1880122BDE8F04138
:102E4000FEF7B0B9F0B583B00D4604460C29A8BF13
:102E50000C251E20072DD8BF07258DF8040001265C
:102E600001A90DF10503204601220096FFF7BEFFE0
:102E70009DF805700A20FEF75DF807F00F0040EAA4
:102E800005109E218DF806108DF807000DF1060142
:102E90000DF1070320460122009600F07DF90A207B
:102EA000FEF748F894F8240094F8255006FA00F04C
:102EB00000F0E1FE44F22802C0F6000202EBC50376
:102EC00052F835205B6800F04DFD00F0A5FE0025AE
:102ED00010284FF02600C8BF01258DF8080002A970
:102EE0000DF10903204601220096FFF77FFF9DF8B0
:102EF0000900A62100F0F70040EAC5008DF80A108D
:102F00008DF80B000DF10A010DF10B032046012293
:102F1000009600F041F90A20FEF70CF803B0F0BD6E
:102F20002DE9F04782B01D4616460F46D0F81C80AA
:102F30004FF001090DF106010DF1070301220446CE
:102F40008DF80690CDF80090FFF750FF9DF8070030
:102F50004FF0810A00F0F80001308DF807000DF104
:102F600006010DF1070320460122C4F81C908DF8DC
:102F700006A0CDF8009000F00FF90E208DF80600A5
:102F80000DF106010DF1070320460122CDF8009056
:102F9000FFF72CFF9DF807008D218DF806108DF8A6
:102FA00007000DF106010DF1070320460122CDF8BF
:102FB000009000F0F1F8A2208DF806000DF1060156
:102FC0000DF10703204601228DF80760CDF800902F
:102FD00000F0E2F8204600213A463346FFF706FDAE
:102FE0000DF106010DF10703204601228DF8069030
:102FF000CDF80090FFF7FAFE9DF80700032100F0DE
:10300000F8000330E1618DF807000DF106010DF1C4
:103010000703204601228DF806A0CDF8009000F0AD
:10302000BBF84FF0120A0DF106010DF1070320461F
:1030300001228DF806A0CDF80090FFF7D7FE9DF88D
:103040000700000718D40DF106060DF1070700BFB1
:10305000013D28043CD00120FDF76CFF204631469D
:1030600001223B468DF806A0CDF80090FFF7BEFE8A
:103070009DF807000007EBD592208DF80600FF2091
:103080008DF807000DF106010DF10703204601221E
:10309000CDF8009000F080F80DF106010DF1070366
:1030A000204601228DF80690CDF80090FFF79EFE95
:1030B0009DF80700B8F1060F37D8DFE808F00525BE
:1030C0003629362D310000BF00F0F8002BE000BF9C
:1030D00001250DF106010DF10703204601228DF8AF
:1030E00006500095FFF782FE9DF80700B8F1060F25
:1030F0003FD8DFE808F0052D3E313E35390000BFEE
:1031000000F0F80033E000BF00F0F80001300AE002
:1031100000F0F800033006E000F0F800053002E0AF
:1031200000F0F8000630C4F81C8081218DF80610EC
:103130008DF8070001250DF106010DF1070320466A
:103140000122009500F028F8284602B0BDE8F0877B
:1031500000F0F80001300AE000F0F800033006E06B
:1031600000F0F800053002E000F0F8000630C4F886
:103170001C8081218DF806108DF807000DF10601E5
:103180000DF1070320460122009500F005F8002507
:10319000284602B0BDE8F0872DE9F0410446174605
:1031A000A2880068069E0D46114600229846FDF74B
:1031B000F9FFA06929463A464FF4FA63FEF71AFE72
:1031C000A069FEF7F5FB0128FAD1A0694146324615
:1031D0004FF4FA63FEF70EFEA069FEF7E9FB012843
:1031E000FAD12068A1880122BDE8F041FDF7DABFDD
:1031F000FEE70000FEE700007047000040F25820A4
:10320000C2F20000FEF7D8BB406A0021C187C18628
:10321000FEF7CCBB2DE9F04381B0089C98461546DB
:103220000E468146FDF7C4FF201A00EB0804FDF7A7
:10323000BFFF40F20801C2F200010968C1F3CB31BF
:1032400061430091D9F800108A683240921BB2FAAB
:1032500082F25209AA423DD0074618F1010031D04E
:10326000FDF7A6FFC01BA04238D2009800990028A5
:10327000A1F101010091D9F80010896808BF044646
:1032800001EA0600801BB0FA80F04009A842E7D1AD
:1032900020E000BF88683040801BB0FA80F0400911
:1032A000A84217D088683040801BB0FA80F04009EF
:1032B000A8420FD088683040801BB0FA80F04009E7
:1032C000A84207D088683040801BB0FA80F04009DF
:1032D000A842DFD1002001B0BDE8F083D9E90001A8
:1032E0004268B1F5827F22F0E00242600BD1D9F84A
:1032F0000810B1F5004F02D0B1F5806F03D101681D
:1033000021F040010160D9F82810B1F5005F07D124
:10331000016821F400510160016841F4005101602D
:10332000012089F85100002089F85000032001B0E5
:10333000BDE8F08370470000FDF740BF7047000014
:1033400040F2B020C2F20000FFF784BAFEE70000AE
:1033500096B040F60008C4F20108FDF73DFF40F2C8
:10336000700BC2F2000B01200026ABF8200040F2E7
:10337000582ACDE91166CDE90F660C9010904FF4F4
:10338000E01008F5806702254FF48064C2F2000A5D
:103390004FF4803115900CA8CBF81C70CBF824703A
:1033A000ABF82850CBF82C80ABF83040CBF834A0E9
:1033B0000596CDE90366CDE90D16CDE91351FEF76B
:1033C0001BF928B1EFF3108072B600BFFEE700BF13
:1033D0000F2006A961C106A80221CDE90946FEF722
:1033E0002BF828B1EFF3108072B600BFFEE700BFE4
:1033F000022002904FF40040049002A8FDF796FFCF
:1034000020B1EFF3108072B6FEE700BF4FF4DC701E
:10341000CBF83C0040F20740ABF8400001208BF8AD
:1034200042000920C8F2FF2041F21805CBF8440001
:10343000C4F20205286808F5006640F01000286014
:1034400028684FF4005100F010000C900C98286888
:10345000002240F02000286028684FF4005400F05B
:1034600020000C900C9828684FF0000940F00400F0
:103470002860286800F004000C900C98286840F040
:1034800008002860286800F008000C900C9830466E
:10349000FDF788FE384603210122FDF783FE4046F2
:1034A0004FF400710022FDF77DFE01200C94CDE960
:1034B0000D0902200CAC0F90304621460196FDF715
:1034C0005BFD03200C9001200D9002200F903846E8
:1034D00021460126CDF83890FDF74EFD02204FF42D
:1034E00000770F9040462146CDE90C76CDF8389014
:1034F000FDF742FD4FF480600C900020C1F21100F6
:10350000CDE90D0940462146FDF736FD282004216E
:1035100000222824FDF7CEFE2820FDF7B7FE55F83F
:10352000040C022140F0010045F8040C55F8040C8D
:10353000002200F001000C900C980B20FDF7BAFE61
:103540000B20FDF7A3FE08F520504FF482718AE8A6
:1035500003020A20CAE90A905046CAE90399CAE957
:103560000597CAF81C40CAE90899FEF7A9FA28B1DC
:10357000EFF3108072B600BFFEE700BF40F2B0204C
:1035800008F51051C2F200004FF6FE73CDE906991E
:10359000472280E80602C0E90339C0E90599FFF730
:1035A0000BF828B1EFF3108072B600BFFEE700BF42
:1035B00040F2B020C2F2000006A9FEF79BFE28B13F
:1035C000EFF3108072B600BFFEE700BF40F2B027F5
:1035D000C2F20007002401250CA9384600220C94F1
:1035E000CDE90D540F94FEF727FF28B1EFF31080BB
:1035F00072B600BFFEE700BF08F5E051584640F83C
:10360000481F4FF4602105730475C161C0E901448E
:103610000561FDF747F928B1EFF3108072B600BFDE
:10362000FEE700BF02200C9001200D9006200BF158
:1036300048050E900CA92846FDF768F820B1EFF375
:10364000108072B6FEE700BF0BF110012846012280
:10365000FDF728FA384600210026FFF763F80BF142
:103660001C000090FFF7F0F9B0F1C80218BF01226A
:1036700001984FF40051FDF795FD40F2B019C2F2E8
:10368000000900BF8BF80060386801224662C168FB
:1036900041F00201C16040464FF40071FDF782FD28
:1036A00038684662416A092908D8416A092905D85B
:1036B000416A092902D8416A0A29F3D340464FF4E6
:1036C00000710022FDF76EFDDBF8100000F044FCF5
:1036D00000F0FAFB4FF600630022C4F2AF0300F0E3
:1036E00041F946F266634FF06632C4F20A0300F015
:1036F000EDFA00F005F900F0E7FB00230022C3F625
:10370000E07300F0E3FA44F200030022C4F28F03F6
:1037100000F0DCFA00F0F4F800F002FC9BF8015035
:103720000746CBE9055048466421FCF76AFE40F2A3
:103730004C18C2F2000840466421FCF762FE40F2D9
:10374000E804C2F2000420466421FCF75AFEDA467F
:1037500044F2BC0BC0F6000B484659462A46FCF71B
:1037600037FD404659463A46D346FCF731FD2046E0
:10377000FCF71CFE42F27B22C4F254222118225094
:1037800042F23120C2F23A2048600E722046494689
:10379000FCF72BFEFCF70AFE42F6224221182252C9
:1037A00020468E70FCF702FE44F22232C2F24C2216
:1037B0002118225043F62220C0F22200C1F8030053
:1037C0002046414640F60008C4F20108FCF70DFE11
:1037D0002046FCF7EBFD47F62252211822522046E4
:1037E0008E70FCF7E3FDDAF81420019D40F2B0275B
:1037F000211840F60D23012AC2F2000723528E70D1
:10380000FFF640AF40F2E804C2F200042046FCF7A5
:10381000CDFDC2B2009821464FF4FA63FFF780FB5A
:1038200028464FF40051FDF7B5FC38684FF4FA71A3
:10383000243003E005390A043FF424AF066000BFDA
:103840000268D2087C2A0BD80268D2087C2A07D8E2
:103850000268D2087C2A03D80268B2F57A7FEFD3D7
:10386000066000BF0268D2087C2A0BD80268D20822
:103870007C2A07D80268D2087C2A03D80268B2F5ED
:103880007A7FEFD3066000BF0268D2087C2A0BD88B
:103890000268D2087C2A07D80268D2087C2A03D89A
:1038A0000268B2F57A7FEFD3066000BF0268D208E3
:1038B0007C2A0BD80268D2087C2A07D80268D20872
:1038C0007C2A03D80268B2F57A7FEFD3066000BF86
:1038D0000268D2087C2AADD80268D2087C2AA9D80E
:1038E0000268D2087C2AA5D80268B2F57A7FEFD3A5
:1038F000A0E730380A2801D2012070470020704725
:1039000021F0004201F00043A2F16052B2F5801FA5
:1039100028BFD2F17F6C0BD95FEA001C43EAC202D8
:1039200042EB507018BF704728BF20F0010070476D
:10393000B2F5801FBCBF184670474FEA410C1CF51A
:10394000001F02D2084600F060BB70B500F068FAB4
:1039500000000089FFF7F6BF4FF00040A0F580009F
:10396000704700002DE9C04130B4DFF8A4C23CEA42
:10397000111418BF3CEA131400F0ED801CEA111476
:1039800081EA030544EAD57418BF1CEA131500F058
:10399000C880A4EB050404F17F7404F500344FF0F3
:1039A000004545EAC12145EAC32341EA505143EAB3
:1039B00052534FEAC0204FEAC222994208BF9042B8
:1039C00000F09D804FEA13650FF24416765D4FEAD2
:1039D000134506FB05F7C7F1807706FB07F74FEAAB
:1039E000D737A7FB03687642A7FB06CEC8F5803819
:1039F00038BFA8F1010807FB08E6A6FB028C4FF0D0
:103A0000000EE6FB03CEDCF1000CCEF1004E38BF19
:103A1000AEF1010EA6FB0C584FF00007E6FB0E8737
:103A2000A1FB08C6A0FB07CE16EB0E064FF0000563
:103A300045F10005E1FB076515F1E04E7EBFA4F5F9
:103A400080345FEA46066D4116F1800745F10005B6
:103A50004FEA172747EA05674FEA15254FEA06663A
:103A6000A6F1DE46B6F1805F20D9384605EBC47179
:103A700024F0010C01EB0C11BCF1FE6F02D8F0BC7C
:103A8000BDE8008124425CBF01F5801E9EEAC47F30
:103A900002D4F0BCBDE80081244200F13980A1F1DC
:103AA000C041F0BCBDE8004100F008BA4FEAD020A8
:103AB00040EA41504FEAD1214FEAD22242EA435232
:103AC0004FEAD323A7FB028607FB036605FB0266CA
:103AD0001EEA0E0F58BFA6EB0056B6EB00564FEA93
:103AE000520E4EEAC37E18EB0E0E56EB530EBCD5AB
:103AF00018EB02085E417F1C55F10005B5E74FF455
:103B000080154FF000074FF000064FF00008ACE7BB
:103B100001F1C04101F000414FF00000F0BCBDE8F0
:103B200000810CEA131511EA0C1F00D00CE013EA17
:103B30000C1F00F026804FF0000081EA030101F025
:103B40000041F0BCBDE80081F0BCBDE8004181EA65
:103B5000030100F0B3B9F0BCBDE8004170B500F05E
:103B60005FF900BF097EFC3E00F007B84FF000008F
:103B700081EA030101F00041704781EA030100F08E
:103B80009DB9F0BCBDE8004122494FF000007047EC
:103B9000FFFDFBF9F7F5F4F2F0EEEDEBE9E8E6E412
:103BA000E3E1E0DEDDDBDAD8D7D5D4D3D1D0CFCD99
:103BB000CCCBCAC8C7C6C5C4C2C1C0BFBEBDBCBBD2
:103BC000BAB9B8B7B6B5B4B3B2B1B0AFAEADACABCD
:103BD000AAA9A8A8A7A6A5A4A3A3A2A1A09F9F9EA7
:103BE0009D9C9C9B9A999998979796959594939359
:103BF000929191908F8F8E8E8D8C8C8B8B8A8989F0
:103C00008888878786858584848383828281818072
:103C10000000FF070000F87F4FEA41034FEA5353CB
:103C2000A3F58063D3F11E03C8BFD3F1210C0CDDD3
:103C30004FF0004242EAC12242EA505232FA03FCFB
:103C40008CEAE17CACEBE1707047102BC4BF002024
:103C5000704703F5787CBCF1FF3F04D06FF0004261
:103C600082EA2100704770B500F0DAF849922480AA
:103C700000207047F2E710F0004248BF4042B0FA1F
:103C800080F310FA03F10AD0C3F11D0303F580633A
:103C900002EB03524FEA415002EBD12170474FF043
:103CA00000007047B0FA80F310FA03F10AD0C3F1B4
:103CB0001D0303F580634FEA03524FEA415002EBC4
:103CC000D12170474FF000007047000070B5DFF859
:103CD00048C11CEA111E1EBF1CEA13159EEA0C0FF8
:103CE00095EA0C0F00F06F8081EA03044EEAD47E5F
:103CF000AE4421EA4C1123EA4C1341F4801143F401
:103D00008013AEF17F7EA1FB024CA0FB0365361948
:103D100055EB0C05A1FB034C4CF10003A0FB021C6E
:103D200016EB0C06654153F10003094218BF46F03B
:103D3000010613F4007F0BD14FEA03314FEA05303F
:103D400041EA155140EA165034036FF003020AE0CD
:103D50004FEAC3214FEAC52041EA555140EA565087
:103D6000F4026FF0020202EB2E4201EB025585EAEB
:103D7000CE710AD05FEA440C18BF24F0004450F121
:103D8000000041F1000120EAD47040F2FE7C62455F
:103D900000D270BDA84214BF4FF080444FF04044A1
:103DA000002E08BF0024BEF1806FA8BFA1F1C04162
:103DB000BDE8704080F2828001F1C04101F0004115
:103DC0004FF0000070470CEA13159EEA0C0F18BF65
:103DD00095EA0C0F06D081EA030E4FF000000EF0BA
:103DE000004170BD00F01CF88900013E00F007B8EA
:103DF00000F009B84FEA430C5FEA5C5C08D081EA46
:103E0000030100F05BB84FEA410C5FEA5C5CF6D15D
:103E100002494FF0000070470000FF070000F87FE4
:103E20000EF1020E2EF0030E5EF8046B364205D43E
:103E3000012A43EB030515F5001F12D8012841EBB9
:103E4000010C1CF5001F0CD80ED14FEAD17C0CEBF5
:103E50004C0C0CF1020C15F5001F08BF4CEBD37C89
:103E600004E04FF0080C01E04FEAD37C0CEB4C056A
:103E700026FA05F606F00706B6F1040C06D20EEB9C
:103E8000860CBDE870404CF0010C6047DFE80CF098
:103E9000090B02024FF00041A1F500214FF0000094
:103EA00070BD19461046012851EB010418BFD4F526
:103EB000001484BF002001F0004170BD0808A0F587
:103EC00000114FEA3101704743004FEAD30C4FEA2B
:103ED0003C0C43401FBF40070CF1605113F0FE4FF4
:103EE00070471CF0006F03D10CF0004100207047B8
:103EF0000CF0004343EA507040EACC0010B500F0EB
:103F00003EF800BF000000924FEA0001FFF7D6BF65
:103F10004FF00041A1F500214FF000007047000074
:103F200041000B0ED3F19E0208D950F400034FEA72
:103F3000032323FA02F048BF4042704710B500F057
:103F40001EF800BF49922480002070476FF00042A5
:103F500082EA200070470000B0FA80F310FA03F202
:103F6000C3F19D030AD0D90501EB1220530638BFD7
:103F7000704700F1010008BF20F0010070470EF10A
:103F8000020E2EF0030E5EF8044B244204D44FEAD6
:103F90004102B2F17F4F11D84FEA4003B3F17F4F96
:103FA0000CD80ED14FEAD07C0CEB4C0C0CF1020C6F
:103FB000B2F17F4F08BF4CEBD17C04E04FF0080C0E
:103FC00001E04FEAD17C0CEB4C0324FA03F404F03B
:103FD0000704B4F1040C06D20EEB840CBDE81040CB
:103FE0004CF0010C6047DFE80CF0070802024FF0CC
:103FF0000040A0F5800010BD0846420018BFD2F175
:10400000807288BF00F0004010BDFF2141EAD0500F
:10401000C005704704000008000000000000000216
:1040200000010000100000003333333333331F40EE
:10403000CDCCCCCCCCCC24403333333333332F40B2
:10404000CDCCCCCCCCCC34400000000000403F4074
:104050009A99999999D944400000000000404F4036
:104060000000000000405F400000000000406F4082
:104070000000000000407F40000000000000000041
:1040800001020304060708090102020304050607EA
:1040900008090A0B0C0D0E0F1010000002000000A2
:1040A000040000000800000010000000FDFFFFFFFA
:1040B000FBFFFFFFF7FFFFFFEFFFFFFF256400009F
:1040C000E040000800000020100000002801000867
:1040D000F040000810000020F00800004401000833
:1040E000010000001000000000127A000000000033
:04000005080000ED02
:00000001FF
