:020000040800F2
:1000000020080020910100087928000851200008EC
:1000100075280008B9050008D12900080000000073
:10002000000000000000000000000000B9290008E6
:10003000BD050008000000007D280008BD2900085B
:10004000AB010008AB010008AB010008AB010008E0
:10005000AB010008AB010008AB010008AB010008D0
:10006000AB010008AB010008AB010008AB010008C0
:10007000AB010008AB010008AB010008AB010008B0
:10008000AB010008AB010008AB010008AB010008A0
:10009000AB010008AB010008AB010008AB01000890
:1000A000AB010008AB010008AB010008C52900083E
:1000B000AB010008AB010008AB010008AB01000870
:1000C000AB010008AB010008AB0100088128000863
:1000D000AB010008AB010008AB010008AB01000850
:1000E000C1050008AB010008AB01000800F002F8F0
:1000F00000F03FF80AA090E8000C82448344AAF183
:100100000107DA4501D100F034F8AFF2090EBAE880
:100110000F0013F0010F18BFFB1A43F0010318473B
:10012000C8330000E8330000103A24BF78C878C113
:10013000FAD8520724BF30C830C144BF04680C60ED
:10014000704700000023002400250026103A28BF35
:1001500078C1FBD8520728BF30C148BF0B60704739
:10016000642900F04B80002070471FB51FBD10B5FB
:1001700010BD00F0ECF91146FFF7F7FF02F02AFC82
:1001800000F00AFA03B4FFF7F2FF03BC00F00EFA26
:100190000948804709480047FEE7FEE7FEE7FEE71B
:1001A000FEE7FEE7FEE7FEE7FEE7FEE70448054957
:1001B000054A064B70470000C1290008ED00000801
:1001C000200200202008002020040020200400201D
:1001D0000FB41CB5084B06AA7B44694600900598ED
:1001E00000F097F904460020694600F0A5F9204682
:1001F0001CBC5DF814FB00005D0300002DE9F0411C
:100200000646002410687529314616A510D0AFF3B4
:100210000080002802DA404213A507E031688A070F
:1002200001D512A502E0490704D511A5012401E07A
:10023000AFF3008000210A2206F1240709E0B0FB99
:10024000F2FCB0FBF2F302FB1C003030785418468D
:10025000491C0028F3D123462A463046BDE8F04128
:1002600000F0F9B8000000002D0000002B00000095
:10027000200000002DE9F05F894604464FF0000A97
:10028000DFF824B1FB44C0F820A02046E16888478D
:1002900000287DD0252806D0D4E901219047206A86
:1002A000401C2062F1E700255F462046E168884750
:1002B0002028064607DB312E05D2B81910F8200C8D
:1002C00008B10543F1E7A80701D525F00405C4F8F6
:1002D0001CA00027C4F818A02A2E09D0304602F02E
:1002E000C5FD38B304EB8708303EC8F8186019E044
:1002F00059F8041B204604EB87029161E1688847A6
:10030000012F064618D1E069002820DA25F02005E3
:100310001DE0D8F8180000EB800006EB40003038F4
:10032000C8F818002046E1688847064602F09EFD9E
:100330000028EED1012F0AD02E2E08D12046E168E8
:1003400088477F1C0646022F45F02005C4DBA069C4
:10035000002803DA404245F00105A061E80701D01A
:1003600025F01005A6B1A6F14100192802D82036C3
:1003700045F400654A463146204625604D46FFF764
:10038000EFFE60B1012807D0ED1D25F0070000E069
:1003900007E000F1080978E705F1040975E7304640
:1003A0007AE7206ABDE8F09FB031000010B5431C29
:1003B00002E010F8011B71B18107FAD14FF0013250
:1003C00002C88C1A8C4314EAC211F9D0C01A0A066A
:1003D00003D0C01E10BDC01A10BD0A0401D0801E7B
:1003E00010BD0902FCD0401E10BD421E12F8013F94
:1003F000002BFBD111F8013B002B02F8013BF9D196
:1004000070474FF0000200B51346944696462039D7
:1004100022BFA0E80C50A0E80C50B1F12001BFF4BD
:10042000F7AF090728BFA0E80C5048BF0CC05DF823
:1004300004EB890028BF40F8042B08BF704748BF71
:1004400020F8022B11F0804F18BF00F8012B7047E5
:100450007047704770472DE9F0470D469946924620
:10046000044600F124080168880604D5E06921F0FB
:100470001001216000E00120A84201DD471B00E0DF
:100480000027A1697A1902EB0900081AA0612078F7
:10049000C00602D42046AFF30080002608E0D4E96D
:1004A00001211AF806009047206A401C761C206241
:1004B0004E45F4DB2078C0060AD52046AFF3008015
:1004C00006E0D4E9012130209047206A401C2062D8
:1004D000381EA7F10107F4DC07E0D4E9012118F880
:1004E00005009047206A401C2062281EA5F10105E6
:1004F000F3DC2046AFF300802078000602D502200E
:10050000BDE8F0870120FBE701694A1C0261087819
:10051000704700B58FB0CDE9013100210591054943
:100520007944CDE9031011466846FFF7A3FE0FB0EA
:1005300000BD0000E5FFFFFF0A6802F8010B0A603A
:100540007047000000487047100000207047754653
:10055000FFF7F8FFAE4605006946534620F0070056
:10056000854618B020B5FFF721FEBDE820404FF0CA
:1005700000064FF000074FF000084FF0000BAC46AC
:10058000ACE8C009ACE8C009ACE8C009ACE8C009F7
:1005900021F007018D46704710B50446AFF3008087
:1005A0002046BDE81040FFF7EDBD000001491820CE
:1005B000ABBEFEE726000200FEE700007047000029
:1005C0004FF4806000F070B890F82110022923D118
:1005D00002682F2340F2040CC4F20203C4F2020C9E
:1005E00011689A4221F00E011160116821F0010199
:1005F000116016DD3023C4F202039A421DD0442359
:10060000C4F202039A421BD05823C4F202039A4256
:100610001BD14FF4803320E004218163012108467F
:1006200070470823C4F202039A420CD01C23C4F280
:1006300002039A4209D110230FE04FF480730CE0BB
:100640004FF4805309E0012307E00CF168014FF0FB
:1006500080738A4208BF4FF4801300210122CCF836
:10066000003080F8201080F82120426B22B180B544
:1006700090470021BDE8804008467047B0B5044669
:1006800000F038F9054640F20000611CC2F200009B
:10069000007818BF044400BF00F02CF9401BA042B2
:1006A000FAD3B0BD7047000040F21441C4F201011A
:1006B0000A68024214BF08607047FFF7F3BF0000EA
:1006C0002DE9F04F82B0D1F800B0BBF1000F00F07F
:1006D000FF8041F20042042340F2004E40F20C4CF5
:1006E00001250F274FF0000A4FF00009C4F2010264
:1006F000C4F2010EC4F2010C904208BF0323009320
:10070000002300BF05FA0AF81BEA080F00F0D780A3
:100710004FF6FF724C68C1F21002944210DC122CAA
:1007200050D8DFE804F0330A41454F4F4F4F4F4F49
:100730004F4F4F4F4F4F4F484C00D1F80C9041E076
:100740004FF6FF72C1F2210294420FDC0022C1F287
:10075000110294421AD00022C1F21202944215D022
:100760000022C1F22102944210D02BE00022C1F2FB
:10077000220294420AD00022C1F23102944205D0F2
:100780000022C1F2320294421CD100BF8A6842B1F9
:10079000012A14BFC0F81480C0F810804FF0080977
:1007A00010E04FF004090DE0CA6802F1080909E001
:1007B0004FF0000906E0CA6802F1040902E0CA68C5
:1007C00002F10C091A460546BAF1080F28BF203A73
:1007D00028BF04352E6807FA02F40F2709FA02F23F
:1007E00026EA040422432A60CA79D20602D40F27DB
:1007F000012564E041F2180203F00C06E346C4F25E
:1008000002021446126842F001022260226802F0DD
:100810000102019207FA06F2AEF57E77019C4FEADB
:100820009A0457F8245025EA020C40F60002C4F25C
:100830000102904211D040F60042C4F201029042FF
:1008400009D041F200020125C4F201029042009A4F
:1008500008BF022203E0012200E000220125B2408D
:1008600042EA0C02DC4647F824200F274E68F202C9
:10087000DEF8082054BF22EA080242EA0802CEF855
:100880000820B202DCF8002054BF22EA080242EA43
:100890000802CCF80020B203DEF8042054BF22EA9C
:1008A000080242EA0802CEF80420F203DEF8002033
:1008B00054BF22EA080242EA0802CEF80020D1F82A
:1008C00000B00AF1010A04333BFA0AF27FF41AAFCE
:1008D00002B0BDE8F08F0000C26802EA0103914354
:1008E00041EA034101617047002A08BF0904016120
:1008F0007047000040F21820C2F200000068704704
:1009000040F2000040F21821C2F20000C2F20001E1
:1009100000780A68104408607047000080B542F211
:100920000000C4F20200016841F0100101600320E0
:1009300000F08AF80F2000F005F800F025F80020FC
:1009400080BD000070B540F2000604464FF47A7195
:10095000C2F200063078B1FBF0F040F20801C2F2BA
:1009600000010968B1FBF0F000F0B8FF01250F2C81
:1009700008D838B94FF0FF3021460022002500F09A
:1009800035F87460284670BD82B041F2180002222A
:10099000C4F20200016841F001010160016801F048
:1009A000010101910199416841F080514160406825
:1009B00000F08050009000980420C4F2010001680B
:1009C00062F31A61016002B0704700000028B8BFEE
:1009D000704700F01F010122400902FA01F14EF2B6
:1009E0000012CEF2000242F82010704710B500F05D
:1009F0000F034EF60C5E00F1604CB0F1FF3FA3F127
:100A00000403CEF2000E734403F10C04C8BF0CF5CE
:100A10006444DEF800004FF0FF3CC0F30220C31E28
:100A200080F0070038BF0023042828BF04200CFAF8
:100A300000F021EA00000CFA03F1984022EA0101DB
:100A400008430001207010BD4EF60C514FF6FF0315
:100A5000CEF200010A681A4060F30A2242F0806078
:100A600040F0FD70086070472DE9F04381B0002828
:100A700000F0AB8042F2000804460D46C4F20208C2
:100A8000D8F8000000F0070088420DD2D8F8000026
:100A900020F007002843C8F80000D8F8000000F054
:100AA0000700A84240F09180206841F20409C4F296
:100AB0000209810717D5410742BFD9F8001041F458
:100AC000E061C9F80010010742BFD9F8001041F4F5
:100AD0006051C9F80010D9F80010A26821F0F001A7
:100AE0001143C9F80010C0072DD06068012804D157
:100AF00059F8041C890368D508E059F8041C022839
:100B000002D1890161D501E089075ED5D9F80010CD
:100B100021F003010843C9F80000FFF7EBFE064689
:100B200041F28837D9F80000616800F00C00B0EBA2
:100B3000810F08D0FFF7DEFE801BB842F2D90320F8
:100B400001B0BDE8F083D8F8000000F00700A8422B
:100B50000CD9D8F8000020F007002843C8F800009E
:100B6000D8F8000000F00700A8422ED12068410705
:100B700007D5D9F80010E26821F4E0611143C9F803
:100B80000010000708D5D9F80000216920F4605052
:100B900040EAC100C9F80000D9F8001041F2002075
:100BA000C0F27A0001F00C02082A1ED143F2B243CF
:100BB000C1F38342C903C0F600039A5C09D440F62E
:100BC0000010C0F23D0050430FE0012001B0BDE82D
:100BD000F083D9F80010504343F2B042C0F600024F
:100BE000C1F34041515CB0FBF1F0D9F8001043F281
:100BF000A042C0F60002C1F30311515CC84040F2AC
:100C00000801C2F20001086040F20400C2F20000D4
:100C10000068FFF797FE002001B0BDE8F0830000F8
:100C20002DE9F04182B0002800F07281044600787E
:100C300041F20006C4F20206C0074AD0706800F014
:100C40000C00042817D0706800F00C00082802D1AE
:100C50007068C0030FD4606898B1B0F5803F06D0CB
:100C60003168B0F5A02F21D141F480203060306888
:100C700040F4803020E0306880032AD5606840BBB3
:100C800046E1306820F480303060306820F4802005
:100C90003060FFF72FFE05463068800319D5FFF757
:100CA00029FE411B03206429F6D978E121F4803024
:100CB0003060306820F480203060FFF71BFE05466E
:100CC0003068800305D4FFF715FE401B6428F7D970
:100CD000FEE0207880072FD5706810F00C0F07D049
:100CE000706800F00C0008280AD17068C00307D4AF
:100CF0003068800719D52069012840F0098114E087
:100D000021690020C4F24220002900F0A5800121C1
:100D10000160FFF7EFFD05463068800705D4FFF757
:100D2000E9FD401B0228F7D9D2E03068616920F064
:100D3000F80040EAC10030602078000712D4207823
:100D4000400740F1D080F069C00020D4F0694FF036
:100D5000010840F08050F061F06900F08050009090
:100D6000009816E0A069D8B300200121C4F2422007
:100D7000C0F88014FFF7BEFD054600BF706A80070B
:100D800041D4FFF7B7FD401B0228F7D9A0E04FF090
:100D9000000847F20007C4F200073868C00510D405
:100DA000386840F480703860FFF7A4FD054600BF46
:100DB0003868C00505D4FFF79DFD401B6428F7D9AE
:100DC00086E0E068002858D0012805D0316A05285F
:100DD0006AD141F004003062306A40F0010069E0FD
:100DE00000200021C4F24220C0F88014FFF782FDE9
:100DF000054600BF706A8007A1D5FFF77BFD401B49
:100E00000228F7D964E040F2080044F6D351C2F258
:100E10000000C1F262010068A0FB0101480A0190D4
:100E200000BF0198411E002801913FF488AF00BF28
:100E30000198411E002801913FF481AF00BF019845
:100E4000411E002801913FF47AAF00BF0198411E76
:100E500000280191E4D172E700210160FFF74AFD0B
:100E6000054600BF306880077FF566AFFFF742FD9B
:100E7000411B03200229F5D991E0306A20F00100DE
:100E80003062306A20F004003062FFF733FD05461F
:100E900041F28837306A80071ED5FFF72BFD411BD2
:100EA0000320B942F6D97AE021F001003062306ABD
:100EB00020F004003062FFF71DFD054641F288373F
:100EC000306A800708D4FFF715FD401BB842F7D9F8
:100ED000032002B0BDE8F081B8F1000F1EBFF06939
:100EE00020F08050F061E769002F57D0706800F063
:100EF0000C00082810D1012F0AD07068216A00F474
:100F000080328A4204D1616A00F47010884245D070
:100F1000012002B0BDE8F08140F200080020C4F2D8
:100F20004228C8F86000FFF7E5FC0546022F09D10A
:100F30003068800110D5FFF7DDFC411B032002293A
:100F4000F6D92CE03068800128D5FFF7D3FC411B8F
:100F500003200229F6D922E0206AB0F5803F05D1AE
:100F60007168A26821F40031114371607168626A8E
:100F7000104321F47411084370600120C8F8600028
:100F8000FFF7B8FC044600BF3068800106D4FFF7C5
:100F9000B1FC011B03200229F6D900E0002002B0B9
:100FA000BDE8F0817047000090F8510070470000E4
:100FB00010B584B004460068416882684B0609D5C4
:100FC00002F04103012B05D1216C204604B0BDE89D
:100FD000104008470B0608D512F0020305D0616CDB
:100FE000204604B0BDE8104008478B065BD512F0E0
:100FF000600358D012F0400316D094F85130032B00
:1010000007D100210291C168029180680290029884
:1010100049E0636D43F00403636500230393C368F1
:10102000039383680393039B12F020020CD0626D3C
:1010300042F0010262650022019282680192026818
:1010400022F040020260019A626D62B34268890731
:1010500022F0E00242604FF0010284F8512024D0D7
:10106000416821F003014160E06C60B142F68D01FE
:10107000C0F600014163FFF7A7FA00281EBF606DAC
:1010800040F040006065A06C68B142F68D01C0F68A
:1010900000014163FFF798FA28B1606D40F040000D
:1010A000606504B010BD04B010BD204604B0BDE8BA
:1010B0001040FFF777BF000070B538B10446406AB2
:1010C00038B10020206104F1140008E00126304608
:1010D00070BD6068B0F5827F03D004F11C00002170
:1010E000016000264FF0000CA66294F8510038B958
:1010F000204684F8506000F03BF8A06A00F4005CE1
:10110000022184F8511021680A6822F040020A6026
:10111000D4E90123D4E9030502F4827203F4044301
:1011200000F400601A44104405F0020210446269A1
:1011300002F001021044A26902F400731844E3694A
:1011400003F038031844236A03F08003184340EA8D
:101150000C000860042000EA12404860C86920F4CE
:101160000060C8610120666584F85100304670BD9A
:1011700070B586B0002640F60004CDE90466CDE9DE
:101180000266C4F20104006804F52051884201D0CF
:1011900006B070BD41F2180002ADC4F20200016851
:1011A00041F480510160016801F48051019101997D
:1011B000016841F0040101602946006800F0040064
:1011C000019001980320059002200390A020029036
:1011D0002046FFF775FA4020CDE9036629460290C4
:1011E0002046FFF76DFA232001210022FFF7FEFBC6
:1011F0002320FFF7EBFB06B070BD00002DE9F041A6
:1012000082B0044690F85100012818D160681D464C
:1012100017460E46B0F5827F01D1A06898B1FFF75E
:1012200069FB002E80464FF0010018BF002F02D14D
:1012300002B0BDE8F08194F85000012810D10220DE
:1012400002B0BDE8F0810420314632463B4684F8C6
:1012500051002046009500F0E1F902B0BDE8F081B0
:101260000420012184F8510000206065E78784F89C
:101270005010A787A663A0862063C4E91000E0860B
:10128000A1682068B1F5004F07D1016821F0400145
:101290000160016821F480410160016849065EBF78
:1012A000016841F040010160E18FE268B2B30029BA
:1012B00069D0691C01D11CE020688168C9070AD186
:1012C000FFF718FBA0EB0800A84280F09080E08FA9
:1012D0000028F1D157E0C068A16B21F8020BA1638F
:1012E000E08F0138E087E08F0028E5D14BE000BFB8
:1012F00020688168C90705D1FFF7FCFAE08F002854
:10130000F6D140E0C068A16B21F8020BA163E08F29
:101310000138E087E08F0028EAD134E099B3691CF6
:1013200001D11BE020688168C90709D1FFF7E2FA03
:10133000A0EB0800A8425AD2E08F0028F2D122E0A8
:10134000007BA16B0870A06B0130A063E08F0138B7
:10135000E087E08F0028E5D115E020688168C907A3
:1013600005D1FFF7C7FAE08F0028F6D10BE0007B2C
:10137000A16B0870A06B0130A063E08F0138E0879B
:10138000E08F0028E9D16068B0F5827F13D1A068B2
:10139000B0F5004F02D0B0F5806F0CD12168B0F5E8
:1013A000806F0A6822F040020A6004D1CDF8008004
:1013B0002046012103E020468021CDF80080002254
:1013C0002B4601F069FA28B1606D40F0200060659D
:1013D00020206065012084F85100002084F850002E
:1013E000606D002818BF012002B0BDE8F081002028
:1013F00084F85000012084F85100032002B0BDE8B9
:10140000F08100002DE9F04182B01D4616460F46DE
:101410000446FFF76FFA804694F8510001280CD17A
:10142000002F4FF0010018BF002E02D102B0BDE81E
:10143000F08194F85000012803D1022002B0BDE8E9
:10144000F0810320012184F8510000206065E686C8
:1014500084F85010A6862763A087A063C4E9100013
:10146000E087A1682068B1F5004F07D1016821F03D
:1014700040010160016841F4804101600168731E10
:10148000B3FA83F349065EBF016841F04001016091
:101490005B096168E268B1FA81F1B2F5006F4FEA69
:1014A000511141EA03013FD131B137F8021BC1604C
:1014B0002763E18E0139E186E18E002974D0691C31
:1014C00001D11CE02068816889070AD4FFF712FA6D
:1014D000A0EB0800A84280F09680E08E0028F1D1B1
:1014E00062E0216B31F8022BC2602163E08E01388B
:1014F000E086E08E0028E5D156E000BF20688168D4
:10150000890705D4FFF7F6F9E08E0028F6D14BE005
:10151000216B31F8022BC2602163E08E0138E08636
:10152000E08E0028EAD13FE039B139780173206BB1
:1015300001302063E08E0138E086E08EA0B3681CA5
:101540001CD000BF20688168890709D4FFF7D2F951
:10155000A0EB0800A84256D2E08E0028F2D123E08A
:10156000216B09780173206B01302063E08E013814
:10157000E086E08E0028E5D116E000BF2068816893
:10158000890705D4FFF7B6F9E08E0028F6D10BE005
:10159000216B09780173206B01302063E08E0138E4
:1015A000E086E08E0028E9D12046022101222B4668
:1015B000CDF8008001F070F940B92046802100226A
:1015C0002B46CDF8008001F067F928B1606D40F03E
:1015D0002000606520206065A06838B90020019077
:1015E0002068C1680191806801900198012084F809
:1015F0005100002084F85000606D002818BF0120C1
:1016000002B0BDE8F081002084F85000012084F889
:101610005100032002B0BDE8F08100002DE9F04345
:1016200083B01E4615460F460446FFF763F994F84B
:1016300051108146012908D1002F4FF0010018BF39
:10164000002D0DD103B0BDE8F0836068B0F5827F56
:101650000CD102200429F5D1A1680029ECD0F1E7D2
:10166000002EEFD094F85000012803D1022003B0DF
:10167000BDE8F0830120731EDDF8288084F8500057
:10168000B3FA83F394F851005B0904281CBF0520CA
:1016900084F8510000206065E687A563A68727636C
:1016A000C4E91000A686E6862068016849065EBF88
:1016B000016841F0400101606168E268B1FA81F1BE
:1016C000B2F5006F4FEA511141EA030161D131B126
:1016D00037F8021BC1602763E08E0138E0860125E0
:1016E00018F101002ED000BFE08E18B9E08F00285D
:1016F00000F0BE802068816889070CD5E18E012D3D
:1017000009D141B1216B002531F8022BC260216360
:10171000E18E0139E1868168C9070AD0E18F41B1C4
:10172000C068A16B012521F8020BA163E08F01388D
:10173000E087FFF7DFF8A0EB09004045D4D362E073
:10174000FFF7D8F8E08E18B9E08F002800F09080FD
:101750002068816889070CD5E18E012D09D141B13E
:10176000216B002531F8022BC2602163E18E013923
:10177000E1868168C907E3D0E18F0029E0D0C06825
:10178000A16B012521F8020BA163E08F0138E087EE
:10179000D6E739B139780173206B01302063E08ED0
:1017A0000138E086012518F1010039D0E08E10B92A
:1017B000E08F00285CD02068816889070ED5E18E13
:1017C000012D0BD151B1216B002509780173216BDB
:1017D000206801312163E18E0139E1868168C90702
:1017E0000BD0E18F49B1C068A16B01250870A06BD7
:1017F0000130A063E08F0138E087FFF77BF8A0EBB2
:1018000009004045D2D3002084F85000012084F81C
:101810005100032003B0BDE8F08300BFFFF76AF872
:10182000E08E08B9E08F18B32068816889070ED56B
:10183000E18E012D0BD151B1216B00250978017387
:10184000216B206801312163E18E0139E1868168D5
:10185000C907E3D0E18F0029E0D0C068A16B012562
:101860000870A06B0130A063E08F0138E087D5E7F6
:101870002046022101224346CDF8009001F00CF8E9
:1018800040B92046802100224346CDF8009001F067
:1018900003F860B1606D40F020006065002084F8BE
:1018A000500020206065012003B0BDE8F083A068EF
:1018B00038B9002002902068C168029180680290C7
:1018C0000298012084F85100002084F85000606DD7
:1018D000002818BF012003B0BDE8F083411E00209E
:1018E000B0EB116F1CBF012070474EF21002F023C5
:1018F000CEF2000251604EF62351CEF200010B7081
:101900000721906011607047704700007047000029
:1019100090F83C300222012B38D080B580F83D2071
:10192000012280F83C2002685368D2F808C023F0F6
:10193000700E0B6843EA0E03536040F2FF73C4F26B
:1019400000039A42BDE8804009DCB2F1804F12D01A
:1019500040F20043C4F200039A420CD010E042F679
:101960000043C4F201039A4205D040F60003C4F2DA
:1019700000039A4204D149682CF080031943916016
:101980000022012180F83C2080F83D10104670476D
:1019900090F83D1001291CBF01207047022180F8FA
:1019A0003D100068C16841F00101C16040F2FF7163
:1019B000C4F20001884209DCB0F1804F12D040F23D
:1019C0000041C4F2000188420CD012E042F600410E
:1019D000C4F20101884205D040F60001C4F20001C2
:1019E000884206D1816801F00701062904BF002062
:1019F0007047016841F0010101600020704700005C
:101A000070B542F6004104460068C4F20101884204
:101A100056D1207F012853D140F27005C2F2000553
:101A2000287898B12878012818BF70BD2046002179
:101A3000002600F0F1FAA86024686662A868696868
:101A4000884214D9A8686968401A1AE02046002123
:101A500000F0E2FA6860012028702068016A21F035
:101A60000A010162016A41F00201016270BD686809
:101A7000A968884206D968684FF6FF71081AA968F4
:101A80000844E860E86801F0C5FB4CF29C4246F669
:101A90007203CBF22002C3F6A17301F0CFFB002347
:101AA00000220026C3F6E07301F0C8FB01F06EFBD4
:101AB00068702E70206A20F00A002062206A20627E
:101AC00070BD000090F83C30012B02BF0223184685
:101AD00070474FEAB2020123032A80F83C3000F23B
:101AE000A380F0B5DFE802F0021F3E5AD1E900C53D
:101AF0000368CC6840F2FF77C4F20007D3F820E017
:101B00001A6ABB4222F001021A621A4652F8186F92
:101B100067DCB3F1804F70D040F20047C4F2000799
:101B2000BB426AD085E0D1E900320668CF68356AE9
:101B3000346A120203F00A0324F0100434624FF2F4
:101B4000FF0422EA0404324667F30F3452F8187F88
:101B500027F473472743176025F0A00747EA0313CC
:101B6000336237E0D1E900370668CA68356A346AFB
:101B700062F30717324624F48074346252F81C4F23
:101B800024F0F30427431760C3F3560363F3492596
:101B90003562136823F00C0313603EE0D1E9003294
:101BA0000668CF68356A346A120224F480543462BD
:101BB0004FF2FF0422EA0404324667F30F3452F86E
:101BC0001C7F27F4734727431760C3F3520363F363
:101BD0004D353562136823F4406313608968090248
:101BE0001CE042F60047C4F20107BB4205D040F6B4
:101BF0000007C4F20007BB421BD126F003063543A1
:101C00000CF00A072EF00A0664F3071537449D61AD
:101C10001F629F6927F00C079F6189681368194349
:101C200000231160BDE8F040002180F83C10184608
:101C3000704746F00105E3E7002804BF0120704724
:101C400010B5044690F83D0028B9002084F83C0007
:101C5000204600F057F8022040F2FF7342F6004C95
:101C600084F83D00C4F20003C4F2010C206802684D
:101C7000984209DCB0F1804F0ED040F20043C4F22C
:101C80000003984208D00FE0604505D040F60003FD
:101C9000C4F20003984207D1A36822F45C72216960
:101CA00023F440731A430A43A16922F0800260457D
:101CB00041EA02010160E168C1626168816204BFBA
:101CC0006169CCF83010012141610269D2071EBF61
:101CD000026922F001020261002084F8461084F8B3
:101CE0003E1084F83F1084F8401084F8411084F8C6
:101CF000421084F8431084F8441084F8451084F8A6
:101D00003D1010BD80B586B00022014640F60000AF
:101D1000CDE90422CDE90222C4F20100096800F5F0
:101D20001053994201D006B080BD41F21801C4F2AF
:101D300002010B6843F400630B600B6803F400635B
:101D40000193019B0B6843F004030B60096801F0E9
:101D5000040101910199CDE903224FF480710291B0
:101D600002A9FEF7ADFC1B2000210022FEF73EFE7B
:101D70001B20FEF72BFE06B080BD000041B10429F8
:101D80000BD008290ED100F1440C00F140030DE006
:101D900000F1420C00F13E0308E000F1430C00F1B9
:101DA0003F0303E000F1450C00F141031A789CF871
:101DB00000304FF0010C012A08BF012B01D0604612
:101DC0007047022271B1042917D0082920D180F868
:101DD000402080F844204FEAB1034FF0010C032B60
:101DE000EDD81FE080F83E2080F842204FEAB10392
:101DF0004FF0010C032BE2D814E080F83F2080F86C
:101E000043204FEAB1034FF0010C032BD7D809E070
:101E100080F8412080F845204FEAB1034FF0010CD3
:101E2000032BCCD843F2C442006801F01F01C0F676
:101E300000020CFA01F152F82320C3681A43C26071
:101E4000026A8A430262026A1143016240F2FF7130
:101E5000C4F20001884209DCB0F1804F12D040F298
:101E60000041C4F2000188420CD018E042F6004163
:101E7000C4F20101884205D040F60001C4F200011D
:101E800088420CD181684FF0000C01F0070106294F
:101E90001EBF016841F001010160604670470168A2
:101EA0004FF0000C41F001010160604670470000F6
:101EB000B0B504460068C168026902EA0105A907D5
:101EC00020D4680738D4280752D4E8066BD4E80732
:101ED00040F08780280600F18E80680606D52068CD
:101EE0006FF040010161204600F0B0F8A80658BF2D
:101EF000B0BD20686FF0200101612046BDE8B04010
:101F0000FFF704BD6FF002010161012121778069B3
:101F1000800707D02046FFF773FD00202077680771
:101F2000D1D509E0204600F071F8204600F070F8A5
:101F3000002020776807C6D520686FF00401016192
:101F400002212177806910F4407F07D02046FFF7F7
:101F500057FD002020772807B7D509E0204600F07C
:101F600055F8204600F054F8002020772807ACD51B
:101F700020686FF00801016104212177C0698007A2
:101F800007D02046FFF73CFD00202077E8069ED5CD
:101F900009E0204600F03AF8204600F039F8002029
:101FA0002077E80693D520686FF0100101610821C1
:101FB0002177C06910F4407F08D02046FFF720FD4C
:101FC00000202077E8073FF485AF0AE0204600F0C4
:101FD0001DF8204600F01CF800202077E8073FF4A9
:101FE00079AF20686FF001010161204600F012F81E
:101FF00028067FF572AF20686FF0800101612046EE
:10200000FFF782FC68067FF571AF68E77047000054
:1020100070470000704700004FEAB101032984BFF8
:1020200000207047DFE801F0020E060A0068343035
:102030000068704700683C300068704700684030B6
:1020400000687047006838300068704770470000CB
:10205000FEE7000070B582B0044641F080001646ED
:1020600000221D468DF80700A1882068FEF73CFC81
:10207000A0690DF1070101224FF4FA63FFF7C2F9DD
:10208000A069FEF791FF0128FAD1A06931462A46DE
:102090004FF4FA63FFF7B6F9A069FEF785FF012850
:1020A000FAD1A18820680122FEF71EFC02B070BDA3
:1020B000F0B583B001250DF10A010DF10B030122EA
:1020C00004468DF80A50009500F0CAF99DF80B00FF
:1020D000002681270DF10A010DF10B030122E661B3
:1020E0008DF80A70009500F0F8008DF80B0020467E
:1020F00000F092FB0A20FEF7C1FA0DF10A010DF182
:102100000B03204601228DF80A50009500F0A8F933
:102110009DF80B008DF809000A20FEF7AFFA9DF834
:1021200009000DF10A010DF10B0301228DF80A706F
:10213000009540F080008DF80B00204600F06CFB0D
:102140006420FEF79BFA276A0DF10A010DF10B03DB
:1021500001220095B8088DF80B0086208DF80A0042
:10216000204600F059FB0520FEF788FAB8010DF172
:102170000A010DF10B03012200958DF80B00872059
:102180008DF80A00204600F047FB0520FEF776FA9E
:1021900088200DF10A010DF10B0301228DF80B606F
:1021A00000958DF80A00204600F036FB0520FEF76A
:1021B00065FA94F82A000DF10A010DF10B030122D2
:1021C00000958DF80B0089208DF80A00204600F05C
:1021D00023FB0A20FEF752FA94F82B002D2801D297
:1021E0002D2005E0F02801D9F0200CE078280AD84D
:1021F00046F267612D38C6F2666180FB0101481026
:1022000000EBD17007E04CF6CD411E30CCF6CC414E
:10221000A0FB0101C808203001250DF10A010DF1D4
:102220000B0301228DF80B008B2000958DF80A001E
:10223000204600F0F1FA0A20FEF720FA23200DF1E3
:102240000A010DF10B03012200958DF80B008C2083
:102250008DF80A00204600F0DFFA1E200DF10A0179
:102260000DF10B03012200958DF80A00204600F0C5
:10227000F7F89DF80B000DF10A010DF10B03012297
:10228000009540F007008DF80B009E208DF80A00A5
:10229000204600F0C1FA0A20FEF7F0F994F8241065
:1022A000204600F00BF9FF200DF10A010DF10B03A0
:1022B000012200958DF80B009F208DF80A00204622
:1022C00000F0AAFA94F8261094F825000DF10B03FB
:1022D00001220095490001EB00100DF10A018DF873
:1022E0000B009D208DF80A00204600F095FA26206C
:1022F00094F8246094F825700DF10A010DF10B0398
:10230000012200958DF80A00204600F0A9F805FA90
:1023100006F000F068FF43F25043C0F6000353F8A4
:10232000372003EBC7035B6800F0A8FD00F0FEFE5A
:102330009DF80B1011284FF0A6000DF10B0341F092
:102340000802B8BF01F0F7028DF80B208DF80A00E3
:102350000DF10A0120460095012200F05DFA0A20E5
:10236000FEF78CF994F829000DF10A010DF10B0329
:10237000012200958DF80B00A0208DF80A00204660
:1023800000F04AFA94F828000DF10A010DF10B0350
:10239000012200958DF80B00A1208DF80A0020463F
:1023A00000F03AFA40200DF10A010DF10B03012271
:1023B00000958DF80A00204600F052F89DF80B00B9
:1023C0000DF10A010DF10B0301228DF809009DF8B2
:1023D0000900009540F03F008DF80B00C0208DF8FB
:1023E0000A00204600F018FA0DF10A010DF10B0366
:1023F000204601228DF80A50009500F031F89DF832
:102400000B00E5610DF10A010DF10B0301220095AE
:1024100000F0F80001308DF80B0081208DF80A00E3
:10242000204600F0F9F90A20E561FEF727F942207D
:102430000DF10A010DF10B03012200958DF80A0040
:10244000204600F00DF89DF80B008DF809004FF4C0
:10245000CA709DF80910122908BFC82003B0F0BD4A
:10246000F0B581B00F460446818800681646002208
:102470001D46FEF739FAA069394632464FF4FA6331
:10248000FEF7C0FF069E00BFA069FEF78DFD012884
:10249000FAD1A069294632464FF4FA63FEF7AEFE40
:1024A000A069FEF781FD0128FAD1A18820680122E8
:1024B00001B0BDE8F040FEF717BA0000F0B583B0F8
:1024C00004461E200D46012601A90DF10503012237
:1024D0008DF8040020460096FFF7C2FF9DF80570B6
:1024E0000A20FEF7CBF8072DD8BF072507F00F000D
:1024F0000DF106010DF1070301220C2DA8BF0C25DB
:1025000040EA051000968DF807009E208DF8060021
:10251000204600F081F90A20FEF7B0F8262094F852
:10252000245094F8257002A90DF1090301220096A8
:102530008DF808002046FFF793FF06FA05F000F03B
:1025400052FE43F25043C0F6000353F8372003EB2A
:10255000C7035B6800F092FC00F0E8FD9DF80910ED
:1025600011284FF0A6000DF10B0341F00802B8BF8F
:1025700001F0F7028DF80B208DF80A000DF10A0129
:1025800020460096012200F047F90A20FEF776F86F
:1025900003B0F0BD2DE9F04F83B01D4616460F463F
:1025A000D0F81C804FF001090DF10A010DF10B0369
:1025B000012283468DF80A90CDF80090FFF750FF76
:1025C0009DF80B00CBF81C904FF0810A0DF10A0129
:1025D0000DF10B030122CDF800908DF80AA000F058
:1025E000F80001308DF80B00584600F015F90E2068
:1025F0000DF10A010DF10B030122CDF800908DF8C9
:102600000A005846FFF72CFF9DF80B000DF10A0158
:102610000DF10B030122CDF800908DF80B008D20F9
:102620008DF80A00584600F0F7F8A2200DF10A01D3
:102630000DF10B0301228DF80B60CDF800908DF8A1
:102640000A00584600F0E8F8584600213A4633465A
:10265000FFF700FD0DF10A010DF10B0358460122B1
:102660008DF80A90CDF80090FFF7FAFE9DF80B0068
:1026700003210DF10B030122CBF81C100DF10A010F
:102680008DF80AA0CDF8009000F0F80003308DF826
:102690000B00584600F0C0F812240DF10A010DF1AC
:1026A0000B0358460122CDF800908DF80A40FFF741
:1026B000D7FE9DF80B00000718D40DF10A060DF1A6
:1026C0000B0700BF013D28043BD00120FDF7D6FFDA
:1026D0005846314601223B468DF80A40CDF800901D
:1026E000FFF7BEFE9DF80B000007EBD5FF200DF1B4
:1026F0000A010DF10B030122CDF800908DF80B00BB
:1027000092208DF80A00584600F086F80DF10A0173
:102710000DF10B03584601228DF80A90CDF8009078
:10272000FFF79EFE9DF80B00B8F1060F39D8DFE8E1
:1027300008F004233828382D320000F0F80000217A
:102740002DE001250DF10A010DF10B035846012280
:102750008DF80A500095FFF783FE9DF80B00B8F145
:10276000060F46D8DFE808F004304535453A3F000B
:1027700000F0F80000213AE000F0F80001210130FB
:102780000DE000F0F8000321033008E000F0F8004D
:102790000521053003E000F0F80006210630CBF8F3
:1027A0001C108DF80B00812001250DF10A010DF19F
:1027B0000B0301228DF80A005846009500F02CF812
:1027C000284603B0BDE8F08F00F0F8000121013089
:1027D0000DE000F0F8000321033008E000F0F800FD
:1027E0000521053003E000F0F80006210630CBF8A3
:1027F0001C108DF80B0081200DF10A010DF10B0367
:10280000012200958DF80A00584600F005F80025D1
:10281000284603B0BDE8F08FF0B581B00F460446FE
:1028200081880068164600221D46FEF75DF8A06903
:10283000394632464FF4FA63FEF7E4FD069E00BFC8
:10284000A069FEF7B1FB0128FAD1A06929463246FA
:102850004FF4FA63FEF7D6FDA069FEF7A5FB012849
:10286000FAD1A1882068012201B0BDE8F040FEF74E
:102870003BB80000FEE70000FEE7000070470000E4
:1028800040F27810C2F20000FEF792BB406A0021CD
:10289000C187C186FEF786BB2DE9F04381B0089C55
:1028A000984615460E468146FEF724F8201A00EB9E
:1028B0000804FEF71FF8074640F20800C2F20000C5
:1028C0000068C0F3CB3060430090D9F80000816805
:1028D0003140891BB1FA81F14909A9423AD018F176
:1028E000010117D0FEF706F8C01BA04236D20098AF
:1028F000009901390028009108BF0446D9F800006A
:1029000080683040801BB0FA80F04009A842E9D1CD
:1029100020E000BF81683140891BB1FA81F149098B
:10292000A94217D081683140891BB1FA81F1490968
:10293000A9420FD081683140891BB1FA81F1490960
:10294000A94207D081683140891BB1FA81F1490958
:10295000A942DFD1002001B0BDE8F083D9F8000022
:10296000416821F0E0014160D9F80410B1F5827F9F
:102970000BD1D9F80810B1F5004F02D0B1F5806F36
:1029800003D1016821F040010160D9F82810B1F5A8
:10299000005F07D1016821F400510160016841F432
:1029A00000510160002089F85000012089F8510091
:1029B000032001B0BDE8F08370470000FDF7A0BF21
:1029C0007047000040F2D010C2F20000FFF770BA6A
:1029D000FEE7000094B0FDF7A1FF03A800F038FA6D
:1029E00003AF40F2700840F6000B40F2781A8CCF2B
:1029F000DDE9066EDDE908C5DDE90A90DDE90C14C4
:102A0000C2F20008C4F2010BC2F2000AC8E90E14B7
:102A100008F114014FF480648CC1C8E9086EC8E95C
:102A20000AC5C8E90C9002270BF580660120002535
:102A30004FF4E011C8F82CA0A8F82840C8F824B03A
:102A400003AAA8F82070C8F81C60A8F81800C8F8F5
:102A50001460CDE90855CDE906551295CDE910551C
:102A6000CDE90E550C914FF48031CDE90A710790F4
:102A700023C203A8FEF7D4F818B1EFF3108072B6A2
:102A8000FEE70F201295CDE910540221CDE90E0783
:102A90000EA8FDF7E9FF20B1EFF3108072B600BF7A
:102AA000FEE701200BF5006901224FF4005788F87A
:102AB0003A0040F20770A8F8380040F2B110C8F8A8
:102AC00034000920C8F2FF20C8F83C0041F2180089
:102AD000C4F20200016841F010010160016801F0D8
:102AE000100103910399016841F020010160016820
:102AF00001F0200103910399016841F00401016094
:102B0000016801F0040103910399016841F0080193
:102B100001604FF40051006800F008000390039832
:102B20004846FDF7E1FE304603210122FDF7DCFEB9
:102B300058464FF4007100220024FDF7D5FE02250F
:102B40000120CDE90545CDE9037003AF4846CDF836
:102B500008903946FDF7B4FD0120CDE90545394619
:102B60004FF001090490032003903046FDF7A8FDC3
:102B70004FF40076584639460695CDE904940396FD
:102B8000FDF79EFD002005943946C1F21100049026
:102B90004FF4806003905846FDF792FD28200221F3
:102BA00000222825FDF722FF2820FDF70FFF4FF414
:102BB00082700BF520510A22CAE90844CAE90A4288
:102BC000CAE900105046CAE90244CAE90444CAE905
:102BD0000665FEF771FA20B1EFF3108072B600BF00
:102BE000FEE740F2D0104FF6FE7147220BF510536E
:102BF000CDE90E44C2F20000C0E90032C0E9024152
:102C0000C0E904448461CDE90544CDE90344FFF7FC
:102C100013F820B1EFF3108072B600BFFEE740F268
:102C2000D01000240EA9C2F20000CDE90E44FEF738
:102C30006FFE20B1EFF3108072B600BFFEE70120F7
:102C4000CDE9054403A90022CDE9034040F2D010AC
:102C5000C2F20000FEF736FF18B1EFF3108072B633
:102C6000FEE740F2D016C2F200063046FEF790FEB4
:102C700030460021FFF782F808F114000190FFF7B9
:102C800017FAC82802984FF4005114BF01220022FD
:102C9000FDF72AFE40F2141540F2B0074FF000098C
:102CA00040F60D2AC2F20005C2F2000788F8009033
:102CB00001223068C0F82490C16841F00201C1606F
:102CC00058464FF40071FDF70FFE3068C0F82490AD
:102CD000416A0A2908D2416A092905D8416A0929A5
:102CE00002D8416A0A29F3D358464FF400710022F2
:102CF000FDF7FAFD98F8014028466421C8F8104015
:102D0000FDF77FFB38466421FDF77BFB43F2E4418E
:102D100028462246C0F60001FDF75AFA3846FDF76C
:102D200045FB42F27B21C4F25421395042F2322158
:102D30003844C2F23A2180F808904160384629466A
:102D4000FDF753FBFDF732FB47F622513952384469
:102D500080F802903846FDF729FB27F800A0384498
:102D600080F80290D8F8100001289FDB3846FDF764
:102D70001DFBC2B2019839464FF4FA63FFF70AFC13
:102D800002984FF40051FDF7A7FD30684FF4FA7137
:102D9000243000BFC0F800900268B2F57A7F0BD2F1
:102DA0000268D2087C2A07D80268D2087C2A03D895
:102DB0000268B2F57A7FEFD3C0F800900268D208BB
:102DC0007C2A0BD80268D2087C2A07D80268D2086D
:102DD0007C2A03D80268B2F57A7FEFD3C0F800905E
:102DE0000268D2087C2A0BD80268D2087C2A07D84D
:102DF0000268D2087C2A03D80268B2F57A7FEFD342
:102E0000C0F800900268D2087C2A0BD80268D20869
:102E10007C2A07D80268D2087C2A03D80268B2F557
:102E20007A7FEFD3C0F800900268D2087C2A0BD8D2
:102E30000268D2087C2A07D80268D2087C2A03D804
:102E40000268B2F57A7FEFD305390A04A2D12DE7E3
:102E5000012180F8261040F20771818440F2B111FF
:102E600001620821C6F2FF418162704730380A28AA
:102E700001D2012070470020704700002DE9C041B9
:102E800030B4DFF8A0C23CEA111418BF3CEA1314B6
:102E900000F0EC801CEA111481EA030544EAD574C1
:102EA00018BF1CEA131500F0C780A4EB050404F159
:102EB0007F7404F500344FF0004545EAC12145EA2E
:102EC000C32341EA505143EA52534FEAC0204FEA2C
:102ED000C222994208BF904200F09C804FEA1365DD
:102EE0000FF24016765D4FEA134506FB05F7C7F172
:102EF000807706FB07F74FEAD737A7FB03687642D0
:102F0000A7FB06CEC8F5803838BFA8F1010807FB3B
:102F100008E6A6FB028C4FF0000EE6FB03CEDCF1C8
:102F2000000CCEF1004E38BFAEF1010EA6FB0C58DE
:102F30004FF00007E6FB0E87A1FB08C6A0FB07CEFB
:102F400016EB0E064FF0000545F10005E1FB0765A5
:102F500015F1E04E7EBFA4F580345FEA46066D4170
:102F600016F1800745F100054FEA172747EA056784
:102F70004FEA15254FEA0666A6F1DE46B6F1805FF8
:102F80001FD9384605EBC47124F0010C01EB0C117C
:102F9000BCF1FE6F02D8F0BCBDE8008124425CBFEA
:102FA00001F5801E9EEAC47F02D4F0BCBDE800811A
:102FB000244238D4A1F1C041F0BCBDE8004100F08A
:102FC00035BA4FEAD02040EA41504FEAD1214FEACA
:102FD000D22242EA43524FEAD323A7FB028607FBE1
:102FE000036605FB02661EEA0E0F58BFA6EB0056ED
:102FF000B6EB00564FEA520E4EEAC37E18EB0E0EA9
:1030000056EB530EBDD518EB02085E417F1C55F1FF
:103010000005B6E74FF480154FF000074FF00006AB
:103020004FF00008ADE701F1C04101F000414FF061
:103030000000F0BCBDE800810CEA131511EA0C1F7A
:1030400000D00CE013EA0C1F00F025804FF00000C8
:1030500081EA030101F00041F0BCBDE80081F0BC51
:10306000BDE8004181EA030100F0E0B9F0BCBDE831
:10307000004170B500F08CF9097EFC3E00F007B805
:103080004FF0000081EA030101F00041704781EA3E
:10309000030100F0CBB9F0BCBDE8004122494FF07C
:1030A00000007047FFFDFBF9F7F5F4F2F0EEEDEBF1
:1030B000E9E8E6E4E3E1E0DEDDDBDAD8D7D5D4D336
:1030C000D1D0CFCDCCCBCAC8C7C6C5C4C2C1C0BF82
:1030D000BEBDBCBBBAB9B8B7B6B5B4B3B2B1B0AF88
:1030E000AEADACABAAA9A8A8A7A6A5A4A3A3A2A16C
:1030F000A09F9F9E9D9C9C9B9A9999989797969527
:1031000095949393929191908F8F8E8E8D8C8C8BC2
:103110008B8A89898888878786858584848383824A
:10312000828181800000FF070000F87F4FEA4103A1
:103130004FEA5353A3F58063D3F11E03C8BFD3F105
:10314000210C0CDD4FF0004242EAC12242EA50520B
:1031500032FA03FC8CEAE17CACEBE1707047102B97
:10316000C4BF0020704703F5787CBCF1FF3F04D05A
:103170006FF0004282EA2100704770B500F008F954
:103180004992248000207047F2E700004FEA115373
:10319000A3F58063D3F11E03A8BFD3F1200C08DB95
:1031A0004FF0004242EAC12252EA505232FA03F092
:1031B000704709420BD4102BC4BF0020704703F5A1
:1031C000787CBCF1FF3F05D04FF0FF3070474FF0E7
:1031D0000000704770B500F0DBF800BF4992248012
:1031E00000207047F0E710F0004248BF4042B0FABC
:1031F00080F310FA03F10AD0C3F11D0303F58063D5
:1032000002EB03524FEA415002EBD12170474FF0DD
:1032100000007047B0FA80F310FA03F10AD0C3F14E
:103220001D0303F580634FEA03524FEA415002EB5E
:10323000D12170474FF000007047000070B5DFF8F3
:1032400048C11CEA111E1EBF1CEA13159EEA0C0F92
:1032500095EA0C0F00F06F8081EA03044EEAD47EF9
:10326000AE4421EA4C1123EA4C1341F4801143F49B
:103270008013AEF17F7EA1FB024CA0FB03653619E3
:1032800055EB0C05A1FB034C4CF10003A0FB021C09
:1032900016EB0C06654153F10003094218BF46F0D6
:1032A000010613F4007F0BD14FEA03314FEA0530DA
:1032B00041EA155140EA165034036FF003020AE068
:1032C0004FEAC3214FEAC52041EA555140EA565022
:1032D000F4026FF0020202EB2E4201EB025585EA86
:1032E000CE710AD05FEA440C18BF24F0004450F1BC
:1032F000000041F1000120EAD47040F2FE7C6245FA
:1033000000D270BDA84214BF4FF080444FF040443B
:10331000002E08BF0024BEF1806FA8BFA1F1C041FC
:10332000BDE8704080F2828001F1C04101F00041AF
:103330004FF0000070470CEA13159EEA0C0F18BFFF
:1033400095EA0C0F06D081EA030E4FF000000EF054
:10335000004170BD00F01CF88900013E00F007B884
:1033600000F009B84FEA430C5FEA5C5C08D081EAE0
:10337000030100F05BB84FEA410C5FEA5C5CF6D1F8
:1033800002494FF0000070470000FF070000F87F7F
:103390000EF1020E2EF0030E5EF8046B364205D4D9
:1033A000012A43EB030515F5001F12D8012841EB54
:1033B000010C1CF5001F0CD80ED14FEAD17C0CEB90
:1033C0004C0C0CF1020C15F5001F08BF4CEBD37C24
:1033D00004E04FF0080C01E04FEAD37C0CEB4C0505
:1033E00026FA05F606F00706B6F1040C06D20EEB37
:1033F000860CBDE870404CF0010C6047DFE80CF033
:10340000090B02024FF00041A1F500214FF000002E
:1034100070BD19461046012851EB010418BFD4F5C0
:10342000001484BF002001F0004170BD0808A0F521
:1034300000114FEA3101704704000008000000004D
:103440000000000200010000100000000000000069
:103450003333333333331F40CDCCCCCCCCCC2440AE
:103460003333333333332F40CDCCCCCCCCCC34407E
:103470000000000000403F409A99999999D9444032
:103480000000000000404F400000000000405F408E
:103490000000000000406F400000000000407F403E
:1034A00000000000000000000102030406070809F4
:1034B000010202030405060708090A0B0C0D0E0F92
:1034C00010100000020000000400000008000000CE
:1034D00010000000FDFFFFFFFBFFFFFFF7FFFFFFF6
:1034E000EFFFFFFF25640000083500080000002002
:1034F0001000000028010008183500081000002006
:103500001008000044010008010000001000000045
:0835100000127A000000000027
:04000005080000ED02
:00000001FF
