:020000040800F2
:1000000080080020910100089F2200085D1C000864
:100010009D2200081D0600089F2500080000000022
:10002000000000000000000000000000092400089B
:10003000C506000800000000A12200080B240008EB
:10004000AB010008AB010008AB010008AB010008E0
:10005000AB010008AB010008AB010008AB010008D0
:10006000AB010008AB010008AB010008AB010008C0
:10007000AB010008AB010008AB010008AB010008B0
:10008000AB010008AB010008AB010008AB010008A0
:10009000AB010008AB010008AB010008AB01000890
:1000A000AB010008AB010008AB0100087124000897
:1000B000AB010008AB010008AB010008AB01000870
:1000C000AB010008AB010008AB010008A522000845
:1000D000AB010008AB010008AB010008AB01000850
:1000E000C7060008AB010008AB01000800F002F8E9
:1000F00000F03FF80AA090E8000C82448344AAF183
:100100000107DA4501D100F034F8AFF2090EBAE880
:100110000F0013F0010F18BFFB1A43F0010318473B
:100120004C2D00006C2D0000103A24BF78C878C117
:10013000FAD8520724BF30C830C144BF04680C60ED
:10014000704700000023002400250026103A28BF35
:1001500078C1FBD8520728BF30C148BF0B60704739
:10016000642900F04B80002070471FB51FBD10B5FB
:1001700010BD00F01EFA1146FFF7F7FF02F046FA35
:1001800000F03CFA03B4FFF7F2FF03BC00F040FAC2
:100190000948804709480047FEE7FEE7FEE7FEE71B
:1001A000FEE7FEE7FEE7FEE7FEE7FEE70448054957
:1001B000054A064B704700006D240008ED0000085A
:1001C000800200208008002080040020800400209D
:1001D0000FB41CB5084B06AA7B44694600900598ED
:1001E00000F0C9F904460020694600F0D7F920461E
:1001F0001CBC5DF814FB0000C10300002DE9F041B8
:100200000646002410687529314616A510D0AFF3B4
:100210000080002802DA404213A507E031688A070F
:1002200001D512A502E0490704D511A5012401E07A
:10023000AFF3008000210A2206F1240709E0B0FB99
:10024000F2FCB0FBF2F302FB1C003030785418468D
:10025000491C0028F3D123462A463046BDE8F04128
:1002600000F02BB9000000002D0000002B00000062
:10027000200000002DE9F05F894604464FF0000A97
:10028000DFF824B1FB44C0F820A02046E16888478D
:1002900000287DD0252806D0D4E901219047206A86
:1002A000401C2062F1E700255F462046E168884750
:1002B0002028064607DB312E05D2B81910F8200C8D
:1002C00008B10543F1E7A80701D525F00405C4F8F6
:1002D0001CA00027C4F818A02A2E09D0304602F02E
:1002E0006FF938B304EB8708303EC8F8186019E09E
:1002F00059F8041B204604EB87029161E1688847A6
:10030000012F064618D1E069002820DA25F02005E3
:100310001DE0D8F8180000EB800006EB40003038F4
:10032000C8F818002046E1688847064602F048F9F8
:100330000028EED1012F0AD02E2E08D12046E168E8
:1003400088477F1C0646022F45F02005C4DBA069C4
:10035000002803DA404245F00105A061E80701D01A
:1003600025F01005A6B1A6F14100192802D82036C3
:1003700045F400654A463146204625604D46FFF764
:10038000EFFE60B1012807D0ED1D25F0070000E069
:1003900007E000F1080978E705F1040975E7304640
:1003A0007AE7206ABDE8F09FD02B000010B5431C0F
:1003B00002E010F8011B71B18107FAD14FF0013250
:1003C00002C88C1A8C4314EAC211F9D0C01A0A066A
:1003D00003D0C01E10BDC01A10BD0A0401D0801E7B
:1003E00010BD0902FCD0401E10BD421E12F8013F94
:1003F000002BFBD111F8013B002B02F8013BF9D196
:10040000704710B5203AC0F00B80B1E81850203A80
:10041000A0E81850B1E81850A0E81850BFF4F5AFA4
:100420005FEA027C24BFB1E81850A0E8185044BF2E
:1004300018C918C0BDE810405FEA827C24BF51F89B
:10044000043B40F8043B08BF7047D20728BF31F88F
:10045000023B48BF11F8012B28BF20F8023B48BFE0
:1004600000F8012B70474FF0000200B51346944688
:100470009646203922BFA0E80C50A0E80C50B1F1FC
:100480002001BFF4F7AF090728BFA0E80C5048BF10
:100490000CC05DF804EB890028BF40F8042B08BFAE
:1004A000704748BF20F8022B11F0804F18BF00F8AA
:1004B000012B70477047704770472DE9F0470D4694
:1004C00099469246044600F124080168880604D53E
:1004D000E06921F01001216000E00120A84201DD67
:1004E000471B00E00027A1697A1902EB0900081AEE
:1004F000A0612078C00602D42046AFF30080002619
:1005000008E0D4E901211AF806009047206A401C4F
:10051000761C20624E45F4DB2078C0060AD52046C2
:10052000AFF3008006E0D4E9012130209047206A33
:10053000401C2062381EA7F10107F4DC07E0D4E973
:10054000012118F805009047206A401C2062281EEF
:10055000A5F10105F3DC2046AFF30080207800060A
:1005600002D50220BDE8F0870120FBE701694A1CA3
:1005700002610878704700B58FB0CDE901310021E4
:10058000059105497944CDE9031011466846FFF706
:1005900071FE0FB000BD0000E5FFFFFF0A6802F822
:1005A000010B0A60704700000048704720020020DD
:1005B00070477546FFF7F8FFAE460500694653469B
:1005C00020F00700854618B020B5FFF7EFFDBDE825
:1005D00020404FF000064FF000074FF000084FF0AA
:1005E000000B21F00701AC46ACE8C009ACE8C0093B
:1005F000ACE8C009ACE8C0098D46704710B50446A8
:10060000AFF300802046BDE81040FFF7BBBD0000FF
:1006100001491820ABBEFEE726000200FEE70000FD
:1006200070B50C461E490022134601F16405A1F184
:1006300064068B54AB54B354521C642AF9DB024653
:1006400018A11748FFF7C4FD1548224615A16430CC
:10065000FFF7BEFD124814A16438FFF7C6FE10492B
:100660006431A1F1C800FFF7C0FE0D4810A1643845
:10067000FFF7BBFE0A480FA16438FFF7B6FE084932
:10068000A1F16400FFF7B1FE05480CA16438FFF743
:10069000ACFEBDE87040024809A16438FFF7A5BE72
:1006A00058010020256400007B225442223A220097
:1006B000222C0000224B43223A220000227D00001F
:1006C0000D0A000070474FF4806000F061B8000030
:1006D00010B590F821100024022903D00421816371
:1006E00001243DE001680A6822F00E020A600168F8
:1006F0000A6822F001020A601A4A0168914201D197
:10070000012121E0174A1432914201D110211BE04E
:10071000144A2832914201D1891515E0114A3C3220
:10072000914201D189140FE00E4A5032914202D118
:100730004FF4803108E00B4A6432914202D14FF409
:10074000801101E04FF08071064A083A51600121A2
:1007500080F82110002180F82010416B01B18847FA
:10076000204610BD0800024070B5044600F01AF99A
:100770000546601C02D004480078044400F012F9D9
:10078000401BA042FAD370BD180000207047000043
:10079000044910B50A68024202D00860FFF7F6FF6C
:1007A00010BD0000140401402DE9F84FDFF8B891A6
:1007B0000024A9F1040B23460F2709F1040AABF129
:1007C000040EC9E00125A5402A40AA427DD1674E0A
:1007D000D1F804C0ACEB0608B44532D014DCBCF14F
:1007E000030F3AD009DCBCF1000F2AD0BCF1010F95
:1007F0001CD0BCF1020F31D11DE0BCF1110F17D09C
:10080000BCF1120F2AD119E0B8F5881F19D006DC07
:10081000B8F5803F15D0B8F5801F1FD111E0B8F5AD
:10082000001F0ED0B8F5041F18D10AE0CB6815E000
:10083000CB681B1D12E0CB6808330FE0CB680C338C
:100840000CE08B682BB1012B4FF0080303D04561FE
:1008500004E0042302E0056100E00023FF2A01D840
:10086000064601E000F104064FEA840501D9A5F12E
:100870002005D6F8008007FA05FC28EA0C0803FAE0
:1008800005F548EA0508C6F800804D68ED0062D518
:10089000374DAE6946F00106AE61AD6924F003063E
:1008A00005F001050095334D06EB050CDCF808500A
:1008B000A607360F07FA06F825EA0805DFF8B8801C
:1008C000404503D14FF0000817E044E0DFF8AC806A
:1008D000404502D14FF001080FE0DFF8A480404509
:1008E00002D14FF0020808E0DFF89880404502D1BD
:1008F0004FF0030801E04FF0040808FA06F848EA50
:100900000508CCF808804D68D9F80060ED024D4626
:1009100001D5164300E096432E604D68DAF800607A
:10092000AD02554601D5164300E096432E604D6852
:10093000DBF80060AD035D4601D5164300E0964349
:100940002E604D68DEF80060ED03754601D5164354
:1009500000E096432E60641C0D682A46E5407FF453
:1009600031AFBDE8F88F000008040140000011100D
:10097000001002400000014000080140000C01404E
:100980000010014000140140C26821EA02030A403D
:1009900043EA0241016170470AB1016170470904ED
:1009A000FBE7000001488068704700001800002045
:1009B0000248816802781144816070471800002065
:1009C000074810B5016841F010010160032000F0F4
:1009D00075F80F2000F006F800F024F8002010BD94
:1009E0000020024070B50D4D04464FF47A7128780E
:1009F000B1FBF0F00A490968B1FBF0F000F01FFE0E
:100A000048B9102C07D200222146501E00F036F8BB
:100A100000206C6070BD012070BD00001800002037
:100A2000240000200C4808B5816941F00101816172
:100A3000816901F001010091C16941F08051C161FA
:100A4000C06900F0805000900448416821F0E061E6
:100A500041F00071416008BD0010024000000140FB
:100A6000002809DB00F01F020121914040098000AD
:100A700000F1E020C0F8001170470000F0B40E4B08
:100A80001B680C46C3F30223C3F10705042D00D9EC
:100A90000425191D072901D2002300E0DB1E0126D1
:100AA00006FA05F1491E214099409E40761E1640E7
:100AB0003143F0BC01F074BD0CED00E0064900F0DC
:100AC000070208684FF6FF03184040EA0220034A75
:100AD00010430860704700000CED00E00000FA05CC
:100AE0002DE9F0470F46050061D0434E306800F015
:100AF0000700B84209D2306820F007003843306060
:100B0000306800F00700B84251D128683B4C81079B
:100B100012D5400703D5606840F4E0606060287833
:100B2000000703D5606840F4605060606068A968A1
:100B300020F0F000084360602878C00728D068687B
:100B4000012810D02168022810D0890700292EDA48
:100B5000616821F0030101436160FFF723FF8046D4
:100B600041F288390DE021688903EFE78901EDE75B
:100B7000FFF718FFA0EB0801494502D90320BDE8A3
:100B8000F0876068696800F00C00B0EB810FEFD16E
:100B9000306800F00700B8420BD9306820F0070039
:100BA00038433060306800F00700B84201D00120BF
:100BB000E5E72878400705D56068E96820F4E0603B
:100BC000084360602878000706D56068296920F42A
:100BD000605040EAC100606000F018F86168084A9F
:100BE000C1F30311515CC84006490860064800681B
:100BF000FFF7F8FE0020C2E700200240001002408C
:100C0000F62D0008240000201C0000200E4A516828
:100C10000E4801F00C03042B11D0082B0FD10C4807
:100C2000C1F38343C903C05C0AD55168084AC1F3C4
:100C30004041921E515C054A5043B0FBF1F07047B1
:100C400004494843704700000010024000127A0037
:100C5000E62D000800093D002DE9F84F040070D092
:100C60002078C04DC00749D06868C0F381000128D2
:100C700007D06868C0F38100022809D16868C00302
:100C800006D52868800339D560680028E7D035E0AC
:100C90006068B0F5803F0BD010B1B0F5A02F11D037
:100CA000286820F480302860286820F4802002E042
:100CB000286840F480302860606890B1FFF772FEC9
:100CC00006460AE0286840F480202860F0E700BF6C
:100CD000FFF768FE801B642873D828688003F7D567
:100CE0000CE0FFF75FFE064605E000BFFFF75AFE87
:100CF000801B6428F0D828688003F7D420789A4EA7
:100D000080074FF001094FF0000839D5686810F0EE
:100D10000C0F07D06868C0F38100022809D1686809
:100D2000C00306D42868800714D52069012808D19B
:100D300010E02069B0B1C6F80090FFF733FE074617
:100D400005E00AE1FFF72EFEC01B0228C4D8286880
:100D50008007F7D52868616920F0F80040EAC100F3
:100D600028600DE0C6F80080FFF71CFE074604E08F
:100D7000FFF718FEC01B022823D828688007F7D485
:100D8000207800072CD57948A169D9B1C0F8009026
:100D9000FFF708FE074604E0FFF704FEC01B022829
:100DA0000FD8686A8007F7D571484FF4FA51006888
:100DB000B0FBF1F0009000BF0098411E0091FAD204
:100DC0000EE080E0C0F80080FFF7ECFD074604E08D
:100DD000FFF7E8FDC01B022875D8686A8007F7D4C2
:100DE0002078400760D5E8690027C00008D4E8698A
:100DF00040F08050E861E869012700F080500090E1
:100E00005C480168C90513D40168834641F48071C8
:100E10000160FFF7C7FD824606E000BFFFF7C2FD95
:100E2000A0EB0A0064284ED8DBF80000C005F5D519
:100E3000E06801280AD008B1052813D0286A20F0FC
:100E400001002862286A20F0040002E0286A40F0CD
:100E500001002862E06841F2883B98B1FFF7A2FDEB
:100E600082460BE0286A40F004002862EEE700BFEB
:100E7000FFF798FDA0EB0A0159455AD8286A800768
:100E8000F6D50CE0FFF78EFD824605E0FFF78AFD00
:100E9000A0EB0A0159454CD8286A8007F6D41FB147
:100EA000E86920F08050E861E06988B36968C1F3BF
:100EB0008101022944D00228C6F8608004D0FFF7DF
:100EC00071FD044638E034E0FFF76CFD074604E0AE
:100ED000FFF768FDC01B02282BD828688001F7D4D3
:100EE000206AB0F5803F05D16868A16820F4003021
:100EF00008436860D4E908010843696821F4741163
:100F000008436860C6F86090FFF74CFD044606E0B1
:100F100025E000BFFFF746FD001B022809D828681E
:100F20008001F7D51BE000BFFFF73CFD001B022846
:100F300002D90320BDE8F88F28688001F4D40EE0C0
:100F40000128F7D06868226A00F48031914204D108
:100F5000616A00F47010884201D00120EAE70020A5
:100F6000E8E70000001002400000424280044242D4
:100F70002400002000700040704790F85100704736
:100F800038B50446006842688168C9434B0606D5F7
:100F9000CB0704D1D3435B0601D4216C05E08B075A
:100FA00008D4D3431B0605D4616C01B02046BDE8CC
:100FB000304008478B0601D54B0646D4D3439B06E9
:100FC00043D44B060AD494F85130032B3ED0636DC2
:100FD00043F004036365C36883680093890609D4FA
:100FE000616D41F00101616581680091016821F046
:100FF00040010160606D002827D02068416821F021
:10100000E0014160012084F85100900722D020685F
:10101000416821F003014160104DE06C40B145632F
:10102000E06CFFF755FB18B1606D40F04000606563
:10103000A06C002809D04563A06CFFF749FB00288D
:1010400003D0606D40F04000606538BDC1688068C5
:10105000009038BD2046FFF78FFF38BDB122000851
:1010600070B5040009D0606A002540B12561656152
:10107000A56294F8510040B10CE0012070BD606899
:10108000B0F5827FF4D0E561F2E784F85050204655
:1010900000F040F8022084F851002068016821F037
:1010A00040010160A088218900F4827001F40441AC
:1010B0000843A18901F400610843217C01F0020189
:1010C0000843217D01F001010843218B01F40071E7
:1010D0000843217F01F03801084394F8201001F003
:1010E00080010843218D01F4005108432168086004
:1010F000A069042101EA1040216848602068C169A4
:1011000021F40061C1616565012084F8510000206F
:1011100070BD000030B585B00024009401940294A5
:1011200003940068184988422BD11848816941F41A
:1011300080518161816901F480510491816941F09C
:10114000040181618069124D00F004000490A02028
:101150000090022001900320039069462846FFF783
:1011600023FB4020CDE90004694628460294FFF79E
:101170001BFB002201212320FFF780FC2320FFF727
:101180006FFC05B030BD000000300140001002408F
:10119000000801402DE9F84F044690F851001D4623
:1011A00016460F46012838D160684FF00408B0F5A4
:1011B000827F01D1A06830B3FFF7F4FB8246002F95
:1011C00075D0002E73D094F85000012825D04FF030
:1011D000010984F8509084F851804FF00008C4F859
:1011E0005480A763A687E687C4F83080A4F83480CB
:1011F000A4F83680C4F84080C4F84480A068B0F5F4
:10120000004F0CD015E084F85180009313460A4635
:10121000204600F01CF9BDE8F88F0220FBE72068AB
:10122000016821F0400101602068016821F48041DB
:10123000016020680168490603D4016841F040015B
:101240000160E068C0B134E020688168C90709D056
:10125000007BA16B0870A06B401CA063E08F401E58
:10126000E08709E0FFF79EFBA0EB0A00A84202D34B
:10127000681C01D032E085B3E08F0028E4D11BE088
:1012800020688168C90709D0C068A16B0880A06B7D
:10129000801CA063E08F401EE0870AE0FFF782FB1E
:1012A000A0EB0A00A84203D3681C02D016E012E0AB
:1012B0009DB1E08F0028E3D152462946204600F038
:1012C000FFFF08B12020606584F8519084F85080B9
:1012D000606D00289FD001209DE7FFE784F85190C2
:1012E00084F85080032096E72DE9F84F984616467B
:1012F0008A460446FFF756FB814694F851000128C0
:101300001ED1BAF1000F73D0002E71D094F85000A6
:10131000012815D0012784F85070032084F851006B
:1013200000256565C4F830A0A686E686A563A58776
:10133000E58765642564A068B0F5004F03D00CE034
:101340000220BDE8F88F2068016821F040010160AB
:101350002068016841F48041016020680168490605
:1013600003D4016841F040010160E068B0F5006F0E
:10137000606803D048B3012E27D047E008B1012EA2
:101380001FD1206B21680088C86006E02068816852
:10139000890709D5216B0988C160206B801C2063F7
:1013A000E08E401EE0860CE0FFF7FCFAA0EB09019E
:1013B000414503D3B8F1FF3F03D035E0B8F1000F4A
:1013C00032D0E08E0028E1D123E0206B2168007844
:1013D000087306E02068816889070AD5216B0978BF
:1013E0000173206B401C2063E08E401EE0860DE000
:1013F0002BE0FFF7D7FAA0EB0901414503D3B8F181
:10140000FF3F03D010E0B8F1000F0DD0E08E0028B0
:10141000E0D14A464146204600F080FF08B1202036
:101420006065A06830B109E084F8517084F85050CC
:10143000032086E72068C1688068009084F85170B6
:1014400004F8505F60680028F3D0012079E72DE9A7
:10145000FF4F81B01D46934604464FF001090E9E92
:10146000FFF7A0FA074694F851006168012806D0FA
:10147000B1F5827F3CD1A168C9BB042838D102985C
:10148000002871D0BBF1000FFBD0002DF9D094F8EB
:10149000500001282CD04FF0010A84F850A094F895
:1014A0005100042802D0052084F851004FF00008B4
:1014B000C4F85480C4F838B0E587A5870299216341
:1014C000E586A586C4F84080C4F844802068016899
:1014D000490603D4016841F040010160E068B0F5BD
:1014E000006F606808D0F0B3012D49D081E0FFE7BC
:1014F000022005B0BDE8F08F08B1012D39D1206B75
:1015000021680088C860206B801C2063E08E401E2C
:10151000E0862EE02068816889070FD5E18E69B1E9
:10152000B9F1010F0AD1216B0988C160206B801CC1
:101530002063E08E401EE0864FF00009206881683D
:10154000C9070CD0E18F51B1C068A16B0880A06BB6
:10155000801CA063E08F401EE0874FF00109FFF779
:1015600021FAC01B01E00BE067E0B04201D3701C20
:1015700050D1E08E0028CDD1E08F0028CAD13EE0C6
:10158000206B216800780873206B401C2063E08E7C
:10159000401EE0862DE02068816889070FD5E18E26
:1015A00069B1B9F1010F0AD1216B09780173206B80
:1015B000401C2063E08E401EE0864FF0000920684A
:1015C0008168C9070CD0E18F51B1C068A16B087068
:1015D000A06B401CA063E08F401EE0874FF0010924
:1015E000FFF7E0F9C01BB04202D3701C01D011E03C
:1015F00086B1E08E0028CED1E08F0028CBD13A46CC
:101600003146204600F08AFE50B12020606584F803
:10161000508012E084F851A084F85080032068E7DD
:10162000A06818B92068C1688068009084F851A04B
:1016300084F85080606D0028F1D0012059E710B582
:10164000401EB0F1807F01D3012010BD4FF0E02497
:1016500060610F21601700F0A3FF0020A061072048
:101660002061002010BD70477047000070B590F8F1
:101670003C20012A26D0012480F83C40022280F838
:101680003D2003685A689D6822F070060A6832435C
:101690005A600D4B02689A4208D0B2F1804F05D0D3
:1016A0000A4B9A4202D00A4B9A4204D1496825F06B
:1016B00080031943916080F83D40002180F83C1080
:1016C000084670BD022070BD002C0140000400409F
:1016D0000008004090F83D10012901D0012070471A
:1016E000022180F83D100168CA6842F00102CA6018
:1016F00000680B49884208D0B0F1804F05D00949F5
:10170000884202D00849884204D1816801F007016B
:10171000062903D0016841F00101016000207047F3
:10172000002C0140000400400008004070B5054650
:101730000068284988424BD1287F012848D1264C8F
:10174000207890B12078012842D10021284600F06D
:101750004AFAA060286800264662A068616888424C
:1017600014D9A0686168401A1AE00021284600F0E8
:101770003AFA6060012020702868016A21F00A01AD
:1017800001622868016A41F0020120E06068A168F6
:10179000884206D960684FF6FF71081AA1680844AC
:1017A000E060E06801F094F90C4A0D4B01F0A4F9F7
:1017B0004FF0FF3201F0D0FA01F046F96070267068
:1017C0002868016A21F00A0101622868016A016241
:1017D00070BD0000002C0140000000209CC420B01F
:1017E0007268A13F2DE9F041054690F83C000026C3
:1017F0000C46012810D0012085F83C0072B1042A63
:101800001CD0082A2CD00C2A50D00126002085F8A4
:101810003C003046BDE8F0810220FBE7D4E900122D
:10182000E368286800F074FE2868816921F00C01E3
:10183000816128688169A26811430FE0D4E9001230
:10184000E368286800F090FE2868816921F440610F
:10185000816128688169A26841EA02218161D5E736
:101860002868D4E9002C277B036A016A21F480717F
:101870000162C16923F4007321F0030141EA0C0104
:1018800021F0F00C39074FF400774CEA116107EAB8
:1018900002221A43C16102622868C16921F00C0169
:1018A000C1612868C169A26811432BE02868D4E9A6
:1018B0000021E768036AD0F820C02CF4805CC0F8EF
:1018C00020C0D0F81CC023F400532CF4407C4CEA18
:1018D000012121F4704C4FF6FF7101EA07314FF4FA
:1018E000005741EA0C0107EA02321A43C161026261
:1018F0002868C16921F44061C1612868C169A26892
:1019000041EA0221C16181E710B5040003D094F8D7
:101910003D0010B107E0012010BD002084F83C001C
:10192000204600F01FF8022084F83D00211D2068A9
:1019300000F0A4FD012084F8460084F83E0084F8FD
:101940003F0084F8400084F8410084F8420084F8A5
:10195000430084F8440084F8450084F83D000020EA
:1019600010BD000000B585B00021009101910291E9
:1019700003910068124988421FD11248816941F4DD
:1019800000618161816901F400610491816941F024
:10199000040181618069694600F0040004904FF4FD
:1019A000807000900848FEF7FFFE002211461B20C1
:1019B000FFF764F81B20FFF753F805B000BD0000E7
:1019C000002C0140001002400008014030B50446E0
:1019D000002551B104290DD0082910D094F84100F8
:1019E00094F84520012811D10EE094F83E0094F8B7
:1019F0004220F7E794F83F0094F84320F2E794F888
:101A0000400094F84420EDE7012A01D0012030BDC8
:101A1000022059B1042912D0082919D084F84100B4
:101A200084F845000C2938D0012534E084F83E00C4
:101A300084F842002068C26842F0020210E084F894
:101A40003F0084F843002068C26842F0040207E0C7
:101A500084F8400084F844002068C26842F008021C
:101A6000C2600122206800F045FD0E4920688842CE
:101A700008D0B0F1804F05D00B49884202D00B4905
:101A8000884204D1816801F00701062903D001686A
:101A900041F001010160284630BD2068C26842F073
:101AA0001002DDE7002C0140000400400008004067
:101AB0002DE9F04104460068C66805694FF000074B
:101AC000A90713D5B10711D5F91E016101202077AF
:101AD000206880698007204602D0FFF727FE04E0D7
:101AE00000F07EF8204600F07CF82777680716D5CE
:101AF000700714D521686FF0040008610220207778
:101B00002068806910F4407F204602D0FFF70EFE67
:101B100004E000F065F8204600F063F82777280716
:101B200015D5300713D521686FF00800086104202F
:101B300020772068C0698007204602D0FFF7F6FDB5
:101B400004E000F04DF8204600F04BF82777E80657
:101B500016D5F00614D521686FF010000861082032
:101B600020772068C06910F4407F204602D0FFF73C
:101B7000DDFD04E000F034F8204600F032F827776D
:101B8000E80708D0F00706D021686FF0010008616F
:101B9000204600F027F8280608D5300606D521682B
:101BA0006FF0800008612046FFF75DFD680608D5EC
:101BB000700606D521686FF040000861204600F0ED
:101BC00027F8A8060AD5B00608D521686FF02000CE
:101BD00008612046BDE8F041FFF746BDBDE8F08151
:101BE0007047704770470246002041B1042909D070
:101BF00008290AD00C2901D11068006C70471068C0
:101C0000406B70471068806B70471068C06B7047FE
:101C10007047000070B50E49002008700D490A6831
:101C200050620868C16841F00201C16001220A4D9A
:101C3000540221462846FEF7AFFE0A2000F0DAFCE7
:101C400021462846BDE870400022FEF7A5BE0000F0
:101C5000000000208000002000080140FEE7F8B5E9
:101C6000044641F080008DF8000017461E46A1880A
:101C700000222068FEF790FE4FF4FA652B46012201
:101C80006946A069FFF730FBA069FFF776F90128E4
:101C9000FAD12B4632463946A069FFF725FBA069E9
:101CA000FFF76BF90128FAD1A18801222068FEF71D
:101CB00073FEF8BD70B50C460546012100F0AAF888
:101CC000024644B1012C0BD0032C0FD0052C13D0AD
:101CD000062C17D01BE0002002F0F802E86116E0A5
:101CE000012002F0F802521CE86110E0032002F02B
:101CF000F802D21CE8610AE0052002F0F802521D49
:101D0000E86104E0062002F0F802921DE86128462E
:101D1000BDE87040012100F0AFB938B5044600219C
:101D2000FFF7C8FF0A20FEF71FFD0121204600F043
:101D300071F88DF800000A20FEF716FD9DF80000EE
:101D4000012140F08002204600F096F96420FEF761
:101D50000BFD2046216A00F0BFF894F82A102046B7
:101D600000F00EF994F82B10204600F0EAF8232238
:101D70000C21204600F080F9204600F02BF994F861
:101D80002410204600F006F9FF221F21204600F013
:101D900073F994F8250094F82610000100EB410037
:101DA000C2B21D21204600F067F9204600F06EF80F
:101DB000208D2021020A204600F05EF994F82820A8
:101DC0002121204600F058F94021204600F022F859
:101DD0008DF800009DF80000402140F03F022046B1
:101DE00000F04AF901212046FFF764FF0120E0617D
:101DF0000A20FEF7B9FC4221204600F00BF88DF8CE
:101E000000009DF80000122802D04FF4CA7038BDBF
:101E1000C82038BD0EB501F07F018DF808100121F2
:101E20000A46009101AB02A900F003F89DF80400F6
:101E30000EBD2DE9F0470E461546044681889846AA
:101E4000DDF8209000680022FEF7A6FD4FF4FA6747
:101E50003B462A463146A069FFF746FAA069FFF7DC
:101E60008CF80128FAD13B464A464146A069FFF763
:101E700091F9A069FFF781F80128FAD1A1882068BB
:101E8000BDE8F0470122FEF787BD000010B594B011
:101E9000044650220F496846FEF7B3FA94F824101E
:101EA0000120884000F0FDFD94F825206B4603EBEF
:101EB000C203D3E9002300F03FFC00F095FD102899
:101EC00001DD012100E00021204600F025F814B0DA
:101ED00010BD0000082E000870B50546C804441166
:101EE000C4F307420621284600F0C6F80520FEF795
:101EF0003BFCC4F307220721284600F0BDF805206B
:101F0000FEF732FCE2B20821284600F0B5F8BDE841
:101F100070400520FEF728BC70B50C46054626210A
:101F2000FFF778FF14B140F0080201E000F0F7027B
:101F30002621284600F0A0F8BDE870400A20FEF7F0
:101F400013BC10B52D2901D22D2105E0F02901D9AE
:101F5000F02106E0782904D805222D3991FBF2F111
:101F600003E00A221E31B1FBF2F1C9B22031CAB23C
:101F70000B2100F081F8BDE810400A20FEF7F4BB09
:101F800010B50A46092100F077F8BDE810400A2094
:101F9000FEF7EABB70B50C4606460C2901DD0C24A1
:101FA00002E0072C00DA07241E21FFF733FF054665
:101FB0000A20FEF7D9FB64F31F15EAB21E21304652
:101FC00000F05AF80A20FEF7CFFB3046BDE870401B
:101FD000FFF75CBF10B504461E21FFF71BFF40F062
:101FE00007021E21204600F047F8BDE810400A20F5
:101FF000FEF7BABB2DE9F0410F461C461646804657
:102000000121C569FFF756FE0E214046FFF702FF8A
:1020100002460D21404600F02FF83246222140466C
:1020200000F02AF833463A4600214046FFF717FEF3
:1020300003214046FFF73EFE12214046FFF7EAFE2D
:1020400000070BD5FF221221404600F015F8294663
:102050004046FFF72FFE0120BDE8F081641E2404F6
:10206000240C03D00120FEF77FFBE5E7294640461C
:10207000FFF720FE0020EFE70EB541F080018DF85C
:10208000081001218DF804200A46009101AB02A935
:1020900000F001F80EBD2DE9F0470E461546044646
:1020A00081889846DDF8209000680022FEF774FCD5
:1020B0004FF4FA673B462A463146A069FFF714F908
:1020C000A069FEF75AFF0128FAD13B464A4641462D
:1020D000A069FFF709F9A069FEF74FFF0128FAD1BF
:1020E000A1882068BDE8F0470122FEF755BC00003A
:1020F0002DE9F04786B000243548009401940294FD
:102100000394816941F010018161816901F010013E
:102110000491816941F020018161816901F0200110
:102120000491816941F004018161816901F0040138
:102130000491816941F0080181618069012200F008
:102140000800DFF890805503049029464046FEF7CA
:1021500023FCDFF88490012203214846FEF71CFC93
:10216000DFF878A02F11002239465046FEF714FC04
:102170000095022601250396CDE9015469464046A3
:10218000FEF712FB0320CDE90005CDE902466946C2
:102190004846FEF709FB00970396CDE901546946CE
:1021A0005046FEF701FBA80200900D48CDE901045E
:1021B00069465046FEF7F8FA002202212820FEF771
:1021C0005DFC2820FEF74CFC06B0BDE8F08700005F
:1021D0000010024000100140000C014000080140C6
:1021E000000011100F4810B50D4901604FF48271C5
:1021F000416000218160C1604FF400720161C0E95B
:1022000005122822C0E90721416281620A21C162C8
:10221000FEF726FF002801D072B6FEE710BD0000D1
:10222000003001402800002010B586B000241A4874
:102230000594049400940194029416490394016057
:102240004721C0E901144FF6FE71C0E9031444614F
:102250008461FFF759FB08B172B6FEE7049404A944
:102260000D480594FFF702FA08B172B6FEE70120A7
:10227000CDE9004002940022694607480394FFF725
:10228000B1FA08B172B6FEE70348FFF723FA06B0C9
:1022900010BD0000002C014080000020FEE7FEE79A
:1022A000704700000148FEF76BBE000028000020C8
:1022B00010B5406A0021C187C186FEF75DFE10BDE2
:1022C000F8B5044640684FF48273984217D1A0686D
:1022D0004FF48065B0F5004F01D0A8420FD12068BF
:1022E000066826F0400606606068984207D1A0683C
:1022F000A84204D100920B460022012103E0009283
:102300000B4600228021204600F022F8002804D04D
:10231000606D40F0200060650320F8BDF8B51546FB
:102320000E460B46009204460122022100F010F8EE
:1023300040B93346002280212046009500F008F87D
:10234000002804D0606D40F0200060650320F8BDD7
:102350002DE9F8431E46914688460446089DFEF73F
:1023600021FB401B351AFEF71DFB07462548006878
:10237000C0F3CB30684338E0701C37D0FEF712FB57
:10238000C01BA84203D215B1009860B32CE02068AE
:10239000416821F0E00141606068B0F5827F0BD1B7
:1023A000A068B0F5004F02D0B0F5806F04D120686E
:1023B000016821F040010160A06AB0F5005F09D119
:1023C0002068016821F4005101602068016841F42F
:1023D00000510160012084F85100002084F8500071
:1023E0000320BDE8F8830025401E00902068816826
:1023F00038EA010004D000214945BDD10020F0E7B2
:102400000121F9E7240000207047FEF7D1BA30B56A
:102410008FB028216846FEF726F814210AA8FEF797
:1024200022F801210804CDE90010002402940225BD
:102430000491CDE907504FF4E01009906846FEF78B
:102440000BFC08B172B6FEE70F20CDE90A054FF488
:102450008060CDE90C4002210AA80E94FEF740FBF3
:10246000002801D072B6FEE70FB030BD7047000003
:102470000148FFF71DBB000080000020F0B5026896
:10248000194B1A4C1A4D4FF08047984205D0B8426C
:1024900003D0A04201D0A84203D122F070064A68BE
:1024A0003243984205D0B84203D0A04201D0A8429E
:1024B00003D122F44074CA6822434C6922F080029E
:1024C000224302608A68C2620A688262984201D12D
:1024D00009690163012141610169C90703D00169EB
:1024E00021F001010161F0BD002C01400004004019
:1024F0000008004010B501F01F030121046A994053
:102500008C430462016A9A401143016210BD0000CD
:1025100070B5056A046A24F00104046284690F4EF0
:10252000B04208D0B0F1804F05D00D4EB04202D07D
:102530000C4EB04203D124F00304144301E044F0F4
:1025400001041A0724F0F00444EA126225F00A0399
:1025500001F00A0119438261016270BD002C014043
:10256000000400400008004030B5046A056A25F008
:1025700010050562856925F4407545EA022222F4BA
:1025800070454FF6FF7202EA033224F0A0032A439B
:10259000A02404EA011119438261016230BDFEE703
:1025A0000907090E002804DB00F1E02080F8001480
:1025B000704700F00F0000F1E02080F8141D704714
:1025C00030380A2801D201207047002070470000EF
:1025D00030B5074900234FF47A7405E00A68536266
:1025E0000A68556AA542FCD3401E80B2F6D230BDBF
:1025F00080000020044900220B685A6209684A6A78
:102600008242FCD370470000800000208CB0FEF7AF
:10261000D7F9684600F06CF82C2269462F48FDF780
:10262000F0FE2E4C2E48012501C424F8085B44F826
:10263000040C022020802B48606000152081274870
:10264000A038E060FFF7E3FE4FF4DC706061072024
:10265000207604206076A576FF20A0778220E077A0
:102660000920A083FFF744FDFFF7BCFDFFF7DCFD69
:102670001A4800214838FFF7A9F91848FFF74DFB21
:102680006D03194EC82826D0012229463046FEF790
:1026900083F9164C4FF4FA674FF4FA78FFF7BAFA59
:1026A000607820616169FDF7BBFF20690028F5DDD6
:1026B0000A482C30FDF77AFE0849C2B23B462C315D
:1026C0000648FFF797FC29463046FEF75DF940467D
:1026D000FFF77EFFE2E70022D7E70000C8000020F6
:1026E000000C0140000801400010014000000020E3
:1026F00000B58BB040F2B111089107218DF824107C
:102700008DF8251001218DF82610FF218DF82A1053
:1027100064218DF82B100821ADF828102C22694671
:10272000FDF76FFE0BB000BD02494FF0000000F056
:10273000E1BA00BF0000F87F2DE9C04130B4DFF8F6
:10274000A0C23CEA111418BF3CEA131400F0EC805C
:1027500081EA03051CEA111444EAD57418BF1CEA87
:10276000131500F0C780A4EB05044FF0004545EABF
:10277000C12145EAC32341EA505143EA525304F1CF
:102780007F74994204F500344FEAC0204FEAC22218
:1027900008BF904200F09C804FEA13650FF240168C
:1027A000765D4FEA134506FB05F7C7F1807706FB18
:1027B00007F74FEAD737A7FB03687642C8F580389A
:1027C000A7FB06CE38BFA8F1010807FB08E64FF0CB
:1027D000000EA6FB028CE6FB03CEDCF1000CCEF172
:1027E000004E38BFAEF1010EA6FB0C584FF00007AB
:1027F0004FF00005E6FB0E87A1FB08C6A0FB07CE45
:1028000016EB0E0645F10005E1FB076515F1E04EFC
:102810007EBFA4F580345FEA46066D4116F180075D
:1028200045F100054FEA17274FEA066647EA0567B4
:10283000A6F1DE46B6F1805F4FEA15251FD938466E
:1028400024F0010C05EBC471BCF1FE6F01EB0C111F
:1028500002D8F0BCBDE8008124425CBF01F5801EB7
:102860009EEAC47F02D4F0BCBDE80081244238D483
:10287000F0BCA1F1C041BDE8004100F035BA4FEA1B
:10288000D22242EA43524FEAD323A7FB02864FEA01
:10289000D02040EA415007FB03661EEA0E0F4FEAC4
:1028A000D12105FB026658BFA6EB0056B6EB0056D9
:1028B0004FEA520E4EEAC37E18EB0E0E56EB530E45
:1028C000BDD518EB02085E417F1C55F10005B6E747
:1028D0004FF480154FF000074FF000064FF000084E
:1028E000ADE7F0BC4FF0000001F1C04101F0004144
:1028F000BDE8008111EA0C1F0CEA131500D00CE0B2
:1029000013EA0C1F00F025804FF00000F0BC81EAB4
:10291000030101F00041BDE80081F0BCBDE80041C9
:1029200081EA030100F0E0B9F0BCBDE8004170B5F8
:1029300000F08CF9097EFC3E00F007B881EA030143
:102940004FF0000001F00041704781EA030100F000
:10295000CBB9F0BCBDE800414FF000002149704701
:10296000FFFDFBF9F7F5F4F2F0EEEDEBE9E8E6E454
:10297000E3E1E0DEDDDBDAD8D7D5D4D3D1D0CFCDDB
:10298000CCCBCAC8C7C6C5C4C2C1C0BFBEBDBCBB14
:10299000BAB9B8B7B6B5B4B3B2B1B0AFAEADACAB0F
:1029A000AAA9A8A8A7A6A5A4A3A3A2A1A09F9F9EE9
:1029B0009D9C9C9B9A99999897979695959493939B
:1029C000929191908F8F8E8E8D8C8C8B8B8A898932
:1029D00088888787868585848483838282818180B5
:1029E0000000FF070000F87F4FEA41034FEA53530E
:1029F000A3F58063D3F11E03C8BFD3F1210C0CDD16
:102A00004FF0004242EAC12242EA505232FA03FC3D
:102A10008CEAE17CACEBE1707047102BC4BF002066
:102A2000704703F5787CBCF1FF3F04D06FF00042A3
:102A300082EA2100704770B500F008F949922480BD
:102A400000207047F2E700004FEA1153A3F58063BE
:102A5000D3F11E03A8BFD3F1200C08DB4FF00042D6
:102A600042EAC12252EA505232FA03F07047094258
:102A70000BD4102BC4BF0020704703F5787CBCF149
:102A8000FF3F05D04FF0FF3070474FF00000704718
:102A900070B500F0DBF800BF499224800020704739
:102AA000F0E710F0004248BF4042B0FA80F310FA5D
:102AB00003F10AD0C3F11D0303F580634FEA4150CF
:102AC00002EB035202EBD12170474FF00000704738
:102AD000B0FA80F310FA03F10AD0C3F11D0303F535
:102AE00080634FEA41504FEA035202EBD121704715
:102AF0004FF0000070470000DFF848C170B51CEAD5
:102B0000111E1EBF1CEA13159EEA0C0F95EA0C0F4E
:102B100000F06F8081EA030423EA4C134EEAD47E6E
:102B200021EA4C1141F4801143F48013AE44A1FB1F
:102B3000024CA0FB0365AEF17F7E361955EB0C0508
:102B4000A1FB034C4CF10003A0FB021C16EB0C068E
:102B5000654153F10003094218BF46F0010613F422
:102B6000007F0BD14FEA03314FEA0530340341EACD
:102B7000155140EA16506FF003020AE04FEAC321F4
:102B80004FEAC520F40241EA555140EA56506FF031
:102B9000020202EB2E4201EB025585EACE710AD009
:102BA0005FEA440C18BF24F0004450F1000041F1EA
:102BB000000120EAD47040F2FE7C624500D270BD74
:102BC000A84214BF4FF080444FF04044002E08BF8D
:102BD0000024BEF1806FA8BFA1F1C041BDE87040E4
:102BE00080F282804FF0000001F1C04101F000410D
:102BF00070479EEA0C0F0CEA131518BF95EA0C0FEC
:102C000006D04FF0000081EA030E0EF0004170BDC7
:102C100000F01CF88900013E00F007B800F009B888
:102C20004FEA430C5FEA5C5C08D081EA030100F0E4
:102C30005BB84FEA410C5FEA5C5CF6D14FF00000F4
:102C4000014970470000FF070000F87F0EF1020EF7
:102C50002EF0030E5EF8046B364205D4012A43EBD6
:102C6000030515F5001F12D8012841EB010C1CF5D6
:102C7000001F0CD80ED14FEAD17C15F5001F0CEBCC
:102C80004C0C0CF1020C08BF4CEBD37C04E04FF071
:102C9000080C01E04FEAD37C0CEB4C0526FA05F654
:102CA00006F00706B6F1040C06D20EEB860CBDE862
:102CB00070404CF0010C6047DFE80CF0090B020299
:102CC0004FF000414FF00000A1F5002170BD194602
:102CD0001046012851EB010418BFD4F5001484BF3D
:102CE000002001F0004170BD0808A0F500114FEA76
:102CF000310170470CF00F03092B08BF082000F0CA
:102D000059800A2B0BD0082B18BF704708BF1CF046
:102D1000400F0AD04FF000004FF0000170471CF048
:102D2000400F18BF4FF0004070471CF0100F08D044
:102D300020F0704300F07F4242EAD3014FEA437033
:102D4000704700F0604021F07F4242EA000201F04B
:102D50007F4040EA727070474FF0FF0C4CF4E06C1B
:102D60001CEA11531CBF9CEA030C9445C2BFDA4213
:102D700001EB02517047002B0DD0BCF1000F0FD0BA
:102D8000002A01F00041A4BF41F0E04141F07F6121
:102D90004FF00000704701F000414FF00000704715
:102DA00050EA01334FF09B0C18BF4CF0806C7FF45D
:102DB000BBAC70471CF4801F11D01CF4E02F03D073
:102DC0006FEACC31490070474FF04050EFF300827A
:102DD00022F0704242EA000282F3008870474FF00E
:102DE00000007047010202030405060708090A0BE8
:102DF0000C0D0E0F1010000000000000000001027A
:102E000003040607080900003333333333331F400C
:102E1000CDCCCCCCCCCC24403333333333332F40E4
:102E2000CDCCCCCCCCCC34400000000000403F40A6
:102E30009A99999999D944400000000000404F4068
:102E40000000000000405F400000000000406F40B4
:102E50000000000000407F40040000080000000067
:102E60000000000200010000100000008C2E00088D
:102E7000000000202800000028010008B42E0008EF
:102E8000280000205808000044010008000000004D
:102E90000000000000000000000000000000000032
:102EA000020000000100000010000000000000000F
:042EB00000127A0092
:04000005080000ED02
:00000001FF
