:020000040800F2
:10000000700800208901000839470008B134000851
:100010003547000845020008A94900080000000013
:100020000000000000000000000000007948000807
:1000300019060008000000003D4700087D48000840
:10004000A3010008A3010008A3010008A301000800
:10005000A3010008A3010008A3010008A3010008F0
:10006000A3010008A3010008A3010008A3010008E0
:10007000A3010008A3010008A3010008A3010008D0
:10008000A3010008A3010008A3010008A3010008C0
:10009000A3010008A3010008A3010008A3010008B0
:1000A000A3010008A3010008A30100088548000877
:1000B000A3010008A3010008A3010008C13400083F
:1000C000B5340008A3010008A30100084147000857
:1000D000A30100089D490008A3010008A30100082E
:1000E0001D060008A3010008A301000800F002F8A3
:1000F00000F03AF80AA090E8000C82448344AAF188
:100100000107DA4501D100F02FF8AFF2090EBAE885
:100110000F0013F0010F18BFFB1A43F0010318473B
:10012000A4510000C4510000103A24BF78C878C11F
:10013000FAD8520724BF30C830C144BF04680C60ED
:10014000704700000023002400250026103A28BF35
:1001500078C1FBD8520728BF30C148BF0B60704739
:100160001FB51FBD10B510BD00F037F81146FFF7E1
:10017000F7FF04F01BFC00F055F803B4FFF7F2FFA3
:1001800003BC00F059F800000948804709480047BF
:10019000FEE7FEE7FEE7FEE7FEE7FEE7FEE7FEE737
:1001A000FEE7FEE704480549054A064B7047000094
:1001B00081480008ED00000870020020700800204F
:1001C00070040020700400207047704770470000E2
:1001D000004870471000002070477546FFF7F8FF91
:1001E000AE4605006946534620F00700854618B024
:1001F00020B5FFF7D7FFBDE820404FF000064FF0D5
:1002000000074FF000084FF0000BAC46ACE8C00907
:10021000ACE8C009ACE8C009ACE8C00921F00701AE
:100220008D46704710B50446AFF300802046BDE808
:100230001040FFF7A2BF000001491820ABBEFEE747
:1002400026000200FEE700002DE9F04182B00446DE
:1002500008982160A07140F60640C2F61400C4F868
:1002600007000820E07232202271637100F05CFA0E
:10027000E07A3825002808BF30252E1D01203827B8
:100280008DF8046000F050FA01208DF805508DF8CB
:10029000066000F049FA206821794FF47A7801AAC3
:1002A00004238DF80750CDF8008001F045F8E07A7E
:1002B0003826002808BF3026351D01208DF804504F
:1002C00000F032FA01208DF805608DF8065000F03C
:1002D0002BFA2068217901AA04238DF80760CDF854
:1002E000008001F029F8052000F01EFAE07A2825A8
:1002F000002808BF302707F1040008BF20258DF82B
:1003000004000120282600F00FFA281D8DF80600B1
:1003100001208DF8057000F007FA2068217901AA04
:1003200004238DF80750CDF8008001F005F8052072
:1003300000F0FAF9E07A2825002818BF012008BF4C
:100340002025C700281D8DF80400012000F0ECF9DD
:10035000381D8DF8060001208DF8055000F0E4F9F5
:100360002068217901AA04238DF80770CDF8008058
:1003700000F0E2FF052000F0D7F9E079E27A010110
:1003800020F00F0501F10807002A14BF0835070106
:10039000281D8DF80400012000F0C6F9381D8DF8E5
:1003A000060001208DF8055000F0BEF92068217983
:1003B00001AA04238DF80770CDF8008000F0BCFF7F
:1003C000207AE27A010120F00F0501F10807002AE6
:1003D00014BF08350701281D8DF80400012000F026
:1003E000A3F9381D8DF8060001208DF8055000F0A6
:1003F0009BF92068217901AA04238DF80770CDF8B4
:10040000008000F099FF607AE27A010120F00F0588
:1004100001F10807002A14BF08350701281D8DF8CF
:100420000400012000F080F9381D8DF8060001203D
:100430008DF8055000F078F92068217901AA04238D
:100440008DF80770CDF8008000F076FFA07AE27A90
:10045000010120F00F0501F10807002A14BF08353B
:100460000701281D8DF80400012000F05DF9381DFA
:100470008DF8060001208DF8055000F055F9206830
:10048000217901AA04238DF80770CDF8008000F0CF
:1004900053FFE07A1827002818BF01204FEAC00553
:1004A00005F1040008BF10278DF80400012000F0BA
:1004B0003BF9381D8DF8060001208DF8055000F03D
:1004C00033F92068217901AA04238DF80770CDF84B
:1004D000008000F031FFE07A00280CBF20260120C8
:1004E000C500281D8DF80400012000F01DF9301D05
:1004F0008DF8060001208DF8055000F015F92068F0
:10050000217901AA04238DF80760CDF8008000F05E
:1005100013FF02B0BDE8F08170B582B004464079A7
:10052000A379884298BF411E934298BF5A1ED0B209
:10053000032805D8DFE800F009020608403104E08E
:10054000002102E0143100E054310A01E37A01F0A5
:10055000700002F108056FF07702002B08BF6FF002
:100560007F0202EB000606F1040008BF0D018DF8C2
:100570000400012000F0D8F8281D8DF806000120A5
:100580008DF8056000F0D0F8206821794FF47A7674
:1005900001AA04238DF80750009600F0CDFE02B0AA
:1005A00070BD00002DE9F04782B00A788AB3824618
:1005B0004E1E4FF47A780DF1040900BF11019AF82C
:1005C0000B3022F00F0001F10807002B14BF083098
:1005D0001701451C05308DF8040001207C1C00F03B
:1005E000A3F8781D8DF8060001208DF8055000F065
:1005F0009BF8DAF800009AF804104A4604238DF8B4
:100600000740CDF8008000F097FEB2780136002A4E
:10061000D4D102B0BDE8F087704700004FF480608D
:1006200000F0BCB8014690F82100022816D10868F5
:10063000D1E90FC3026822F00E020260026822F0C4
:1006400001020260012000FA03F2CCF8042081F8D4
:1006500021000020002281F82020704704208863B8
:100660000120002281F820207047000080B590F81A
:100670002110022924D10268116821F00E011160B5
:100680002F211368C4F202018A4240F20401C4F22D
:10069000020123F00103136016DD3023C4F20203CC
:1006A0009A421DD04423C4F202039A421CD058231C
:1006B000C4F202039A421DD14FF4803322E000BFFE
:1006C00004218163012080BD0823C4F202039A4201
:1006D0000ED01C23C4F202039A420BD1102311E066
:1006E0004FF480730EE000BF4FF480530AE000BF68
:1006F000012307E001F1680C4FF08073624508BFE9
:100700004FF480130B60012180F82110426B00210F
:1007100080F820100AB190470021084680BD0000F3
:1007200090F8210070470000B0B5044600F05EF973
:10073000054640F20000C2F200000078611C18BFBC
:10074000044400BF00F052F9401BA042FAD3B0BDF0
:10075000B0B540F27005B0F5806FC2F2000517D158
:1007600040F2E814C2F2000405F1100021467F2295
:1007700003F03EFE2870287810B12878002121541B
:1007800041F20000C4F201004FF4005100F020F9E2
:1007900005F11000BDE8B04003F07CBF40F2144109
:1007A000C4F201010A68024214BF08607047FFF7F3
:1007B000CFBF00002DE9F04F82B00E68002E00F090
:1007C000038141F20042C4F20102042340F2004ED0
:1007D000904208BF03234FF6FF7CC4F2010E009342
:1007E00000240123C1F2100C4FF0000A4FF0000961
:1007F00049E000BF012704F00C030F229A402BEAC6
:10080000020207FA03F34FEA9A051A4346F8252035
:10081000D1F804B040F20C455FEACB22DEF80820A4
:1008200054BF22EA080242EA0802C4F20105CEF8E7
:1008300008202A685FEA8B2354BF22EA080242EAB2
:1008400008022A605FEA8B33DEF8042054BF22EAF4
:10085000080242EA08025FEACB33CEF80420DEF851
:1008600000204FF0010354BF22EA080242EA0802C6
:10087000CEF800200E680AF1010A36FA0AF204F1F5
:10088000040400F0A18003FA0AF816EA080FF1D078
:100890004E68664512DC122E56D8DFE806F0350B9E
:1008A0004549555555555555555555555555554D1C
:1008B000510000BFD1F80C9046E000BF4FF6FF7228
:1008C000C1F2210296420FDC0022C1F211029642CF
:1008D0001AD00022C1F21202964215D00022C1F2B3
:1008E0002102964210D02FE00022C1F2220296424D
:1008F0000AD00022C1F23102964205D00022C1F294
:100900003202964220D100BF8A684AB1012A14BF40
:10091000C0F81480C0F810804FF0080914E000BF40
:100920004FF0040910E000BFCA6802F108090BE0AB
:100930004FF0000908E000BFCA6802F1040903E0B3
:10094000CA6802F10C0900BF22460646BAF1080F38
:1009500024BF203A043637680F25954027EA05055D
:1009600009FA02F22A433260CA79D2067FF582AFD1
:1009700041F21803C4F202031A68AEF57E7642F023
:1009800001021A601A6802F001020192019A2AF02B
:10099000030256F802B040F60002C4F2010290428F
:1009A00010D040F60042C4F2010290423FF422AF60
:1009B00041F20002C4F20102009F904208BF0227E8
:1009C00019E700BF002716E702B0BDE8F08F00006E
:1009D000C26802EA0103914341EA034101617047A1
:1009E000002A08BF090401617047000040F2682036
:1009F000C2F20000006870477047000070470000B6
:100A0000F0B581B00446006800254769426894F853
:100A10003E1002F48076FA0508D53EB16FF480727C
:100A200042610268012542F400420260BA0505D520
:100A3000002E1EBF02356FF4007242617A0516D592
:100A4000AEB1628D94F83D30D4F830C0202908BF93
:100A5000002A23D06FF48062402905F10405426129
:100A600001D0102903D1016841F4007101603805FB
:100A700006D52EB1206808356FF40061416100E0B1
:100A800055B1206C40EA05012046216401B0BDE863
:100A9000F04002F0ADBD00BF01B0F0BD03F0F701C2
:100AA000212909D0282B08BFBCF1210F04D06FF4F5
:100AB000806141610435DAE794F83D10E26AB2F1F1
:100AC000080318BF0123203A18BF0122134208BFB0
:100AD000282921D0212939D10021CFF6FF71E162E7
:100AE00021212163202184F83D10002184F83E104B
:100AF000426822F4E06242606FF480624261026800
:100B000022F4806202604269120648BF01612046F9
:100B100000F050FDABE700BF0021CFF6FF71E162AE
:100B2000416821F4E06141606FF4806141610168D6
:100B300021F48061016000202021206384F83D10B1
:100B400084F83E00204600F0F1FB90E76FF48061EE
:100B500041618CE7F0B581B0076804467868E26AC5
:100B600094F83E3094F83DE0402B01D0102B27D173
:100B7000BE697D69E90751D1B2F12A4F00F0BE820A
:100B8000B2F52A0F00F0BA8200F400724FF0010CA7
:100B900029078CEA522C45D5002A43D0606B616C42
:100BA000C9B2396118B1806A002840F02481A06B75
:100BB000002800F0A382806A002840F01C819DE29A
:100BC000216C00F4007300290CBFBE6900267D690A
:100BD000A90753D5002B51D0206C002818BFBE693F
:100BE00094F83D0000F02800282840F093807868B1
:100BF000002320F480607860012020EA960130060E
:100C00004FF0180058BF0C20225A204684F83C3080
:100C100001B0BDE8F040FFF7F1BE00BF810557D439
:100C20004FF0010CA90759D5BCF1000F56D194F82B
:100C30003E30E06A226B94F83D10222940F0E280B9
:100C4000216D002908BF402B00F0DC80216D0029B8
:100C500040F032812169B1F5404F40F02D810020F4
:100C6000009078690090B86900900098386840F466
:100C700080703860206D013093E200BFE90655D5E1
:100C8000002B53D094F83D50786820F4E0607860F1
:100C90000020009078690090386840F001003860CA
:100CA0000098386820F4806038607868000540F16A
:100CB000408105F0F7002646222840F0198156F8B9
:100CC000380F0168496826F80E1C36F80E1C17E12B
:100CD000E06AB0F52A0F5FD1012062E079687207FF
:100CE00001F4006100F19880002940F00782690654
:100CF00005F0040140F1AE8110F4806000F0AA819B
:100D0000002940F0A781204601B0BDE8F04002F084
:100D1000B1BD00BF0020009079690091B9690091D0
:100D2000009984F83C0001B0F0BD00BF0EF0F7015F
:100D300000F48062212905F0040040F08380290638
:100D400040F14881002A00F04581002840F04281AE
:100D500094F83D00618D002900F0D081616A11F89E
:100D6000012B3A616162618D01396185618D0029D4
:100D700008BF292840F0C2817868282120F48060CB
:100D8000786021202063204684F83D1001B0BDE842
:100D9000F04000F00FBC00BFE06AB0F12A4F01D173
:100DA0000820E06294F83E0040280BD1206D616C71
:100DB000002801F0FE0018BF40F00100386101B0CA
:100DC000F0BD00BF2069B0F5804F65D194F83D00BB
:100DD000616C212801F0FE0118BF01313961606B9F
:100DE00008B1806A38B9A06B002800F08781806A5A
:100DF000002800F08381786840F40060786001B0DA
:100E0000F0BD00BF0020009078690090B8690090A4
:100E1000009801B0F0BD00BF002940F06F812906A5
:100E200005F0040140F1228110F4806000F01E8181
:100E3000002940F01B81204601B0BDE8F04002F0DF
:100E400005BE00BF690640F1D980002A00F0D680B7
:100E5000002840F0D38094F83D00618D002900F017
:100E60004D813969626A1170616A01316162618D17
:100E700001396185618D002908BF2A2840F03E8133
:100E80002068416821F4806141602220282120638C
:100E9000204684F83D10D8E0206D002800F0C08086
:100EA000206D012840F02A81606C062101EAD010F3
:100EB000F130386101B0F0BD618D61B1618D012902
:100EC00040F0E480202818BF082840F019813868D5
:100ED00020F4806038600020009078690090B86944
:100EE00000900098386840F40070386058E100BF06
:100EF00056F8340F0168496826F80A1C36F80A1CAF
:100F000019B1216C41F004012164796821F4006178
:100F10007960FFF705FC01280BD0306843F2CD4122
:100F2000C0F600014163FFF7A1FB10B13068416BCF
:100F30008847608D60B120684169490730D44169B4
:100F400049063AD4608D18B1206C40F0040020644A
:100F5000206C28B1204601B0BDE8F04002F048BB4B
:100F60002A2D07D100202063282084F83D00204648
:100F700000F01EFB94F83D00282859D10020CFF640
:100F8000FF70E06200212020216384F83D002046AC
:100F900084F83E1001B0BDE8F04000F0C7B900BFD2
:100FA0000069616A0870616A206801316162618D5F
:100FB0000139618541694906C4D50069616A0870D3
:100FC000606A01306062608D01386085608D002844
:100FD000BAD1BDE7002818BF002B00F08F80608DCC
:100FE000002800F08B80606A10F8011B3961606294
:100FF000608D0138608501B0F0BD00BF002818BFCA
:10100000002B00F07B80608D002877D03869616A02
:101010000870606A01306062608D013860856DE043
:10102000606C062101EAD010F030386101B0F0BDEB
:10103000206B222818BF222D60D10021202021639F
:1010400084F83D00204684F83E1001B0BDE8F04031
:1010500000F0AEBAB1FA81F0400950EA0C004DD16F
:10106000204601B0BDE8F04002F088BBB1FA81F043
:10107000400950EA0C0041D1BEF1210F36D1204683
:1010800001B0BDE8F04002F09FBC00BF618D0229B5
:1010900014D1102858D8012114228140C0F2010235
:1010A000114251D0396841F48061396000210091CA
:1010B00079690091B9690091009954E0396841F467
:1010C000806139607968090563D5421E1F2A5DD8A1
:1010D0000121914048F28102C8F20002114255D02C
:1010E000786840F48050786053E000BF402B05D111
:1010F000204601B0BDE8F04002F002BD01B0F0BDF5
:1011000010F5803F0CD1386820F480603860786832
:1011100000057FF5E0AE386820F48060386038E084
:10112000122A02D101287FF4D2AE1028F3D801216F
:1011300001FA00F01421C0F201010842EBD0386836
:1011400040F48060386024E0396841F4006139601F
:101150000021009179690091B9690091009939687D
:1011600021F4806139607968090519D5421E1F2A6A
:101170001AD80121914048F28102C8F200021142BE
:1011800012D0786840F48050786009E010F5803F14
:10119000A6D00020009078690090B869009000986F
:1011A0000020206501B0F0BD10F5803FE9D0F7E7E1
:1011B0007047000070B5B8B3044690F83D0028B9F8
:1011C000002084F83C00204600F0A4F9242084F894
:1011D0003D002068016821F001010160016841F4CF
:1011E00000410160016821F40041016000F07CFBD6
:1011F00048F28041C0F21E0140F60013D4F804E02A
:1012000088424FF00001C0F23D0348F2A16C4FF05C
:10121000000238BF01219842C0F2010C38BF012200
:10122000E64538BF0A460AB1012070BD4DF683611C
:10123000C4F21B31A0FB01122168950C4B684FF4DE
:10124000967623F03F0343EA9243754344F6D35620
:101250004B60C1F262060B6AA5FB0656B50923F086
:101260003F03E64538BF950C6A1C1A430A62CA69F7
:1012700048F2A0664CF6FF73C0F20106B64522EABA
:1012800003020BD801384FEA4E03B0FBF3F00130F4
:101290006FF31F30042898BF04201EE0A3680138B4
:1012A00063B119230EFB03F3B0FBF3F001306FF3CE
:1012B0001F3078B100F5804008E000BF0EEB4E0310
:1012C000B0FBF3F001306FF31F3028B100F50040A0
:1012D00003E000BF012000E001201043C86108685E
:1012E000D4E9072320F0C000104318430860886841
:1012F00048F2FF3204F10C0690434CCE18431043E1
:10130000A5698860C86820F0FF0030432843C860A2
:10131000086840F00100086000202021206484F863
:101320003D10206384F83E0070BD0000704700004F
:1013300070470000704700002DE9F04383B01E465F
:10134000174689460446FFF751FB94F83D102029C3
:1013500020D10546206800BF8169890716D5FFF7AF
:1013600045FB411B20681A29F6D381698907F3D50B
:1013700000202021206384F83D1084F83E00216C79
:1013800041F02001216484F83C0003E094F83C1013
:10139000012903D1022003B0BDE8F083012184F8C4
:1013A0003C100168C90703D1016841F001010160E7
:1013B000016840F2020821F400610160212184F8F3
:1013C0003D10102184F83E1000212164676266857B
:1013D000618DC0F201082185A8F10211E162E16A84
:1013E0000A9E11F5803F18BF01291DD1016841F403
:1013F0008071016020464FF00111002233460095B4
:1014000002F03EFC50B120680068C00544BF4FF4B4
:1014100000702064012003B0BDE8F0832069B0F5BE
:10142000804F07D1FE2015E00829DFD0216B12295B
:10143000DCD0DFE7062000EAD9102168F03008612F
:1014400008F10601204632462B4602F003FD002833
:10145000E0D1FF20216800EA0900086120464146EA
:1014600032462B4602F0F6FC0028D3D10020029031
:1014700020684169029180690290029806E000BFED
:10148000204631462A4602F09BFB18BB208D68B3EC
:10149000204631462A4602F04DFDD8B9606A2168DF
:1014A000024612F8013B0B616262628D013A62856D
:1014B000228D531E23854F697F07E1D51B04DFD0A2
:1014C000437802300B616062608D01386085901E48
:1014D0002085D5E7206C04289CD12068016841F460
:1014E00000710160012003B0BDE8F083206801684D
:1014F00041F400710160202084F83D00002084F850
:101500003E0084F83C0003B0BDE8F0837047000063
:101510007047000010B586B0006845F20042C4F282
:10152000000200219042049102D006B010BD00BF1D
:1015300041F21804C4F20204206802A940F0080035
:101540002060206800F00800019001984FF440707E
:101550000290122003900320059040F60040C4F250
:101560000100FFF727F90420C4F2010001680022FE
:1015700041F0E06141F0020101606068002140F447
:1015800000106060606800F40010019001981F2056
:1015900000F08EF81F2000F077F8202000210022B4
:1015A00000F086F8202000F06FF806B010BD0000B3
:1015B000704700007047000040F2000040F26821D0
:1015C000C2F20000C2F2000100780A68104408600C
:1015D0007047000080B542F20000C4F202000168CA
:1015E00041F010010160032000F08EF80F2000F0A0
:1015F00005F800F027F8002080BD000070B540F22B
:101600000006C2F2000640F208013278C2F2000180
:101610004FF47A730968B3FBF2F20446B1FBF2F1BE
:10162000084600F0EDFF0F2C4FF0010508D838B93F
:101630004FF0FF3021460022002500F039F8746099
:10164000284670BD82B041F21800C4F20200016861
:10165000022241F001010160016801F001010191E4
:101660000199416841F080514160406800F080502C
:10167000009000980420C4F20100016862F31A612E
:10168000016002B070470000002848BF7047C1B237
:1016900000F01F00012202FA00F04EF20012CEF21A
:1016A000000242EAD10121F0030108607047000006
:1016B00010B54EF60C5CCEF2000CDCF80030C3F333
:1016C000022E8EF00704042C28BF0424BEF103036D
:1016D0004FF0FF3E0EFA04F438BF0023A1439940B7
:1016E0000EFA03F39A43114300F00F0200F1604336
:1016F0000901043A03F564436244002848BF02F13B
:101700000C03197010BD00004EF60C51CEF2000112
:101710000A684FF6FF031A4060F30A2242F0806025
:1017200040F0FD70086070472DE9F04381B000285B
:1017300000F0858042F20008C4F202080446D8F89E
:1017400000000D4600F0070088420CD2D8F80000D7
:1017500020F007002843C8F80000D8F8000000F087
:101760000700A8426BD1206841F204098107C4F246
:10177000020917D5410705D5D9F8001041F4E061F9
:10178000C9F80010010705D5D9F8001041F46051DF
:10179000C9F80010D9F80010A26821F0F001114337
:1017A000C9F80010C00741D1D8F8000000F00700C8
:1017B000A8420CD9D8F8000020F007002843C8F848
:1017C0000000D8F8000000F00700A84237D12068D8
:1017D000410707D5D9F80010E26821F4E061114310
:1017E000C9F80010000708D5D9F80000216920F4D5
:1017F000605040EAC100C9F80000D9F8002002F0AA
:101800000C00082841F20020C0F27A0050D145F2C5
:101810009223C2F38341C0F60003595CD2033BD448
:1018200040F60010C0F23D00484341E060680228E5
:101830000AD001282AD159F8041C890308D40120B0
:1018400001B0BDE8F08300BF59F8041C8901F6D54A
:10185000D9F8001021F003010843C9F80000FFF790
:10186000C5F8064641F28837D9F80000616800F0F3
:101870000C00B0EB810F97D0FFF7B8F8801BB8428F
:10188000F2D9032001B0BDE8F08300BF59F8041C71
:101890008907D4D5DCE700BFD9F8002045F29023B2
:1018A000C2F34042C0F600039A5C4843B0FBF2F03A
:1018B000D9F8001045F27822C1F30311C0F60002F6
:1018C000515C40F2080220FA01F140F20400C2F239
:1018D00000000068C2F200021160FFF78FFE0020D6
:1018E00001B0BDE8F083000040F2080041F20401BD
:1018F000C2F20000C4F202010068096845F28822C1
:10190000C1F30221C0F60002515CC84070470000DC
:1019100040F2080041F20401C2F20000C4F20201E8
:101920000068096845F28822C1F3C221C0F60002AE
:10193000515CC840704700002DE9F04182B000289A
:1019400068D00446007841F20006C007C4F20206DF
:1019500025D0706800F00C0004281BD0706800F0DF
:101960000C00082802D17068C00313D460680028F6
:1019700000F06881B0F5A02F00F07C81B0F5803FC9
:1019800000F07C81306820F480303060306820F4D2
:10199000802076E13068800301D56068D0B320787C
:1019A000800718D5706810F00C0F07D0706800F031
:1019B0000C0008286ED17068C0036BD430688007B3
:1019C00002D52069012825D13068616920F0F8002E
:1019D00040EAC1003060207800071FD4207840071B
:1019E00032D4E56995B1706800F00C00082840F029
:1019F0008F80012D0ED07068216A00F480328A42F7
:101A000008D1616A00F47010884203D1002002B04E
:101A1000BDE8F081012002B0BDE8F081A069002896
:101A200062D00020C4F242200121C0F88014FEF7E9
:101A3000DDFF0546706A800700F18C80FEF7D6FF57
:101A4000401B0228F6D92AE1F06910F0805808D12D
:101A5000F06940F08050F061F06900F08050009033
:101A6000009847F20007C4F200073868C00529D47F
:101A7000386840F480703860FEF7B8FF054600BF54
:101A80003868C0051ED4FEF7B1FF401B6428F7D9A3
:101A900005E100BF2069002840F20000C4F24220A6
:101AA00000F0828001210160FEF7A0FF054600BF23
:101AB000306880073FF588AFFEF798FF401B02288B
:101AC000F6D9ECE0E068002800F08080052800F0FE
:101AD0009780012800F09880306A20F00100306281
:101AE000306A20F0040092E00020C4F2422000217D
:101AF000C0F88014FEF77AFF054600BF706A8007C1
:101B00007FF56CAFFEF772FF401B0228F6D9C6E0E6
:101B10000027C4F2422700203866FEF767FF022D37
:101B200005460BD13068800140F1BE80FEF75EFFB4
:101B3000401B02284FF00300F4D968E730688001A9
:101B40007FF564AFFEF752FF401B02284FF0030001
:101B5000F4D95CE740F20800C2F20000006844F6E5
:101B6000D351C1F26201A0FB0101480A019000BFFC
:101B700000BF0198411E002801913FF42FAF00BF24
:101B80000198411E002801913FF428AF00BF019841
:101B9000411E002801913FF421AF00BF0198411E72
:101BA00000280191E4D119E700210160FEF71EFF32
:101BB000054600BF306880077FF50DAFFEF716FFC2
:101BC000401B02284FF00300F4D920E7306A20F0D0
:101BD00001003062306A20F004003062FEF706FF38
:101BE000054641F2883700BF306A800720D5FEF7EE
:101BF000FDFE401BB8424FF00300F5D907E700BFD8
:101C0000306A40F004003062306A40F00100306217
:101C1000FEF7ECFE054641F2883700BF306A8007C8
:101C200006D4FEF7E3FE401BB842F7D937E000BF09
:101C3000B8F1000F7FF4D5AEF06920F08050F0616C
:101C4000CFE600BF306820F480303060306820F488
:101C500080203060FEF7CAFE054600BF3068800372
:101C60007FF59DAEFEF7C2FE401B64284FF00300D7
:101C7000F4D9CCE6306840F480203060306840F41D
:101C800080303060FEF7B2FE054600BF306880034A
:101C90003FF585AEFEF7AAFE401B6428F6D9032067
:101CA00002B0BDE8F08100BF206AB0F5803F05D1E9
:101CB0007168A26821F40031114371607168626A31
:101CC00021F4741111430843706001203866FEF757
:101CD0008DFE0446306880013FF598AEFEF786FE23
:101CE000001B02284FF00300F4D990E67047000073
:101CF00090F8510070470000B0B584B00446006809
:101D00004168826812F0400305D112F0010518BF46
:101D100011F0400512D1950708D511F0800505D0C6
:101D2000616C204604B0BDE8B040084712F0600F77
:101D300018BF11F0200507D104B0B0BD216C2046BA
:101D400004B0BDE8B0400847BBB194F85130032B54
:101D500008D100210291C168029180680290029826
:101D600004B0B0BD636D43F00403636500230393C7
:101D7000C368039383680393039B12F020020CD083
:101D8000626D42F001026265002201928268019256
:101D9000026822F040020260019A626D002ACBD0F4
:101DA0004268890722F0E00242604FF0010284F8A5
:101DB00051201FD0416844F24D7521F0030141606C
:101DC000E06CC0F6000538B14563FEF74FFC18B172
:101DD000606D40F040006065A06C0028ACD04563A9
:101DE000FEF744FC0028A7D0606D40F0400060651D
:101DF00004B0B0BD204604B0BDE8B040FFF776BFE8
:101E000070B538B10446406A30B10020206104F159
:101E1000140007E0012070BD6068B0F5827F03D038
:101E200004F11C00002101600026A66294F8510014
:101E300020B9204684F8506000F038F8022084F879
:101E4000510094E8071001F48271036802F404421F
:101E500023F040030360236911440CF40062114431
:101E600003F002026369114403F00102A369E5690A
:101E7000114403F40072114405F03802256A11443C
:101E800005F08002A56A114305F400521143016078
:101E9000042101EA13414160C16921F40061C1617B
:101EA0000120666584F85100304670BD70B586B07B
:101EB00040F60004C4F20104006804F52051002635
:101EC0008842049602D006B070BD00BF41F21800EF
:101ED000C4F20200016802AD41F480510160016862
:101EE00001F4805101910199016841F00401016000
:101EF0000068294600F0040001900198A02002909B
:101F000002200390032005902046FEF753FC40205A
:101F1000CDE90206204629460496FEF74BFC232015
:101F200000210022FFF7C4FB2320FFF7ADFB06B022
:101F300070BD00002DE9F04182B0044690F85100D8
:101F4000012819D160681D4617460E46B0F5827FFC
:101F500001D1A068A0B1FEF749FD8046002E4FF0E8
:101F6000010018BF002F03D102B0BDE8F08100BF0F
:101F700094F85000012811D1022002B0BDE8F08190
:101F8000042084F851002046314632463B460095F5
:101F900000F0CEF902B0BDE8F08100BF012084F866
:101FA00050000420002184F851006165A663A787D2
:101FB000E7872163A186E186A2682068B2F5004F19
:101FC0002164616438D00168490640D5E168E08F3A
:101FD000002944D000287BD0681C0CD11BE000BF36
:101FE000C068A16B21F8020BA163E08F0138E08784
:101FF000E08F00286CD020688168C907F0D1FEF717
:10200000F5FCA0EB0800A842F2D342E0FEF7EEFC9C
:10201000E08F00285CD020688168C907F6D0C068CE
:10202000A16B21F8020BA163E08F0138E087E08FFC
:102030000028F0D14CE000BF016821F040010160B0
:10204000016821F48041016001684906BED401683D
:1020500041F040010160E168E08F0029BAD1B8B3D6
:10206000681C0CD124E000BF007BA16B0870A06B42
:102070000130A063E08F0138E087E08F40B3206833
:102080008168C907F0D1FEF7B1FCA0EB0800A842B7
:10209000F3D3012084F85100002084F8500003207D
:1020A00002B0BDE8F08100BFFEF7A0FCE08F78B180
:1020B00020688168C907F7D0007BA16B0870A06B0E
:1020C0000130A063E08F0138E087E08F0028EFD176
:1020D0006068B0F5827F11D1A068B0F5004F02D0E2
:1020E000B0F5806F0AD12168B0F5806F0A6822F0E0
:1020F00040020A6002D12046012101E020468021F1
:1021000000222B46CDF8008002F026FB28B1606D3E
:1021100040F02000606520206065012084F85100B7
:10212000002084F85000606D002818BF012002B024
:10213000BDE8F0812DE9F04182B01D4616460F46FC
:102140000446FEF753FC94F8511001290ED1804645
:10215000002F4FF0010018BF002E03D102B0BDE8E0
:10216000F08100BF94F85000012803D1022002B092
:10217000BDE8F081012084F850000320002184F89C
:10218000510061652763A686E686A163A187E18782
:10219000A0682164B0F5004F2068616407D1016830
:1021A00021F040010160016841F480410160016853
:1021B000490603D4016841F0400101606168731E63
:1021C000E268B1FA81F1B3FA83F349095B09B2F528
:1021D000006F41EA030139D131B137F8021BC16008
:1021E0002763E08E0138E086E08E002870D0681CFE
:1021F0000BD11AE0216B31F8022BC2602163E08E13
:102200000138E086E08E002862D020688168890766
:10221000F0D4FEF7EBFBA0EB0800A842F2D338E0C5
:10222000FEF7E4FBE08E002852D020688168890721
:10223000F6D5216B31F8022BC2602163E08E0138A4
:10224000E086E08E0028F0D142E000BF39B1397855
:102250000173206B01302063E08E0138E086E08E50
:10226000B0B3681C0BD123E0216B09780173206B9C
:1022700001302063E08E0138E086E08E40B32068B4
:1022800081688907F0D4FEF7B1FBA0EB0800A842F3
:10229000F3D3012084F85100002084F8500003207B
:1022A00002B0BDE8F08100BFFEF7A0FBE08E78B180
:1022B000206881688907F7D5216B09780173206B45
:1022C00001302063E08E0138E086E08E0028EFD1F7
:1022D0002046022101222B46CDF8008002F03CFA74
:1022E00040B92046802100222B46CDF8008002F024
:1022F00033FA28B1606D40F02000606520206065F1
:10230000A06838B9002001902068C16801918068F8
:1023100001900198012084F85100002084F85000B9
:10232000606D002818BF012002B0BDE8F0810000F8
:102330002DE9F04383B01E4615460F460446FEF7CE
:1023400055FB94F85110814601290DD06068B0F515
:10235000827F15D1A06800284FF0020008BF042931
:1023600002D003B0BDE8F083002F4FF0010018BF8A
:10237000002DF6D0002EF4D094F85000012803D19F
:10238000022003B0BDE8F083012084F8500094F8E7
:102390005100002104281CBF052084F8510061650C
:1023A000A563E687A6872763E6862068A68621645C
:1023B00061640168490603D4016841F0400101608D
:1023C0006168731EE268B1FA81F1B3FA83F3DDF854
:1023D000288049095B09B2F5006F41EA030165D124
:1023E00031B137F8021BC1602763E08E0138E08607
:1023F000012518F1010032D102E000BFFEF7F6FA24
:10240000E08E18B9E08F002800F0B880206881685D
:1024100089070CD5E18E51B1012D08D1216B002522
:1024200031F8022BC2602163E18E0139E1868168B7
:10243000C907E3D0E18F0029E0D0C068A16B012576
:1024400021F8020BA163E08F0138E087D6E700BFD7
:10245000FEF7CCFAA0EB0900404580F0AF80E08E9B
:1024600018B9E08F002800F089802068816889070A
:102470000CD5E18E51B1012D08D1216B002531F829
:10248000022BC2602163E18E0139E1868168C907B0
:10249000DED0E18F0029DBD0C068A16B012521F8D7
:1024A000020BA163E08F0138E087D1E739B13978B9
:1024B0000173206B01302063E08E0138E086012536
:1024C00018F1010032D101E0FEF790FAE08E10B968
:1024D000E08F002852D02068816889070ED5E18EF0
:1024E00061B1012D0AD1216B002509780173216B9F
:1024F000206801312163E18E0139E1868168C907D5
:10250000E2D0E18F0029DFD0C068A16B01250870FF
:10251000A06B0130A063E08F0138E087D4E700BFF3
:10252000FEF764FAA0EB0900404547D2E08E08B9F7
:10253000E08F18B32068816889070ED5E18E61B1FC
:10254000012D0AD1216B002509780173216B2068C8
:1025500001312163E18E0139E1868168C907DFD04D
:10256000E18F0029DCD0C068A16B01250870A06B49
:102570000130A063E08F0138E087D1E720460221D7
:1025800001224346CDF8009002F0E6F840B920461B
:10259000802100224346CDF8009002F0DDF8B8B16A
:1025A000606D40F02000606520206065002084F8A8
:1025B0005000012003B0BDE8F08300BF012084F883
:1025C0005100002084F85000032003B0BDE8F083E0
:1025D000A06838B9002002902068C1680291806824
:1025E00002900298012084F85100002084F85000E5
:1025F000606D002818BF012003B0BDE8F083000023
:10260000411E0020B0EB116F1CBF012070474EF23D
:102610001002CEF2000251604EF62351CEF20001BC
:10262000F0230B7007219060116070477047000025
:102630007047000010B590F83C20012A4FF00202CC
:1026400033D080F83D200268D2F804E0D2F808C008
:102650000C682EF07003234340F2FF74C4F20004B0
:10266000A24253600ADCB2F1804F13D040F2004323
:10267000C4F200039A420DD011E000BF42F60043BD
:10268000C4F201039A4205D040F60003C4F20003ED
:102690009A4204D149682CF08003194391600121CA
:1026A000002280F83D1080F83C20104610BD00004C
:1026B00070470000F0B590F83C30012B04BF0220B9
:1026C000F0BD4FEAB202032A22D8DFE802F0032766
:1026D000476500BF0368D1E900C5D1F80CE01C6A6A
:1026E0001A6A40F2FF7722F001021A621A4652F883
:1026F000186FC4F20007BB4272DCB3F1804F7BD08D
:1027000040F20047C4F20007BB4275D08EE000BF24
:102710000121002280F83C200846F0BD0368D1E981
:1027200000E6D1E902C11C6A1A6A360222F01002E0
:102730001A621A4652F8185F4FF2FF07BE4325F49B
:10274000734561F30F3624F0A0040EF00A0746EA41
:10275000050144EA071711601F623AE00768D1E9F2
:1027600000C5D1E902313C6A3A6A61F3071522F4E7
:1027700080723A623A4652F81C6F26F0F30645EA38
:1027800006014FEA5C0666F3492411603C62116859
:1027900021F00C01116040E00368D1E900E6D1E9C5
:1027A00002C11C6A1A6A360222F480521A621A4660
:1027B00052F81C5F4FF2FF07BE4325F4734561F3E7
:1027C0000F364FEA5E0746EA050167F34D341160A4
:1027D0001C6211684FEA0C2321F4406111601CE077
:1027E00042F60047C4F20107BB4205D040F600079D
:1027F000C4F20007BB4219D126F00306354324F08A
:102800000A070CF00A066EF3071537449D611F6234
:102810009F6927F00C079F618B681168194311604D
:102820000021002280F83C200846F0BD46F001055A
:10283000E5E70000002804BF0120704710B50446FA
:1028400090F83D0028B9002084F83C00204600F0B4
:102850006FF8022084F83D00206840F2FF730268A0
:10286000C4F2000342F6004C9842C4F2010C15DC9D
:10287000B0F1804F1AD040F20041C4F2000188420A
:1028800014D0984218DCB0F1804F1DD040F20041C6
:10289000C4F20001884217D01AE000BF604505D09D
:1028A00040F60001C4F200018842EAD1A16822F09A
:1028B00070020A439842E6DD604505D040F600010B
:1028C000C4F20001884203D1216922F440720A4314
:1028D000A36922F08001D4F804E0E268194360455E
:1028E0000160C262C0F828E002D16169CCF8301002
:1028F000012141610269D20703D0026922F001027D
:102900000261002084F8461084F83E1084F83F10DD
:1029100084F8401084F8411084F8421084F8431081
:1029200084F8441084F8451084F83D1010BD000070
:1029300080B586B0014640F60000C4F20100096887
:1029400000F5105300229942059201D006B080BDD7
:1029500041F21801C4F202010B6843F400630B60FA
:102960000B6803F400630193019B0B6843F00403BD
:102970000B60096801F00401019101994FF4807125
:10298000CDE9021202A90492FDF714FF1B200021D9
:102990000022FEF78DFE1B20FEF776FE06B080BDFE
:1029A00061B1082916D0042919BF00F1410200F1D4
:1029B000450300F13F0200F143030FE090F83E2091
:1029C00090F84230012A4FF0010208BF012B1DD0C0
:1029D0001046704700F1400200F1440312781B7862
:1029E000012A4FF0010208BF012BF1D10222082970
:1029F00018D0042922D180F83F2080F843204FEAE4
:102A0000B103032B4FF00102E2D821E0022280F84B
:102A10003E2080F842204FEAB103032B4FF0010221
:102A2000D6D815E080F8402080F844204FEAB10362
:102A3000032B4FF00102CBD80AE000BF80F8412001
:102A400080F845204FEAB103032B4FF00102BFD8B5
:102A500045F2A42C0068C0F6000C5CF823C0C368E3
:102A600001F01F0143EA0C03C360036A02FA01F19B
:102A700023EA01020262026A114340F2FF72C4F2C9
:102A800000029042016209DCB0F1804F12D040F2A6
:102A90000041C4F2000188420CD012E042F600412D
:102AA000C4F20101884205D040F60001C4F20001E1
:102AB000884206D1816801F00701062904BF002081
:102AC00070470168002241F0010101601046704723
:102AD00070B504460068C5680669B10716D515F0DB
:102AE000020113D06FF00201016101212177806999
:102AF000800703D02046FFF7DBFD05E0204600F00D
:102B00008FF8204600F08EF800202077700719D546
:102B100015F0040016D020686FF004010161022155
:102B20002177806910F4407F04D02046FFF7C0FD74
:102B300006E000BF204600F073F8204600F072F86F
:102B400000202077300717D515F0080014D0206832
:102B50006FF00801016104212177C069800703D06B
:102B60002046FFF7A5FD05E0204600F059F8204675
:102B700000F058F800202077F00619D515F0100065
:102B800016D020686FF01001016108212177C0691B
:102B900010F4407F04D02046FFF78AFD06E000BF16
:102BA000204600F03DF8204600F03CF80020207759
:102BB000F00718BF15F0010002D1300609D412E069
:102BC00020686FF001010161204600F02DF8300609
:102BD00009D515F0800006D020686FF080010161F2
:102BE0002046FFF723FD700609D515F0400006D0FA
:102BF00020686FF040010161204600F017F8B00630
:102C000058BF70BD15F0200008D021686FF0200279
:102C100020460A61BDE87040FFF70ABD70BD0000A4
:102C200070470000704700007047000070470000C8
:102C30007047000070470000B0B582B004460068DD
:102C40000168C368426901F02F05202D03F02005BB
:102C500006D12DB1204602B0BDE8B04001F01EBE45
:102C60005FEA017C1EBF02F0010E03F4907212EBCA
:102C70000E0253D1226B012A05D111F0100218BFA8
:102C800013F0100236D10A0622D513F080021FD0AD
:102C900094F8411021293FD1A168B1F5805F03D19B
:102CA0002169002900F07082216A4A1C2262097899
:102CB0004160E18C01390A04E1842DD1C16821F021
:102CC0008001C160C16841F04001C16002B0B0BD87
:102CD000490621D513F040011ED0C16821F0400102
:102CE000C1602021204684F8411002B0BDE8B04008
:102CF00000F0CEBB00210191016801914168019172
:102D000001994069400613D4A08DE18DE28D002A1F
:102D100018BF884240F0BA8102B0B0BDCA0718BFE0
:102D200013F4807240F0B6804A0700F1B980BEE02B
:102D3000E06B016849688AB2002AEDD0A38D9A42FF
:102D4000EAD2E1858069202800F09C80206850E864
:102D5000030F216820F4807041E80302DAB1206893
:102D600050E8030F216820F4807041E8030292B11B
:102D7000206850E8030F216820F4807041E80302C6
:102D80004AB1206850E8030F216820F4807041E8C0
:102D90000302002ADAD1206850E8050F216820F0EC
:102DA000010041E80502DAB1206850E8050F21680A
:102DB00020F0010041E8050292B1206850E8050FBB
:102DC000216820F0010041E805024AB1206850E87E
:102DD000050F216820F0010041E80502002ADAD140
:102DE000206850E8050F216820F0400041E8050206
:102DF000DAB1206850E8050F216820F0400041E872
:102E0000050292B1206850E8050F216820F04000CB
:102E100041E805024AB1206850E8050F216820F01A
:102E2000400041E80502002ADAD1202084F842005F
:102E300000202063206850E8030F216820F0100074
:102E400041E80302DAB1206850E8030F216820F05E
:102E5000100041E8030292B1206850E8030F216896
:102E600020F0100041E803024AB1206850E8030F47
:102E7000216820F0100041E80302002ADAD1E06B5B
:102E8000FDF7D0FB02206063A08DE18D401A81B276
:102E9000204674E1626C42F0010262644A0706D582
:102EA000BEF1000F03D0626C42F0020262648A0736
:102EB00006D5BEF1000F03D0626C42F004026264DA
:102EC000BCF1000F09D545EA0E02B2FA82F25209AE
:102ED00003D1626C42F008026264626C002A3FF423
:102EE0001BAF11F0200118BF002D03D0204601F0C8
:102EF000D5FC20684069616C00F0400001F00801D9
:102F0000401800F0B58000BF206850E8030F21682A
:102F100020F4907041E80302BAB3206850E8030F30
:102F2000216820F4907041E8030272B3206850E8F1
:102F3000030F216820F4907041E803022AB320684F
:102F400050E8030F216820F4907041E80302002A42
:102F5000DAD11AE0206850E8050F216820F001005E
:102F600041E80502DAB1206850E8050F216820F039
:102F7000010041E8050292B1206850E8050F216880
:102F800020F0010041E805024AB1206850E8050F31
:102F9000216820F0010041E80502002ADAD1206B07
:102FA000012824D1206850E8030F216820F0100088
:102FB00041E80302DAB1206850E8030F216820F0ED
:102FC000100041E8030292B1206850E8030F216825
:102FD00020F0100041E803024AB1206850E8030FD6
:102FE000216820F0100041E80302002ADAD12020F5
:102FF00084F84200002020632068406940063FD5E5
:10300000206850E8050F216820F0400041E80502E3
:10301000DAB1206850E8050F216820F0400041E84F
:10302000050292B1206850E8050F216820F04000A9
:1030300041E805024AB1206850E8050F216820F0F8
:10304000400041E80502002ADAD1E06BC0B144F645
:103050009101C0F600014163FDF708FB00283FF431
:103060005BAEE06B416B02B0BDE8B040084700BF0B
:103070002046FFF7DFFD0020606402B0B0BD00BF56
:10308000204602B0BDE8B040FFF7D4BD401A216829
:1030900051E8031F226821F4907142E80313DBB169
:1030A000216851E8031F226821F4907142E803135C
:1030B00093B1216851E8031F226821F4907142E81E
:1030C00003134BB1216851E8031F226821F490716A
:1030D00042E80313002BDAD1216851E8051F22686A
:1030E00021F0010142E80513DBB1216851E8051F19
:1030F000226821F0010142E8051393B1216851E8EB
:10310000051F226821F0010142E805134BB1216837
:1031100051E8051F226821F0010142E80513002B48
:10312000DAD1202184F8421000212163216851E87E
:10313000031F226821F0100142E80313DBB121686C
:1031400051E8031F226821F0100142E8031393B1F4
:10315000216851E8031F226821F0100142E803139F
:103160004BB1216851E8031F226821F0100142E8A9
:103170000313002BDAD1022281B22046626302B02F
:10318000BDE8B040FFF754BD216A31F8022B6FF360
:103190005F22426021628CE5002804BF0120704755
:1031A00010B5044690F8410028B9002084F840008A
:1031B000204600F063F8242084F841002068D4E918
:1031C0000212C36823F40053C360036923F440531D
:1031D0001A430261D4E904231143C268194341F23E
:1031E0000C639A431143C1604169A26921F44071A3
:1031F000114343F60002C4F201029042416103D040
:10320000FEF772FB02E000BFFEF782FB6268192145
:1032100048439100B0FBF1F048F21F51C5F2EB11A9
:10322000A0FB01235A094FF69C73C0F6FF7302FB03
:103230000300322303EB0010A0FB0101F02303EA9B
:103240005113206803EB0212C1F343111144816052
:10325000016921F490410161416921F02A01416134
:10326000C16841F40051C16000202021606484F8ED
:10327000411084F84210606310BD000070B586B044
:1032800040F60044C4F20104006804F53051002601
:103290008842049602D006B070BD00BF41F218000B
:1032A000C4F20200016802AD41F48041016001688E
:1032B00001F4804101910199016841F00801016028
:1032C0000068294600F00800019001984020029013
:1032D00002200390032005902046FDF76BFA802022
:1032E000CDE90206204629460496FDF763FA04203C
:1032F000C4F201000168002241F0E06141F00401E4
:10330000016025200021FEF7D3F92520FEF7BCF946
:1033100006B070BD704700002DE9F041044690F8FA
:10332000410020281CBF0220BDE8F0810D46002985
:103330004FF0010000F0AA801646002A08BFBDE841
:10334000F081002060642120984684F84100FDF758
:103350004DFBA684E684A1680646B1F5805F02D1E4
:103360002069002862D02F460025E08C002861D01B
:1033700018F1010018D0B8F1000F37D1216808E02A
:1033800017F8010B4860E08C0138E084E08C0028DD
:1033900051D00868000673D5002FF1D135F8020B23
:1033A00000276FF35F20EDE7216802E00868000660
:1033B00009D40868000606D4086800065CBF0868DF
:1033C0005FEA0060F2D51FB117F8010B05E000BFFE
:1033D00035F8020B00276FF35F204860E08C01385E
:1033E000E084E08C0028E4D125E000BF216800BF24
:1033F0000868000608D4FDF7F9FA801B404541D85B
:103400002168C868F4E700BF17B117F8010B04E0A2
:1034100035F8020B00276FF35F204860E08C01381D
:10342000E084E08C0028E3D105E000BF0027E08CB9
:1034300000289DD12168086840061FD4B8F1000F0C
:103440001ED018F101000FD10868400616D4086894
:10345000400613D40868400610D4086840064FF0B0
:103460000000F1D50FE000BFFDF7C0FA801B40451A
:1034700008D82068C16800684006F5D5002002E041
:10348000FDF7B4FA0320202184F84110BDE8F08153
:10349000006843F60001C4F20101884218BF70477A
:1034A00040F20C00C2F200000121017070470000E0
:1034B000FEE7000040F2AC00C2F20000FDF7A0BA47
:1034C00040F2AC00C2F20000FDF744BB10B581B081
:1034D00000210091406A40F20801C2F2000190F818
:1034E0003DC009684BF28952C908C1F2F842A1FBFC
:1034F0000212110A232251430091009911B300993D
:10350000013900910168096889051FD50099C9B181
:1035100000990139009101680968890516D500995B
:1035200081B10099013900910168096889050DD5BB
:10353000009939B10099013900910168096889053C
:10354000DBD403E0016C41F020010164446B4FF0D7
:10355000000E002C1CBF0021A162816B00291CBF42
:1035600000228A620268002C136823F480631360CF
:10357000A0F82AE018BFC4F834E000291CBF0023DB
:103580004B63116821F00101116090F83D10602932
:103590000CD1202180F83D10002180F83E100164FC
:1035A00001B0BDE81040FDF727BA00BF0CF02801BC
:1035B000282911D1116841F001011160116841F40D
:1035C0008061116000210163282180F83D1001B065
:1035D000BDE81040FDF7ECBD202180F83D10002132
:1035E00080F83E1001B0BDE81040FDF7E1BD0000DD
:1035F00010B5044690F83D1090F83E00B0F110026E
:1036000018BF0122403818BF0120024208BF2229FA
:1036100034D001F0280028283AD100202063282047
:1036200084F83D0020684168090542D5416821F4CD
:1036300000614160606B90F82110012958D1A06BA6
:1036400043F2CD41C0F600014163FDF70FF80028B9
:1036500061D020684169490606D50069616A087031
:10366000616A206801316162016821F00101016035
:10367000202084F83D00A06B4BE000BF206802686A
:1036800022F4006202604268120505D50CE000BF1A
:1036900020684268120507D4602905D0202184F8EB
:1036A0003D10002184F83E10002121634168090586
:1036B000BCD494F83D10602950D1202184F83D10ED
:1036C000002121644169490606D50069616A0870D4
:1036D000616A206801316162016821F001010160C5
:1036E0002046FDF789F9206C000717D11BE000BFC9
:1036F00043F2CD41C0F600014163FCF7B7FF50B182
:103700002168606B0A6822F001020A60202184F8B7
:103710003D10416B8847206C000704D02068416849
:1037200021F4E061416094F83D00216C490758BFE5
:1037300010BD282810D10020CFF6FF70E0620021D4
:103740002020216384F83D00204684F83E10BDE827
:103750001040FDF7EBBD00BF10BD00BF4169490639
:1037600005D50069616A0870606A013060622046B0
:10377000FDF71EFD206C0007D0D1D4E7C16A428D51
:10378000042A07D10168426A4B6823F480634B60C6
:10379000096911E0428D032A16D102680229536893
:1037A00023F48063536005D0042903D0116821F409
:1037B000806111601169426A1170416A0131416290
:1037C000418D013941857047428D022A12D14A1E2E
:1037D0000F2A19D8DFE802F0081218121818181862
:1037E00018181818181818080268136823F480634A
:1037F0000EE000BF0168426ACAE700BF02681368B2
:1038000043F4806304E000BF0268136843F400736C
:1038100013601269436A1A70426AD0F800C0531CE0
:103820004362438D013B4385DCF810305370426A9C
:10383000036801324262428D013A42855A6822F49D
:1038400040725A60202280F83D2090F83E300022DD
:10385000402B80F83E2003D10263FDF757BE00BF26
:10386000B1F1080218BF1222203918BF11460163B6
:10387000FDF75EBD81B090F83D10222979D1C16A73
:10388000428D042A14D30168426A09691170416AA1
:1038900001314162418D01394185418D032968D152
:1038A0000068416821F48061416001B0704700BF49
:1038B000C36A022B58D0012A56D80022009240F247
:1038C0000802C2F2000212684BF28953D208C1F218
:1038D000F843A2FB03231A0A02EB82020092009A29
:1038E000013A0092009A002A46D0026813689B05AC
:1038F0001AD5009A013A0092009AEAB30268136856
:103900009B0511D5009A013A0092009AA2B3026871
:1039100013689B0508D5009A013A0092009A5AB3A1
:10392000026813689B05DAD4136823F4806313607C
:10393000536823F4E06353601269436A1A70426A61
:1039400001324262428D013A4285202280F83D20B8
:1039500090F83E300022402B80F83E2028D10263B0
:1039600001B0FDF7D3BD00BF0068416821F480615C
:10397000416001B0704700BF016C41F0200101645B
:103980000168426A4B6823F4E0634B600969117077
:10399000416A01314162418D01394185202180F820
:1039A0003D10002180F83E1001B0FDF701BC00BFC2
:1039B000B1F1080218BF1222203918BF1146016365
:1039C00001B0FDF7B5BC0000C16A90F83D20212A86
:1039D00018BF7047428D4AB1416A026811F8013B35
:1039E00013614162418D01394185704711F5803F76
:1039F00018BF082918D101684A6822F4E0624A60B9
:103A00000A6842F400720A6000212022016380F8F3
:103A10003D2090F83E2080F83E10402A08BFFDF778
:103A200077BDFDF787BC00BF2029E4D001684A6854
:103A300022F4E0624A6011210163002180F83E1007
:103A4000202180F83D10FDF775BC000090F83D1076
:103A500090F83EC0C26A038D002B08BF212919D0FF
:103A6000212905D0BCF1400F08BF222900D07047A2
:103A7000418D69B390F83E10402908BF00F040B86E
:103A8000416A026811F8013B13614162418D0139BD
:103A90004185704712F5803F18BF082A1ED1016882
:103AA0004A6822F4E0624A600A6842F400720A60DE
:103AB00000212022016380F83D2090F83E2080F80C
:103AC0003E10402A08BFFDF723BDFDF733BC00BF01
:103AD0000068416821F4806141607047202ADED08F
:103AE00001684A6822F4E0624A6011210163002102
:103AF00080F83E10202180F83D10FDF71BBC00002F
:103B000090F83D10026D5AB1026D012A14D101687E
:103B1000826CD2B20A61016D01310165704700BF4C
:103B2000C26C816C012A15D10268C9B21161016DA4
:103B300002310165704700BF026D022A12D12229AD
:103B400018D101680A6842F480720A60016D01317F
:103B5000016570470268C1F307211161016D0131F0
:103B60000165704700684169090644BF0021016191
:103B7000704700BF428D5AB1212909D1416A0268BC
:103B800011F8013B13614162418D01394185704754
:103B9000428D002A08BF2129EAD101684A6822F42F
:103BA000E0624A600A6842F400720A600021202242
:103BB000016380F83D2080F83E10FDF7A9BC0000AD
:103BC00070B50368044653F8140F400711D40E462D
:103BD000481C29D086BB00BF1868400527D4FCF7D5
:103BE00005FF236853F8140F400739D518684007BC
:103BF000F2D5002070BD00BF18684007F9D41868DE
:103C0000400514D418684007F3D4186840050ED452
:103C100018684007EDD41868400508D418684007B4
:103C20004FF0000048BF70BD18684005E4D56FF440
:103C300080601860042014E0154603E053F8140F68
:103C40004007D6D418684005F1D4FCF7CFFE401BDE
:103C50002368B042F2D958694007EFD4202000E031
:103C6000202000212022216384F83D2084F83E108A
:103C7000226C10432064012084F83C1070BD0000C9
:103C80002DE9F041054600681E46144601F47F0206
:103C900001338FB242D0DDF81880B2F5803F40F09A
:103CA000878040693840C01BB0FA80F04009A042CC
:103CB00040F0C8804EB924E040693840C01BB0FADB
:103CC00080F04009A04240F0BD80FCF78FFEA0EBE1
:103CD00008012868B142EFD941693940C91BB1FADE
:103CE00081F14909A142E7D19BE000BF406938401A
:103CF000C01BB0FA80F04009A0424FF0000040F035
:103D0000A680FCF773FE286841693940C91BB1FAE7
:103D100081F14909A142E9D183E000BFB2F5803FBA
:103D200024D100BF41693940C91BB1FA81F1490969
:103D3000A14240F0878041693940C91BB1FA81F145
:103D40004909A14240F07E8041693940C91BB1FA5E
:103D500081F14909A14275D141693940C91BB1FAC4
:103D600081F14909A142DDD06CE000BF8169394091
:103D7000C91BB1FA81F14909A14263D18169394076
:103D8000C91BB1FA81F14909A1425BD1816939406E
:103D9000C91BB1FA81F14909A14253D18169394066
:103DA000C91BB1FA81F14909A142DFD04AE000BF45
:103DB00080693840C01BB0FA80F04009A04241D170
:103DC00046B923E080693840C01BB0FA80F0400952
:103DD000A0423BD1FCF70AFEA0EB08012868B142E3
:103DE000F0D981693940C91BB1FA81F14909A14271
:103DF000E8D116E080693840C01BB0FA80F0400975
:103E0000A0424FF0000018BFBDE8F081FCF7EEFDC6
:103E1000286881693940C91BB1FA81F14909A14279
:103E2000E8D100202021286385F83D1085F83E0068
:103E3000296C41F02001296485F83C000120BDE88F
:103E4000F08100BF0020BDE8F08100BF0020BDE888
:103E5000F0810000F0B581B0044600681D4643695A
:103E60008FB203EA0701B94202D1002001B0F0BDD0
:103E700041691646013201F4806125D0002940D104
:103E8000CEB100BFFCF7B2FD411B2068B14203D99F
:103E900041693940B9424BD141693940B942E4D016
:103EA00041694905EED52CE041693940B942DCD081
:103EB0004169490525D4FCF799FD206841693940DD
:103EC000B942F1D0202024E0D9B941693940B94242
:103ED000CBD04169490514D441693940B942C4D0B5
:103EE000416949050DD441693940B942BDD04169A4
:103EF000490506D441693940B942B6D041694905FE
:103F0000E3D5016841F4007101606FF480614161A3
:103F1000042000212022216384F83D2084F83E10F3
:103F2000226C1043206484F83C10012001B0F0BDE5
:103F30002020EEE770B50368044653F8140F00061E
:103F400011D40E46481C29D086BB00BF1868400516
:103F500027D4FCF74BFD236853F8140F000639D51E
:103F600018680006F2D5002070BD00BF1868000672
:103F7000F9D41868400514D418680006F3D41868FA
:103F800040050ED418680006EDD41868400508D422
:103F9000186800064FF0000048BF70BD1868400563
:103FA000E4D56FF480601860042014E0154603E047
:103FB00053F8140F0006D6D418684005F1D4FCF766
:103FC00015FD401B2368B042F2D958690006EFD4B2
:103FD000202000E0202000212022216384F83D20C1
:103FE00084F83E10226C10432064012084F83C10B9
:103FF00070BD00002DE9F04182B001250DF10601F0
:104000000DF10703012204468DF80650009500F0DB
:10401000C3F99DF80700002700F0F8004FF0810871
:104020008DF807000DF106010DF10703204601226E
:10403000E7618DF80680009500F050FB0A20FCF740
:1040400073FB0DF106010DF10703204601228DF8E7
:104050000650009500F0A0F99DF807008DF80500C6
:104060000A20FCF761FB9DF805000DF1060140F008
:1040700080008DF807000DF10703204601228DF81E
:104080000680009500F02AFB6420FCF74DFB266AB1
:104090008621B0088DF806108DF807000DF1060195
:1040A0000DF1070320460122009500F017FB0520C3
:1040B000FCF73AFBB00187218DF806108DF8070058
:1040C0000DF106010DF1070320460122009500F0D5
:1040D00005FB0520FCF728FB88208DF806000DF174
:1040E00006010DF10703204601228DF807700095A7
:1040F00000F0F4FA0520FCF717FB94F82A00892158
:104100008DF806108DF807000DF106010DF107037B
:1041100020460122009500F0E1FA0A20FCF704FB9A
:1041200094F82B00CD222D2898BF2D20F02828BFF1
:10413000F020A0F12D01C9B2514300F11E024CF64E
:10414000CD435A43D20C792838BF8A0A02F12000A5
:104150008B218DF806108DF807000DF106010DF189
:10416000070320460122009500F0B8FA0A20FCF768
:10417000DBFA8C208DF8060023208DF807000DF166
:1041800006010DF1070320460122009500F0A6FA72
:104190001E208DF806000DF106010DF107032046E3
:1041A0000122009500F0F8F89DF807009E2140F0EC
:1041B00007008DF806108DF807000DF106010DF1CE
:1041C000070320460122009500F088FA0A20FCF738
:1041D000ABFA94F82410204600F0EEF99F208DF8F9
:1041E0000600FF208DF807000DF106010DF1070311
:1041F00020460122009500F071FA94F8260094F808
:104200002510400000EB01109D218DF806108DF85F
:1042100007000DF106010DF107032046012200956C
:1042200000F05CFA94F8240094F8256005FA00F098
:1042300000F08FFF45F22822C0F6000202EBC60311
:1042400052F836205B6800F0FBFD00F053FF1028A9
:104250004FF02600C8BF01278DF806000DF10601BA
:104260000DF1070320460122009500F095F89DF816
:104270000700A62100F0F70040EAC7008DF80610FD
:104280008DF807000DF106010DF10703204601220C
:10429000009500F023FA0A20FCF746FA94F829006A
:1042A000A0218DF806108DF807000DF106010DF123
:1042B000070320460122009500F010FA94F8280028
:1042C000A1218DF806108DF807000DF106010DF102
:1042D000070320460122009500F000FA40208DF8E7
:1042E00006000DF106010DF107032046012200959D
:1042F00000F052F89DF80700C0218DF805009DF8E8
:1043000005008DF8061040F03F008DF807000DF114
:1043100006010DF1070320460122009500F0DEF9A9
:104320000DF106010DF10703204601228DF806501C
:10433000009500F031F89DF807000DF1060100F03E
:10434000F80001308DF807000DF107032046012227
:10435000E5618DF80680009500F0C0F90A20E5615E
:10436000FCF7E2F942208DF806000DF106010DF18F
:10437000070320460122009500F00EF89DF8070083
:104380008DF805009DF805104FF4CA70122908BF7A
:10439000C82002B0BDE8F0812DE9F041044617467F
:1043A000A2880068069E0D46114600229846FCF73A
:1043B00017FBA06929463A464FF4FA63FDF7BAFEA7
:1043C000A069FDF795FC0128FAD1A0694146324663
:1043D0004FF4FA63FDF7AEFDA069FDF789FC0128F3
:1043E000FAD12068A1880122BDE8F041FCF7F8BAB3
:1043F0002DE9F04F83B016468946834622B3711EDD
:1044000006F0030003294FF0000111D306F0FC026F
:10441000524209F101076FF0030300BFFC18043397
:10442000D5180435E17021716171A171F6D1191DA2
:1044300050B10022012809F8012005D04944022882
:104440004A701CBF0020887001240DF10A010DF193
:104450000B03584601228DF80A400094FFF79CFF99
:104460009DF80B00812500F0F80001308DF80B005D
:104470000DF10A010DF10B0358460122CBF81C4047
:104480008DF80A50009400F029F912208DF80A00E6
:104490000DF10A010DF10B03584601220094FFF7BC
:1044A0007BFF9DF80B00400602D44FF000085FE050
:1044B00092208DF80A00FF208DF80B000DF10A0103
:1044C0000DF10B0358460122009400F007F9132068
:1044D0008DF80A000DF10A010DF10B035846012277
:1044E0000094FFF759FF10209DF80B808DF80A000B
:1044F0000DF10A010DF10B03584601220094FFF75C
:104500004BFF9DF80B008D218DF80A108DF80B00E4
:104510000DF10A010DF10B0358460122009400F041
:10452000DDF8464538BFB046B8F1000F4FF0000740
:104530001CD0A9F101044FF001090DF10A050DF19C
:104540000B06C24658462946012233468DF80A70AA
:10455000CDF80090FFF720FF9DF80B00BAF1010A9B
:1045600004F8010FEED10124812501E04FF000088D
:104570000DF10A010DF10B03584601228DF80A4096
:104580000094FFF709FF9DF80B00052100F0F800EB
:104590000530CBF81C108DF80B000DF10A010DF160
:1045A0000B03584601228DF80A50009400F096F84B
:1045B000404603B0BDE8F08FF0B583B00D46044629
:1045C0000C29A8BF0C251E20072DD8BF07258DF864
:1045D0000400012601A90DF10503204601220096E1
:1045E000FFF7DAFE9DF805700A20FCF79DF807F04A
:1045F0000F0040EA05109E218DF806108DF8070087
:104600000DF106010DF1070320460122009600F08E
:1046100065F80A20FCF788F894F8240094F82550EF
:1046200006FA00F000F095FD45F22822C0F60002DF
:1046300002EBC50352F835205B6800F001FC00F086
:1046400059FD002510284FF02600C8BF01258DF820
:10465000080002A90DF10903204601220096FFF788
:104660009BFE9DF80900A62100F0F70040EAC50076
:104670008DF80A108DF80B000DF10A010DF10B03F6
:1046800020460122009600F029F80A20FCF74CF899
:1046900003B0F0BDB0B582B0012501A90DF105034D
:1046A000012204468DF804500095FFF775FE9DF831
:1046B0000500052100F0F8000530E16181218DF849
:1046C00006108DF807000DF106010DF107032046D5
:1046D0000122009500F002F802B0B0BD2DE9F041D2
:1046E00004461746A2880068069E0D461146002221
:1046F0009846FCF775F9A06929463A464FF4FA63E3
:10470000FDF718FDA069FDF7F3FA0128FAD1A069B9
:10471000414632464FF4FA63FDF70CFDA069FDF700
:10472000E7FA0128FAD12068A1880122BDE8F0410A
:10473000FCF756B9FEE70000FEE7000070470000F6
:1047400040F20010C2F20000FDF7D6BA406A002124
:10475000C187C186FDF7CABA2DE9F04381B0089C34
:10476000984615460E468146FCF740F9201A00EBA4
:104770000804FCF73BF940F20801C2F200010968A5
:10478000C1F3CB3161430091D9F800108A683240FF
:10479000921BB2FA82F25209AA423DD0074618F1A2
:1047A000010031D0FCF722F9C01BA04238D200989A
:1047B00000990028A1F101010091D9F80010896841
:1047C00008BF044601EA0600801BB0FA80F04009E9
:1047D000A842E7D120E000BF88683040801BB0FAD3
:1047E00080F04009A84217D088683040801BB0FA9A
:1047F00080F04009A8420FD088683040801BB0FA92
:1048000080F04009A84207D088683040801BB0FA89
:1048100080F04009A842DFD1002001B0BDE8F0835C
:10482000D9E900014268B1F5827F22F0E0024260DE
:104830000BD1D9F80810B1F5004F02D0B1F5806F57
:1048400003D1016821F040010160D9F82810B1F5C9
:10485000005F07D1016821F400510160016841F453
:1048600000510160012089F85100002089F85000B2
:10487000032001B0BDE8F08370470000FCF79CBE48
:104880007047000040F25810C2F20000FEF720B955
:10489000406A0021C185C184FEF7CCB981B090F88F
:1048A0004210222921D183680246B3F5805F09D1E5
:1048B00052F8281F52F8183C002B63D003685B683D
:1048C0000AE000BF52F8281F13B90369002BF5D086
:1048D00003685B6803F07F030B701168013111609E
:1048E000C18D01390A04C18502D001B0704700BFF3
:1048F0000168CA6822F02002CA60CA6822F4807285
:10490000CA604A6922F001024A61202180F84210FF
:1049100000214163026B012A3CD10163016851E827
:10492000031F026821F0100142E80313DBB10168A4
:1049300051E8031F026821F0100142E8031393B10C
:10494000016851E8031F026821F0100142E80313D7
:104950004BB1016851E8031F026821F0100142E8E1
:104960000313002BDAD101680A68D20606D50022AB
:1049700000920A680092496800910099818D01B007
:10498000FEF756B9026852686FF35F2221F8022BD6
:104990008162A5E701B0FEF7BDBC000040F2A010A7
:1049A000C2F20000FEF748B9FEE7000094B0FCF741
:1049B00011FE03A800F036FA40F2700803AFC2F20D
:1049C00000088FCF08F1100C8CE88F000BAADDE9EE
:1049D000085407CA08F13003C8E9095407C3002482
:1049E00001200A9ECDE90844CDE9064403900790D2
:1049F0004FF4E0104FF4803102250C9003A8C8F862
:104A00002C60CDE90414CDE90A51FCF795FF28B1DB
:104A1000EFF3108072B600BFFEE700BF0F20CDE9B4
:104A20000E054FF4806A0EA802211094CDE911A45E
:104A3000FCF77AFE20B1EFF3108072B6FEE700BFFC
:104A400040F600460120C4F20106A8F81400022036
:104A5000A8F81C00A6F580600290C8F820004FF46A
:104A6000DC70C8F8300040F20740A8F83400092094
:104A700040F20014C8F2FF200121C2F20004C8F87D
:104A8000380041F21800C8F81060C8F81860A8F89B
:104A900024A0C8F8284088F83610C4F20200016843
:104AA00006F5806741F0100101600168002201F005
:104AB00010010391039901684FF0010941F02001B1
:104AC000016001684FF4005B01F02001039103993C
:104AD0000168002541F004010160016801F0040152
:104AE00003910399016841F00801016000684FF4E7
:104AF000005100F00800039003983846FBF770FF60
:104B0000304603210122FBF76BFFCDE903B90DF11C
:104B10000C0B4FF00209384659460595CDF8189010
:104B2000FBF748FE03200390012004A981E821023D
:104B300030465946FBF73EFE0020C1F21100CDE998
:104B4000040502985946CDF80CA03746FBF732FE13
:104B50002820002100222826FCF7AAFD2820FCF7A7
:104B600093FD07F510504FF4827184E823000A206A
:104B70004FF40072C4E90A502046C4E90355C4E961
:104B80000552E661C4E90855FDF73AF920B1EFF3A3
:104B9000108072B6FEE700BF40F2AC00A7F53841C6
:104BA000C2F2000048F2A0624FF48043C0F201025A
:104BB00080E82600C0E90353C0E90555C0E9075560
:104BC000FCF7F8FA20B1EFF3108072B6FEE700BFF1
:104BD00008F110052846FFF70DFA08F1040440F229
:104BE000AC010426C2F2000120464E221423009696
:104BF000FBF72AFB2846FFF74DFD40F2A01007F512
:104C00003051C2F2000000250C234FF4E13280E85D
:104C10002600C0E90355C0E90535C561FEF7BCFAB9
:104C200020B1EFF3108072B6FEE700BF40F25810DB
:104C300007F50051C2F200004FF6FE73CDE90E55A4
:104C4000472280E82600C0E90335C0E90555FDF795
:104C5000F1FD28B1EFF3108072B600BFFEE700BF90
:104C600040F25810C2F200000EA9FDF7E3FC28B193
:104C7000EFF3108072B600BFFEE700BF40F2581994
:104C800000250120C2F20009CDE9040503A9484628
:104C9000002203950695FDF70DFD28B1EFF3108076
:104CA00072B600BFFEE700BF48460021FDF778FE60
:104CB00040F2E81740F2A016C2F20007C2F2000666
:104CC000204600210022FBF727FC20463946FBF74F
:104CD00069FC98F8000040B198F800203046394649
:104CE0006423FEF719FB88F80050D9F800004FF450
:104CF0007A71243003E000BF08390A04E0D005606F
:104D00000268D2087C2A0BD80268D2087C2A07D80D
:104D10000268D2087C2A03D80268B2F57A7FEFD302
:104D2000056000BF0268D2087C2A0BD80268D2084E
:104D30007C2A07D80268D2087C2A03D80268B2F518
:104D40007A7FEFD3056000BF0268D2087C2A0BD8B7
:104D50000268D2087C2A07D80268D2087C2A03D8C5
:104D60000268B2F57A7FEFD3056000BF0268D2080F
:104D70007C2A0BD80268D2087C2A07D80268D2089D
:104D80007C2A03D80268B2F57A7FEFD3056000BFB2
:104D90000268D2087C2A0BD80268D2087C2A07D87D
:104DA0000268D2087C2A03D80268B2F57A7FEFD372
:104DB000056000BF0268D2087C2A0BD80268D208BE
:104DC0007C2A07D80268D2087C2A03D80268B2F588
:104DD0007A7FEFD3056000BF0268D2087C2A0BD827
:104DE0000268D2087C2A07D80268D2087C2A03D835
:104DF0000268B2F57A7FEFD3056000BF0268D2087F
:104E00007C2A3FF679AF0268D2087C2A3FF674AF5D
:104E10000268D2087C2A3FF66FAF0268B2F57A7F4B
:104E2000ECD369E740F2B111016240F2077181846D
:104E3000012180F826100821C6F2FF4181627047E7
:104E40002DE9C04130B4DFF8A4C23CEA111418BF08
:104E50003CEA131400F0ED801CEA111481EA03050A
:104E600044EAD57418BF1CEA131500F0C880A4EBFF
:104E7000050404F17F7404F500344FF0004545EA61
:104E8000C12145EAC32341EA505143EA52534FEA54
:104E9000C0204FEAC222994208BF904200F09D8094
:104EA0004FEA13650FF24416765D4FEA134506FB91
:104EB00005F7C7F1807706FB07F74FEAD737A7FB5F
:104EC00003687642A7FB06CEC8F5803838BFA8F144
:104ED000010807FB08E6A6FB028C4FF0000EE6FB7C
:104EE00003CEDCF1000CCEF1004E38BFAEF1010E66
:104EF000A6FB0C584FF00007E6FB0E87A1FB08C687
:104F0000A0FB07CE16EB0E064FF0000545F100059D
:104F1000E1FB076515F1E04E7EBFA4F580345FEA42
:104F200046066D4116F1800745F100054FEA172747
:104F300047EA05674FEA15254FEA0666A6F1DE4601
:104F4000B6F1805F20D9384605EBC47124F0010C1E
:104F500001EB0C11BCF1FE6F02D8F0BCBDE8008182
:104F600024425CBF01F5801E9EEAC47F02D4F0BCDF
:104F7000BDE80081244200F13980A1F1C041F0BCBC
:104F8000BDE8004100F04AB94FEAD02040EA415064
:104F90004FEAD1214FEAD22242EA43524FEAD323C9
:104FA000A7FB028607FB036605FB02661EEA0E0FDF
:104FB00058BFA6EB0056B6EB00564FEA520E4EEA2B
:104FC000C37E18EB0E0E56EB530EBCD518EB020841
:104FD0005E417F1C55F10005B5E74FF480154FF099
:104FE00000074FF000064FF00008ACE701F1C041A8
:104FF00001F000414FF00000F0BCBDE800810CEA78
:10500000131511EA0C1F00D00CE013EA0C1F00F07E
:1050100026804FF0000081EA030101F00041F0BC5E
:10502000BDE80081F0BCBDE8004181EA030100F069
:10503000F5B8F0BCBDE8004170B500F0A1F800BFC4
:10504000097EFC3E00F007B84FF0000081EA030142
:1050500001F00041704781EA030100F0DFB8F0BCC5
:10506000BDE8004122494FF000007047FFFDFBF909
:10507000F7F5F4F2F0EEEDEBE9E8E6E4E3E1E0DE8B
:10508000DDDBDAD8D7D5D4D3D1D0CFCDCCCBCAC8FD
:10509000C7C6C5C4C2C1C0BFBEBDBCBBBAB9B8B724
:1050A000B6B5B4B3B2B1B0AFAEADACABAAA9A8A817
:1050B000A7A6A5A4A3A3A2A1A09F9F9E9D9C9C9BE5
:1050C0009A99999897979695959493939291919090
:1050D0008F8F8E8E8D8C8C8B8B8A89898888878721
:1050E0008685858484838382828181800000FF0796
:1050F0000000F87F4FEA41034FEA5353A3F5806362
:10510000D3F11E03C8BFD3F1210C0CDD4FF00042D8
:1051100042EAC12242EA505232FA03FC8CEAE17CB4
:10512000ACEBE1707047102BC4BF0020704703F553
:10513000787CBCF1FF3F04D06FF0004282EA21008E
:10514000704770B500F01CF8499224800020704729
:10515000F2E710F0004248BF4042B0FA80F310FA84
:1051600003F10AD0C3F11D0303F5806302EB035280
:105170004FEA415002EBD12170474FF000007047D9
:105180000EF1020E2EF0030E5EF8046B364205D4CB
:10519000012A43EB030515F5001F12D8012841EB46
:1051A000010C1CF5001F0CD80ED14FEAD17C0CEB82
:1051B0004C0C0CF1020C15F5001F08BF4CEBD37C16
:1051C00004E04FF0080C01E04FEAD37C0CEB4C05F7
:1051D00026FA05F606F00706B6F1040C06D20EEB29
:1051E000860CBDE870404CF0010C6047DFE80CF025
:1051F000090B02024FF00041A1F500214FF0000021
:1052000070BD19461046012851EB010418BFD4F5B2
:10521000001484BF002001F0004170BD0808A0F513
:1052200000114FEA310170473333333333331F40BA
:10523000CDCCCCCCCCCC24403333333333332F40A0
:10524000CDCCCCCCCCCC34400000000000403F4062
:105250009A99999999D944400000000000404F4024
:105260000000000000405F400000000000406F4070
:105270000000000000407F4000000000000000002F
:1052800001020304060708090000000001020304EC
:10529000010202030405060708090A0B0C0D0E0F94
:1052A00010100000020000000400000008000000D0
:1052B00010000000FDFFFFFFFBFFFFFFF7FFFFFFF8
:1052C000EFFFFFFFE8520008000000201000000080
:1052D00028010008F85200081000002060080000B3
:1052E0004401000800000000010000001000000060
:0852F00000127A000100000029
:04000005080000ED02
:00000001FF
